{
  "contractName": "ERC165",
  "abi": [
    {
      "inputs": [],
      "stateMutability": "nonpayable",
      "type": "constructor"
    },
    {
      "inputs": [
        {
          "internalType": "bytes4",
          "name": "interfaceID",
          "type": "bytes4"
        }
      ],
      "name": "supportsInterface",
      "outputs": [
        {
          "internalType": "bool",
          "name": "",
          "type": "bool"
        }
      ],
      "stateMutability": "view",
      "type": "function"
    }
  ],
  "bytecode": "0x608060405234801561001057600080fd5b506100407f01ffc9a7a5cef8baa21ed3c5c0d7e23accb804b619e9333b597f47a0d84076e261004560201b60201c565b6101bc565b63ffffffff60e01b817bffffffffffffffffffffffffffffffffffffffffffffffffffffffff1916036100ad576040517f08c379a00000000000000000000000000000000000000000000000000000000081526004016100a49061019c565b60405180910390fd5b6001600080837bffffffffffffffffffffffffffffffffffffffffffffffffffffffff19167bffffffffffffffffffffffffffffffffffffffffffffffffffffffff1916815260200190815260200160002060006101000a81548160ff02191690831515021790555050565b600082825260208201905092915050565b7f496e76616c696420696e746572666163652072657175697265733a20696e746560008201527f726661636549642063616e6e6f74206265203078666666666666666600000000602082015250565b6000610186603c83610119565b91506101918261012a565b604082019050919050565b600060208201905081810360008301526101b581610179565b9050919050565b6101bd806101cb6000396000f3fe608060405234801561001057600080fd5b506004361061002b5760003560e01c806301ffc9a714610030575b600080fd5b61004a60048036038101906100459190610124565b610060565b604051610057919061016c565b60405180910390f35b6000806000837bffffffffffffffffffffffffffffffffffffffffffffffffffffffff19167bffffffffffffffffffffffffffffffffffffffffffffffffffffffff1916815260200190815260200160002060009054906101000a900460ff169050919050565b600080fd5b60007fffffffff0000000000000000000000000000000000000000000000000000000082169050919050565b610101816100cc565b811461010c57600080fd5b50565b60008135905061011e816100f8565b92915050565b60006020828403121561013a576101396100c7565b5b60006101488482850161010f565b91505092915050565b60008115159050919050565b61016681610151565b82525050565b6000602082019050610181600083018461015d565b9291505056fea2646970667358221220d4a68ed578f2af50e078512403a9438753deba81ddcfabb78c6535d524a958fe64736f6c634300080f0033",
  "immutableReferences": {},
  "source": "// SPDX-License-Identifieer: MIT\npragma solidity ^0.8.0;\n\nimport \"./interfaces/IERC165.sol\";\n\n// Setting up an interface support for all the ERC standard contracts to follow along with\ncontract ERC165 is IERC165 {\n    mapping(bytes4 => bool) private _supportedInterfaces;\n\n    constructor() {\n        _registerInterface(bytes4(keccak256(\"supportsInterface(bytes4)\")));\n    }\n\n    function supportsInterface(bytes4 interfaceID)\n        external\n        view\n        override\n        returns (bool)\n    {\n        return _supportedInterfaces[interfaceID];\n    }\n\n    function _registerInterface(bytes4 interfaceId) internal {\n        require(\n            interfaceId != 0xffffffff,\n            \"Invalid interface requires: interfaceId cannot be 0xffffffff\"\n        );\n        _supportedInterfaces[interfaceId] = true;\n    }\n}\n",
  "sourcePath": "/Users/sumitgautam/Public/nft-marketplace-starter-kit/src/contracts/ERC165.sol",
  "compiler": {
    "name": "solc",
    "version": "0.8.15+commit.e14f2714.Emscripten.clang"
  },
  "schemaVersion": "3.4.8",
  "updatedAt": "2022-07-02T23:29:58.746Z",
  "devdoc": {
    "kind": "dev",
    "methods": {
      "supportsInterface(bytes4)": {
        "details": "Interface identification is specified in ERC-165. This function  uses less than 30,000 gas.",
        "params": {
          "interfaceID": "The interface identifier, as specified in ERC-165"
        },
        "returns": {
          "_0": "`true` if the contract implements `interfaceID` and  `interfaceID` is not 0xffffffff, `false` otherwise"
        }
      }
    },
    "version": 1
  },
  "userdoc": {
    "kind": "user",
    "methods": {
      "supportsInterface(bytes4)": {
        "notice": "Query if a contract implements an interface"
      }
    },
    "version": 1
  }
}