{
  "contractName": "ERC721Metadata",
  "abi": [
    {
      "inputs": [
        {
          "internalType": "string",
          "name": "named",
          "type": "string"
        },
        {
          "internalType": "string",
          "name": "symbolified",
          "type": "string"
        }
      ],
      "stateMutability": "nonpayable",
      "type": "constructor"
    },
    {
      "inputs": [
        {
          "internalType": "bytes4",
          "name": "interfaceID",
          "type": "bytes4"
        }
      ],
      "name": "supportsInterface",
      "outputs": [
        {
          "internalType": "bool",
          "name": "",
          "type": "bool"
        }
      ],
      "stateMutability": "view",
      "type": "function"
    },
    {
      "inputs": [],
      "name": "name",
      "outputs": [
        {
          "internalType": "string",
          "name": "",
          "type": "string"
        }
      ],
      "stateMutability": "view",
      "type": "function"
    },
    {
      "inputs": [],
      "name": "symbol",
      "outputs": [
        {
          "internalType": "string",
          "name": "",
          "type": "string"
        }
      ],
      "stateMutability": "view",
      "type": "function"
    }
  ],
  "bytecode": "0x60806040523480156200001157600080fd5b5060405162000a0938038062000a09833981810160405281019062000037919062000419565b620000687f01ffc9a7a5cef8baa21ed3c5c0d7e23accb804b619e9333b597f47a0d84076e2620000f560201b60201c565b620000bb7f03144f78da04809d8e78d6e9da10443141715f98474f72c3a0757085607c67d17f7feaf19471f34a12a7eaf32d5f3090aa2260ea8624dc8a138e74e0bf0f62307618620000f560201b60201c565b8160019080519060200190620000d3929190620001cc565b508060029080519060200190620000ec929190620001cc565b505050620005ab565b63ffffffff60e01b817bffffffffffffffffffffffffffffffffffffffffffffffffffffffff19160362000160576040517f08c379a0000000000000000000000000000000000000000000000000000000008152600401620001579062000525565b60405180910390fd5b6001600080837bffffffffffffffffffffffffffffffffffffffffffffffffffffffff19167bffffffffffffffffffffffffffffffffffffffffffffffffffffffff1916815260200190815260200160002060006101000a81548160ff02191690831515021790555050565b828054620001da9062000576565b90600052602060002090601f016020900481019282620001fe57600085556200024a565b82601f106200021957805160ff19168380011785556200024a565b828001600101855582156200024a579182015b82811115620002495782518255916020019190600101906200022c565b5b5090506200025991906200025d565b5090565b5b80821115620002785760008160009055506001016200025e565b5090565b6000604051905090565b600080fd5b600080fd5b600080fd5b600080fd5b6000601f19601f8301169050919050565b7f4e487b7100000000000000000000000000000000000000000000000000000000600052604160045260246000fd5b620002e5826200029a565b810181811067ffffffffffffffff82111715620003075762000306620002ab565b5b80604052505050565b60006200031c6200027c565b90506200032a8282620002da565b919050565b600067ffffffffffffffff8211156200034d576200034c620002ab565b5b62000358826200029a565b9050602081019050919050565b60005b838110156200038557808201518184015260208101905062000368565b8381111562000395576000848401525b50505050565b6000620003b2620003ac846200032f565b62000310565b905082815260208101848484011115620003d157620003d062000295565b5b620003de84828562000365565b509392505050565b600082601f830112620003fe57620003fd62000290565b5b8151620004108482602086016200039b565b91505092915050565b6000806040838503121562000433576200043262000286565b5b600083015167ffffffffffffffff8111156200045457620004536200028b565b5b6200046285828601620003e6565b925050602083015167ffffffffffffffff8111156200048657620004856200028b565b5b6200049485828601620003e6565b9150509250929050565b600082825260208201905092915050565b7f496e76616c696420696e746572666163652072657175697265733a20696e746560008201527f726661636549642063616e6e6f74206265203078666666666666666600000000602082015250565b60006200050d603c836200049e565b91506200051a82620004af565b604082019050919050565b600060208201905081810360008301526200054081620004fe565b9050919050565b7f4e487b7100000000000000000000000000000000000000000000000000000000600052602260045260246000fd5b600060028204905060018216806200058f57607f821691505b602082108103620005a557620005a462000547565b5b50919050565b61044e80620005bb6000396000f3fe608060405234801561001057600080fd5b50600436106100415760003560e01c806301ffc9a71461004657806306fdde031461007657806395d89b4114610094575b600080fd5b610060600480360381019061005b919061029a565b6100b2565b60405161006d91906102e2565b60405180910390f35b61007e610119565b60405161008b9190610396565b60405180910390f35b61009c6101ab565b6040516100a99190610396565b60405180910390f35b6000806000837bffffffffffffffffffffffffffffffffffffffffffffffffffffffff19167bffffffffffffffffffffffffffffffffffffffffffffffffffffffff1916815260200190815260200160002060009054906101000a900460ff169050919050565b606060018054610128906103e7565b80601f0160208091040260200160405190810160405280929190818152602001828054610154906103e7565b80156101a15780601f10610176576101008083540402835291602001916101a1565b820191906000526020600020905b81548152906001019060200180831161018457829003601f168201915b5050505050905090565b6060600280546101ba906103e7565b80601f01602080910402602001604051908101604052809291908181526020018280546101e6906103e7565b80156102335780601f1061020857610100808354040283529160200191610233565b820191906000526020600020905b81548152906001019060200180831161021657829003601f168201915b5050505050905090565b600080fd5b60007fffffffff0000000000000000000000000000000000000000000000000000000082169050919050565b61027781610242565b811461028257600080fd5b50565b6000813590506102948161026e565b92915050565b6000602082840312156102b0576102af61023d565b5b60006102be84828501610285565b91505092915050565b60008115159050919050565b6102dc816102c7565b82525050565b60006020820190506102f760008301846102d3565b92915050565b600081519050919050565b600082825260208201905092915050565b60005b8381101561033757808201518184015260208101905061031c565b83811115610346576000848401525b50505050565b6000601f19601f8301169050919050565b6000610368826102fd565b6103728185610308565b9350610382818560208601610319565b61038b8161034c565b840191505092915050565b600060208201905081810360008301526103b0818461035d565b905092915050565b7f4e487b7100000000000000000000000000000000000000000000000000000000600052602260045260246000fd5b600060028204905060018216806103ff57607f821691505b602082108103610412576104116103b8565b5b5091905056fea2646970667358221220e130e2886fc281533c7056e7d95313ef9b29f7bf4cea3992a4be8be3e93fb0e964736f6c634300080d0033",
  "immutableReferences": {},
  "source": "// SPDX-License-Identifier: MIT\npragma solidity ^0.8.0;\n\nimport \"./interfaces/IERC721Metadata.sol\";\nimport \"./ERC165.sol\";\n\ncontract ERC721Metadata is IERC721Metadata, ERC165 {\n    string private _name;\n    string private _symbol;\n\n    //Parameterized constructor\n    constructor(string memory named, string memory symbolified) {\n        _registerInterface(\n            bytes4(keccak256(\"name(bytes4)\") ^ keccak256(\"symbol(bytes4\"))\n        );\n        _name = named;\n        _symbol = symbolified;\n    }\n\n    function name() external view override returns (string memory) {\n        return _name;\n    }\n\n    function symbol() external view override returns (string memory) {\n        return _symbol;\n    }\n}\n",
  "sourcePath": "/Users/sumitgautam/Public/nft-marketplace-starter-kit/src/contracts/ERC721Metadata.sol",
  "compiler": {
    "name": "solc",
    "version": "0.8.13+commit.abaa5c0e.Emscripten.clang"
  },
  "schemaVersion": "3.4.4",
  "updatedAt": "2022-04-15T06:53:59.445Z",
  "devdoc": {
    "kind": "dev",
    "methods": {
      "supportsInterface(bytes4)": {
        "details": "Interface identification is specified in ERC-165. This function  uses less than 30,000 gas.",
        "params": {
          "interfaceID": "The interface identifier, as specified in ERC-165"
        },
        "returns": {
          "_0": "`true` if the contract implements `interfaceID` and  `interfaceID` is not 0xffffffff, `false` otherwise"
        }
      }
    },
    "version": 1
  },
  "userdoc": {
    "kind": "user",
    "methods": {
      "supportsInterface(bytes4)": {
        "notice": "Query if a contract implements an interface"
      }
    },
    "version": 1
  }
}