{
  "contractName": "ERC721Connector",
  "abi": [
    {
      "inputs": [
        {
          "internalType": "string",
          "name": "name",
          "type": "string"
        },
        {
          "internalType": "string",
          "name": "symbol",
          "type": "string"
        }
      ],
      "stateMutability": "nonpayable",
      "type": "constructor"
    },
    {
      "anonymous": false,
      "inputs": [
        {
          "indexed": true,
          "internalType": "address",
          "name": "_owner",
          "type": "address"
        },
        {
          "indexed": true,
          "internalType": "address",
          "name": "_approved",
          "type": "address"
        },
        {
          "indexed": true,
          "internalType": "uint256",
          "name": "_tokenId",
          "type": "uint256"
        }
      ],
      "name": "Approval",
      "type": "event"
    },
    {
      "anonymous": false,
      "inputs": [
        {
          "indexed": true,
          "internalType": "address",
          "name": "_from",
          "type": "address"
        },
        {
          "indexed": true,
          "internalType": "address",
          "name": "_to",
          "type": "address"
        },
        {
          "indexed": true,
          "internalType": "uint256",
          "name": "_tokenId",
          "type": "uint256"
        }
      ],
      "name": "Transfer",
      "type": "event"
    },
    {
      "inputs": [
        {
          "internalType": "address",
          "name": "_to",
          "type": "address"
        },
        {
          "internalType": "uint256",
          "name": "tokenId",
          "type": "uint256"
        }
      ],
      "name": "approve",
      "outputs": [],
      "stateMutability": "nonpayable",
      "type": "function"
    },
    {
      "inputs": [
        {
          "internalType": "address",
          "name": "_owner",
          "type": "address"
        }
      ],
      "name": "balanceOf",
      "outputs": [
        {
          "internalType": "uint256",
          "name": "",
          "type": "uint256"
        }
      ],
      "stateMutability": "view",
      "type": "function"
    },
    {
      "inputs": [
        {
          "internalType": "uint256",
          "name": "tokenId",
          "type": "uint256"
        }
      ],
      "name": "getApproved",
      "outputs": [
        {
          "internalType": "address",
          "name": "",
          "type": "address"
        }
      ],
      "stateMutability": "view",
      "type": "function"
    },
    {
      "inputs": [
        {
          "internalType": "address",
          "name": "owner",
          "type": "address"
        },
        {
          "internalType": "address",
          "name": "operator",
          "type": "address"
        }
      ],
      "name": "isApprovedForAll",
      "outputs": [
        {
          "internalType": "bool",
          "name": "",
          "type": "bool"
        }
      ],
      "stateMutability": "view",
      "type": "function"
    },
    {
      "inputs": [],
      "name": "name",
      "outputs": [
        {
          "internalType": "string",
          "name": "",
          "type": "string"
        }
      ],
      "stateMutability": "view",
      "type": "function"
    },
    {
      "inputs": [
        {
          "internalType": "uint256",
          "name": "_tokenId",
          "type": "uint256"
        }
      ],
      "name": "ownerOf",
      "outputs": [
        {
          "internalType": "address",
          "name": "",
          "type": "address"
        }
      ],
      "stateMutability": "view",
      "type": "function"
    },
    {
      "inputs": [
        {
          "internalType": "bytes4",
          "name": "interfaceID",
          "type": "bytes4"
        }
      ],
      "name": "supportsInterface",
      "outputs": [
        {
          "internalType": "bool",
          "name": "",
          "type": "bool"
        }
      ],
      "stateMutability": "view",
      "type": "function"
    },
    {
      "inputs": [],
      "name": "symbol",
      "outputs": [
        {
          "internalType": "string",
          "name": "",
          "type": "string"
        }
      ],
      "stateMutability": "view",
      "type": "function"
    },
    {
      "inputs": [
        {
          "internalType": "uint256",
          "name": "index",
          "type": "uint256"
        }
      ],
      "name": "tokenByIndex",
      "outputs": [
        {
          "internalType": "uint256",
          "name": "",
          "type": "uint256"
        }
      ],
      "stateMutability": "view",
      "type": "function"
    },
    {
      "inputs": [
        {
          "internalType": "address",
          "name": "owner",
          "type": "address"
        },
        {
          "internalType": "uint256",
          "name": "index",
          "type": "uint256"
        }
      ],
      "name": "tokenOfOwnerByIndex",
      "outputs": [
        {
          "internalType": "uint256",
          "name": "",
          "type": "uint256"
        }
      ],
      "stateMutability": "view",
      "type": "function"
    },
    {
      "inputs": [],
      "name": "totalSupply",
      "outputs": [
        {
          "internalType": "uint256",
          "name": "",
          "type": "uint256"
        }
      ],
      "stateMutability": "view",
      "type": "function"
    },
    {
      "inputs": [
        {
          "internalType": "address",
          "name": "_from",
          "type": "address"
        },
        {
          "internalType": "address",
          "name": "_to",
          "type": "address"
        },
        {
          "internalType": "uint256",
          "name": "_tokenId",
          "type": "uint256"
        }
      ],
      "name": "transferFrom",
      "outputs": [],
      "stateMutability": "nonpayable",
      "type": "function"
    }
  ],
  "bytecode": "0x60806040523480156200001157600080fd5b5060405162001e9538038062001e95833981810160405281019062000037919062000507565b81816200006a7f01ffc9a7a5cef8baa21ed3c5c0d7e23accb804b619e9333b597f47a0d84076e2620001e360201b60201c565b620000bd7f03144f78da04809d8e78d6e9da10443141715f98474f72c3a0757085607c67d17f7feaf19471f34a12a7eaf32d5f3090aa2260ea8624dc8a138e74e0bf0f62307618620001e360201b60201c565b8160019080519060200190620000d5929190620002ba565b508060029080519060200190620000ee929190620002ba565b505050620001667f22c82707ba960a14c7592ffb6b8cfaa073fed0048a84cc7fa41f6b5bd8e7f2e47f3a6eb71757dfc6e784c1459d26270140c2c147d95ca985c80026fc5301c3eca17f8a7e378434598edc36d108689a030cbc9d7d465de4f74c71bae1028eed6a881b1818620001e360201b60201c565b620001db7f8230223f691b981717299fae9549350a0d894555723531f02108b1f522c1a7977f6da5e1284143cdd2d15038a59bde3be031250f00291d64494c12d967b3a4e0c37fc53637662700e6c65104059db8bba34439e0c32483ab7c34e3ccae52c73954951818620001e360201b60201c565b505062000699565b63ffffffff60e01b817bffffffffffffffffffffffffffffffffffffffffffffffffffffffff1916036200024e576040517f08c379a0000000000000000000000000000000000000000000000000000000008152600401620002459062000613565b60405180910390fd5b6001600080837bffffffffffffffffffffffffffffffffffffffffffffffffffffffff19167bffffffffffffffffffffffffffffffffffffffffffffffffffffffff1916815260200190815260200160002060006101000a81548160ff02191690831515021790555050565b828054620002c89062000664565b90600052602060002090601f016020900481019282620002ec576000855562000338565b82601f106200030757805160ff191683800117855562000338565b8280016001018555821562000338579182015b82811115620003375782518255916020019190600101906200031a565b5b5090506200034791906200034b565b5090565b5b80821115620003665760008160009055506001016200034c565b5090565b6000604051905090565b600080fd5b600080fd5b600080fd5b600080fd5b6000601f19601f8301169050919050565b7f4e487b7100000000000000000000000000000000000000000000000000000000600052604160045260246000fd5b620003d38262000388565b810181811067ffffffffffffffff82111715620003f557620003f462000399565b5b80604052505050565b60006200040a6200036a565b9050620004188282620003c8565b919050565b600067ffffffffffffffff8211156200043b576200043a62000399565b5b620004468262000388565b9050602081019050919050565b60005b838110156200047357808201518184015260208101905062000456565b8381111562000483576000848401525b50505050565b6000620004a06200049a846200041d565b620003fe565b905082815260208101848484011115620004bf57620004be62000383565b5b620004cc84828562000453565b509392505050565b600082601f830112620004ec57620004eb6200037e565b5b8151620004fe84826020860162000489565b91505092915050565b6000806040838503121562000521576200052062000374565b5b600083015167ffffffffffffffff81111562000542576200054162000379565b5b6200055085828601620004d4565b925050602083015167ffffffffffffffff81111562000574576200057362000379565b5b6200058285828601620004d4565b9150509250929050565b600082825260208201905092915050565b7f496e76616c696420696e746572666163652072657175697265733a20696e746560008201527f726661636549642063616e6e6f74206265203078666666666666666600000000602082015250565b6000620005fb603c836200058c565b915062000608826200059d565b604082019050919050565b600060208201905081810360008301526200062e81620005ec565b9050919050565b7f4e487b7100000000000000000000000000000000000000000000000000000000600052602260045260246000fd5b600060028204905060018216806200067d57607f821691505b60208210810362000693576200069262000635565b5b50919050565b6117ec80620006a96000396000f3fe608060405234801561001057600080fd5b50600436106100b45760003560e01c80632f745c59116100715780632f745c591461018d5780634f6ccce7146101bd5780636352211e146101ed57806370a082311461021d57806395d89b411461024d578063e985e9c51461026b576100b4565b806301ffc9a7146100b957806306fdde03146100e9578063081812fc14610107578063095ea7b31461013757806318160ddd1461015357806323b872dd14610171575b600080fd5b6100d360048036038101906100ce9190610ddd565b61029b565b6040516100e09190610e25565b60405180910390f35b6100f1610302565b6040516100fe9190610ed9565b60405180910390f35b610121600480360381019061011c9190610f31565b610394565b60405161012e9190610f9f565b60405180910390f35b610151600480360381019061014c9190610fe6565b6103d1565b005b61015b610551565b6040516101689190611035565b60405180910390f35b61018b60048036038101906101869190611050565b61055e565b005b6101a760048036038101906101a29190610fe6565b6105b7565b6040516101b49190611035565b60405180910390f35b6101d760048036038101906101d29190610f31565b6106d8565b6040516101e49190611035565b60405180910390f35b61020760048036038101906102029190610f31565b6107b0565b6040516102149190610f9f565b60405180910390f35b610237600480360381019061023291906110a3565b61082f565b6040516102449190611035565b60405180910390f35b6102556108e6565b6040516102629190610ed9565b60405180910390f35b610285600480360381019061028091906110d0565b610978565b6040516102929190610e25565b60405180910390f35b6000806000837bffffffffffffffffffffffffffffffffffffffffffffffffffffffff19167bffffffffffffffffffffffffffffffffffffffffffffffffffffffff1916815260200190815260200160002060009054906101000a900460ff169050919050565b6060600180546103119061113f565b80601f016020809104026020016040519081016040528092919081815260200182805461033d9061113f565b801561038a5780601f1061035f5761010080835404028352916020019161038a565b820191906000526020600020905b81548152906001019060200180831161036d57829003601f168201915b5050505050905090565b60006005600083815260200190815260200160002060009054906101000a900473ffffffffffffffffffffffffffffffffffffffff169050919050565b60006103dc826107b0565b90508073ffffffffffffffffffffffffffffffffffffffff168373ffffffffffffffffffffffffffffffffffffffff160361044c576040517f08c379a0000000000000000000000000000000000000000000000000000000008152600401610443906111e2565b60405180910390fd5b8073ffffffffffffffffffffffffffffffffffffffff163373ffffffffffffffffffffffffffffffffffffffff16146104ba576040517f08c379a00000000000000000000000000000000000000000000000000000000081526004016104b190611274565b60405180910390fd5b8273ffffffffffffffffffffffffffffffffffffffff166005600084815260200190815260200160002060009054906101000a90505050818373ffffffffffffffffffffffffffffffffffffffff168273ffffffffffffffffffffffffffffffffffffffff167f8c5be1e5ebec7d5bd14f71427d1e84f3dd0314c0f7b2291e5b200ac8c7c3b92560405160405180910390a4505050565b6000600780549050905090565b6105683382610a0c565b6105a7576040517f08c379a000000000000000000000000000000000000000000000000000000000815260040161059e90611306565b60405180910390fd5b6105b2838383610aea565b505050565b60003073ffffffffffffffffffffffffffffffffffffffff166370a08231846040518263ffffffff1660e01b81526004016105f29190610f9f565b602060405180830381865afa15801561060f573d6000803e3d6000fd5b505050506040513d601f19601f82011682018060405250810190610633919061133b565b8210610674576040517f08c379a000000000000000000000000000000000000000000000000000000000815260040161066b906113b4565b60405180910390fd5b600960008473ffffffffffffffffffffffffffffffffffffffff1673ffffffffffffffffffffffffffffffffffffffff16815260200190815260200160002082815481106106c5576106c46113d4565b5b9060005260206000200154905092915050565b60003073ffffffffffffffffffffffffffffffffffffffff166318160ddd6040518163ffffffff1660e01b8152600401602060405180830381865afa158015610725573d6000803e3d6000fd5b505050506040513d601f19601f82011682018060405250810190610749919061133b565b821061078a576040517f08c379a00000000000000000000000000000000000000000000000000000000081526004016107819061144f565b60405180910390fd5b6007828154811061079e5761079d6113d4565b5b90600052602060002001549050919050565b60008082036107f4576040517f08c379a00000000000000000000000000000000000000000000000000000000081526004016107eb906114bb565b60405180910390fd5b6003600083815260200190815260200160002060009054906101000a900473ffffffffffffffffffffffffffffffffffffffff169050919050565b60008073ffffffffffffffffffffffffffffffffffffffff168273ffffffffffffffffffffffffffffffffffffffff160361089f576040517f08c379a00000000000000000000000000000000000000000000000000000000081526004016108969061154d565b60405180910390fd5b600460008373ffffffffffffffffffffffffffffffffffffffff1673ffffffffffffffffffffffffffffffffffffffff168152602001908152602001600020549050919050565b6060600280546108f59061113f565b80601f01602080910402602001604051908101604052809291908181526020018280546109219061113f565b801561096e5780601f106109435761010080835404028352916020019161096e565b820191906000526020600020905b81548152906001019060200180831161095157829003601f168201915b5050505050905090565b6000600660008473ffffffffffffffffffffffffffffffffffffffff1673ffffffffffffffffffffffffffffffffffffffff16815260200190815260200160002060008373ffffffffffffffffffffffffffffffffffffffff1673ffffffffffffffffffffffffffffffffffffffff16815260200190815260200160002060009054906101000a900460ff16905092915050565b6000610a1782610d14565b610a56576040517f08c379a0000000000000000000000000000000000000000000000000000000008152600401610a4d906115b9565b60405180910390fd5b6000610a61836107b0565b90508073ffffffffffffffffffffffffffffffffffffffff168473ffffffffffffffffffffffffffffffffffffffff161480610aa35750610aa28185610978565b5b80610ae157508373ffffffffffffffffffffffffffffffffffffffff16610ac984610394565b73ffffffffffffffffffffffffffffffffffffffff16145b91505092915050565b600073ffffffffffffffffffffffffffffffffffffffff168273ffffffffffffffffffffffffffffffffffffffff1603610b59576040517f08c379a0000000000000000000000000000000000000000000000000000000008152600401610b509061164b565b60405180910390fd5b8273ffffffffffffffffffffffffffffffffffffffff16610b79826107b0565b73ffffffffffffffffffffffffffffffffffffffff1614610bcf576040517f08c379a0000000000000000000000000000000000000000000000000000000008152600401610bc6906116dd565b60405180910390fd5b6001600460008573ffffffffffffffffffffffffffffffffffffffff1673ffffffffffffffffffffffffffffffffffffffff1681526020019081526020016000206000828254610c1f919061172c565b925050819055506001600460008473ffffffffffffffffffffffffffffffffffffffff1673ffffffffffffffffffffffffffffffffffffffff1681526020019081526020016000206000828254610c769190611760565b925050819055508173ffffffffffffffffffffffffffffffffffffffff166003600083815260200190815260200160002060009054906101000a90505050808273ffffffffffffffffffffffffffffffffffffffff168473ffffffffffffffffffffffffffffffffffffffff167fddf252ad1be2c89b69c2b068fc378daa952ba7f163c4a11628f55a4df523b3ef60405160405180910390a4505050565b60008073ffffffffffffffffffffffffffffffffffffffff166003600084815260200190815260200160002060009054906101000a900473ffffffffffffffffffffffffffffffffffffffff1673ffffffffffffffffffffffffffffffffffffffff1614159050919050565b600080fd5b60007fffffffff0000000000000000000000000000000000000000000000000000000082169050919050565b610dba81610d85565b8114610dc557600080fd5b50565b600081359050610dd781610db1565b92915050565b600060208284031215610df357610df2610d80565b5b6000610e0184828501610dc8565b91505092915050565b60008115159050919050565b610e1f81610e0a565b82525050565b6000602082019050610e3a6000830184610e16565b92915050565b600081519050919050565b600082825260208201905092915050565b60005b83811015610e7a578082015181840152602081019050610e5f565b83811115610e89576000848401525b50505050565b6000601f19601f8301169050919050565b6000610eab82610e40565b610eb58185610e4b565b9350610ec5818560208601610e5c565b610ece81610e8f565b840191505092915050565b60006020820190508181036000830152610ef38184610ea0565b905092915050565b6000819050919050565b610f0e81610efb565b8114610f1957600080fd5b50565b600081359050610f2b81610f05565b92915050565b600060208284031215610f4757610f46610d80565b5b6000610f5584828501610f1c565b91505092915050565b600073ffffffffffffffffffffffffffffffffffffffff82169050919050565b6000610f8982610f5e565b9050919050565b610f9981610f7e565b82525050565b6000602082019050610fb46000830184610f90565b92915050565b610fc381610f7e565b8114610fce57600080fd5b50565b600081359050610fe081610fba565b92915050565b60008060408385031215610ffd57610ffc610d80565b5b600061100b85828601610fd1565b925050602061101c85828601610f1c565b9150509250929050565b61102f81610efb565b82525050565b600060208201905061104a6000830184611026565b92915050565b60008060006060848603121561106957611068610d80565b5b600061107786828701610fd1565b935050602061108886828701610fd1565b925050604061109986828701610f1c565b9150509250925092565b6000602082840312156110b9576110b8610d80565b5b60006110c784828501610fd1565b91505092915050565b600080604083850312156110e7576110e6610d80565b5b60006110f585828601610fd1565b925050602061110685828601610fd1565b9150509250929050565b7f4e487b7100000000000000000000000000000000000000000000000000000000600052602260045260246000fd5b6000600282049050600182168061115757607f821691505b60208210810361116a57611169611110565b5b50919050565b7f4572726f72202d20617070726f76616c20746f2063757272656e74206f776e6560008201527f7200000000000000000000000000000000000000000000000000000000000000602082015250565b60006111cc602183610e4b565b91506111d782611170565b604082019050919050565b600060208201905081810360008301526111fb816111bf565b9050919050565b7f43757272656e742063616c6c6572206973206e6f7420746865206f776e65722060008201527f6f662074686520746f6b656e0000000000000000000000000000000000000000602082015250565b600061125e602c83610e4b565b915061126982611202565b604082019050919050565b6000602082019050818103600083015261128d81611251565b9050919050565b7f4552433732313a206d757374206861766520617070726f766564206f72206f7760008201527f6e65722073746174757320666f722074686520746f6b656e0000000000000000602082015250565b60006112f0603883610e4b565b91506112fb82611294565b604082019050919050565b6000602082019050818103600083015261131f816112e3565b9050919050565b60008151905061133581610f05565b92915050565b60006020828403121561135157611350610d80565b5b600061135f84828501611326565b91505092915050565b7f6f776e657220696e646578206973206f7574206f6620626f756e647300000000600082015250565b600061139e601c83610e4b565b91506113a982611368565b602082019050919050565b600060208201905081810360008301526113cd81611391565b9050919050565b7f4e487b7100000000000000000000000000000000000000000000000000000000600052603260045260246000fd5b7f676c6f62616c20696e646578206f7574206f6620626f756e6473210000000000600082015250565b6000611439601b83610e4b565b915061144482611403565b602082019050919050565b600060208201905081810360008301526114688161142c565b9050919050565b7f546f6b656e2049442063616e6e6f74206265207a65726f000000000000000000600082015250565b60006114a5601783610e4b565b91506114b08261146f565b602082019050919050565b600060208201905081810360008301526114d481611498565b9050919050565b7f4f776e65722071756572792063616e6e6f7420626520666f7220746865207a6560008201527f726f206164647265737300000000000000000000000000000000000000000000602082015250565b6000611537602a83610e4b565b9150611542826114db565b604082019050919050565b600060208201905081810360008301526115668161152a565b9050919050565b7f546f6b656e20646f6573206e6f74206578697374730000000000000000000000600082015250565b60006115a3601583610e4b565b91506115ae8261156d565b602082019050919050565b600060208201905081810360008301526115d281611596565b9050919050565b7f4572726f72202d204552433732313a207472616e7366657220746f207468652060008201527f7a65726f20616464726573730000000000000000000000000000000000000000602082015250565b6000611635602c83610e4b565b9150611640826115d9565b604082019050919050565b6000602082019050818103600083015261166481611628565b9050919050565b7f547279696e6720746f207472616e73666572206120746f6b656e20746865206160008201527f64647265737320646f6573206e6f74206f776e65640000000000000000000000602082015250565b60006116c7603583610e4b565b91506116d28261166b565b604082019050919050565b600060208201905081810360008301526116f6816116ba565b9050919050565b7f4e487b7100000000000000000000000000000000000000000000000000000000600052601160045260246000fd5b600061173782610efb565b915061174283610efb565b925082821015611755576117546116fd565b5b828203905092915050565b600061176b82610efb565b915061177683610efb565b9250827fffffffffffffffffffffffffffffffffffffffffffffffffffffffffffffffff038211156117ab576117aa6116fd565b5b82820190509291505056fea2646970667358221220afa9540c82d1231eb9bc4c943bbdeec8e8018c2b6910fa5d6b2111b3446d88c764736f6c634300080d0033",
  "immutableReferences": {},
  "source": "// SPDX-License-Identifier: MIT\npragma solidity ^0.8.0;\n\nimport './ERC721Metadata.sol';\nimport './ERC721Enumerable.sol';\n\ncontract ERC721Connector is ERC721Metadata, ERC721Enumerable{\n\n  // Calling the parent constructor with name and symbol arguments\n  constructor(string memory name, string memory symbol) ERC721Metadata(name, symbol) {\n  }\n}",
  "sourcePath": "/Users/sumitgautam/Public/nft-marketplace-starter-kit/src/contracts/ERC721Connector.sol",
  "compiler": {
    "name": "solc",
    "version": "0.8.13+commit.abaa5c0e.Emscripten.clang"
  },
  "schemaVersion": "3.4.4",
  "updatedAt": "2022-04-15T06:53:59.430Z",
  "devdoc": {
    "kind": "dev",
    "methods": {
      "ownerOf(uint256)": {
        "params": {
          "_tokenId": "The identifier for the NFT"
        },
        "returns": {
          "_0": "The address of the owner of the NFT"
        }
      },
      "supportsInterface(bytes4)": {
        "details": "Interface identification is specified in ERC-165. This function  uses less than 30,000 gas.",
        "params": {
          "interfaceID": "The interface identifier, as specified in ERC-165"
        },
        "returns": {
          "_0": "`true` if the contract implements `interfaceID` and  `interfaceID` is not 0xffffffff, `false` otherwise"
        }
      }
    },
    "version": 1
  },
  "userdoc": {
    "kind": "user",
    "methods": {
      "supportsInterface(bytes4)": {
        "notice": "Query if a contract implements an interface"
      }
    },
    "version": 1
  }
}