{
  "contractName": "ERC721Enumerable",
  "abi": [
    {
      "anonymous": false,
      "inputs": [
        {
          "indexed": true,
          "internalType": "address",
          "name": "from",
          "type": "address"
        },
        {
          "indexed": true,
          "internalType": "address",
          "name": "to",
          "type": "address"
        },
        {
          "indexed": true,
          "internalType": "uint256",
          "name": "tokenId",
          "type": "uint256"
        }
      ],
      "name": "Transfer",
      "type": "event"
    },
    {
      "inputs": [
        {
          "internalType": "address",
          "name": "_owner",
          "type": "address"
        }
      ],
      "name": "balanceOf",
      "outputs": [
        {
          "internalType": "uint256",
          "name": "",
          "type": "uint256"
        }
      ],
      "stateMutability": "view",
      "type": "function"
    },
    {
      "inputs": [
        {
          "internalType": "uint256",
          "name": "_tokenId",
          "type": "uint256"
        }
      ],
      "name": "ownerOf",
      "outputs": [
        {
          "internalType": "address",
          "name": "",
          "type": "address"
        }
      ],
      "stateMutability": "view",
      "type": "function"
    },
    {
      "inputs": [],
      "name": "totalSupply",
      "outputs": [
        {
          "internalType": "uint256",
          "name": "",
          "type": "uint256"
        }
      ],
      "stateMutability": "view",
      "type": "function"
    }
  ],
  "bytecode": "0x608060405234801561001057600080fd5b50610492806100206000396000f3fe608060405234801561001057600080fd5b50600436106100415760003560e01c806318160ddd146100465780636352211e1461006457806370a0823114610094575b600080fd5b61004e6100c4565b60405161005b919061021f565b60405180910390f35b61007e6004803603810190610079919061026b565b6100d1565b60405161008b91906102d9565b60405180910390f35b6100ae60048036038101906100a99190610320565b61014f565b6040516100bb919061021f565b60405180910390f35b6000600280549050905090565b6000808203610115576040517f08c379a000000000000000000000000000000000000000000000000000000000815260040161010c906103aa565b60405180910390fd5b60008083815260200190815260200160002060009054906101000a900473ffffffffffffffffffffffffffffffffffffffff169050919050565b60008073ffffffffffffffffffffffffffffffffffffffff168273ffffffffffffffffffffffffffffffffffffffff16036101bf576040517f08c379a00000000000000000000000000000000000000000000000000000000081526004016101b69061043c565b60405180910390fd5b600160008373ffffffffffffffffffffffffffffffffffffffff1673ffffffffffffffffffffffffffffffffffffffff168152602001908152602001600020549050919050565b6000819050919050565b61021981610206565b82525050565b60006020820190506102346000830184610210565b92915050565b600080fd5b61024881610206565b811461025357600080fd5b50565b6000813590506102658161023f565b92915050565b6000602082840312156102815761028061023a565b5b600061028f84828501610256565b91505092915050565b600073ffffffffffffffffffffffffffffffffffffffff82169050919050565b60006102c382610298565b9050919050565b6102d3816102b8565b82525050565b60006020820190506102ee60008301846102ca565b92915050565b6102fd816102b8565b811461030857600080fd5b50565b60008135905061031a816102f4565b92915050565b6000602082840312156103365761033561023a565b5b60006103448482850161030b565b91505092915050565b600082825260208201905092915050565b7f546f6b656e2049442063616e6e6f74206265207a65726f000000000000000000600082015250565b600061039460178361034d565b915061039f8261035e565b602082019050919050565b600060208201905081810360008301526103c381610387565b9050919050565b7f4f776e65722071756572792063616e6e6f7420626520666f7220746865207a6560008201527f726f206164647265737300000000000000000000000000000000000000000000602082015250565b6000610426602a8361034d565b9150610431826103ca565b604082019050919050565b6000602082019050818103600083015261045581610419565b905091905056fea2646970667358221220b63489017f92f96f816d356ef1e47a0929b481dcb7db1e7f9ad3ebaa0f77709064736f6c634300080d0033",
  "immutableReferences": {},
  "source": "// SPDX-License-Identifier: MIT\npragma solidity ^0.8.0;\n\nimport './ERC721.sol';\n\ncontract ERC721Enumerable is ERC721 {\n    uint256[] private _allTokens;\n\n    // mapping from tokenId to position in _allTokens arrays\n    mapping(uint256 => uint256) private _tokenIdToIndex;\n\n    // mapping of owner to list of all owner token id\n    mapping(address => uint256[]) private _ownerToTokens;\n\n    // mapping from tokenId index of the owner token lists\n    mapping(address => uint256[]) private _ownerToTokenIndex;\n\n    /// @notice Count NFTs tracked by this contract\n    /// @return A count of valid NFTs tracked by this contract, where each one of\n    ///  them has an assigned and queryable owner not equal to the zero address\n    function totalSupply() external view returns (uint256) {\n        return _allTokens.length;\n    }\n\n    function _mint(address to, uint256 tokenId) internal override(ERC721) {\n        super._mint(to, tokenId);\n        // Things to consider to keep record of all the tokens during minting \n        // A. add tokens to the owner\n        // B. all the tokens to our totalsupply - to allTokens\n        _addTokensToTotalSupply(tokenId);\n    }\n\n    function _addTokensToTotalSupply(uint256 tokenId) private {\n      _allTokens.push(tokenId);\n\n    }\n}\n",
  "sourcePath": "/Users/sumitgautam/Public/nft-marketplace-starter-kit/src/contracts/ERC721Enumerable.sol",
  "compiler": {
    "name": "solc",
    "version": "0.8.13+commit.abaa5c0e.Emscripten.clang"
  },
  "schemaVersion": "3.4.4",
  "updatedAt": "2022-04-13T06:41:36.703Z",
  "devdoc": {
    "kind": "dev",
    "methods": {
      "balanceOf(address)": {
        "params": {
          "_owner": "An address for whom to query the balance"
        },
        "returns": {
          "_0": "The number of NFTs owned by _owner, possibly zero"
        }
      },
      "ownerOf(uint256)": {
        "params": {
          "_tokenId": "The identifier for the NFT"
        },
        "returns": {
          "_0": "The address of the owner of the NFT"
        }
      },
      "totalSupply()": {
        "returns": {
          "_0": "A count of valid NFTs tracked by this contract, where each one of  them has an assigned and queryable owner not equal to the zero address"
        }
      }
    },
    "version": 1
  },
  "userdoc": {
    "kind": "user",
    "methods": {
      "totalSupply()": {
        "notice": "Count NFTs tracked by this contract"
      }
    },
    "version": 1
  }
}