{
  "contractName": "ERC721Connector",
  "abi": [
    {
      "inputs": [
        {
          "internalType": "string",
          "name": "name",
          "type": "string"
        },
        {
          "internalType": "string",
          "name": "symbol",
          "type": "string"
        }
      ],
      "stateMutability": "nonpayable",
      "type": "constructor"
    },
    {
      "anonymous": false,
      "inputs": [
        {
          "indexed": true,
          "internalType": "address",
          "name": "from",
          "type": "address"
        },
        {
          "indexed": true,
          "internalType": "address",
          "name": "to",
          "type": "address"
        },
        {
          "indexed": true,
          "internalType": "uint256",
          "name": "tokenId",
          "type": "uint256"
        }
      ],
      "name": "Transfer",
      "type": "event"
    },
    {
      "anonymous": false,
      "inputs": [
        {
          "indexed": true,
          "internalType": "address",
          "name": "owner",
          "type": "address"
        },
        {
          "indexed": true,
          "internalType": "address",
          "name": "approved",
          "type": "address"
        },
        {
          "indexed": true,
          "internalType": "uint256",
          "name": "tokenId",
          "type": "uint256"
        }
      ],
      "name": "approval",
      "type": "event"
    },
    {
      "inputs": [
        {
          "internalType": "address",
          "name": "_to",
          "type": "address"
        },
        {
          "internalType": "uint256",
          "name": "tokenId",
          "type": "uint256"
        }
      ],
      "name": "approve",
      "outputs": [],
      "stateMutability": "nonpayable",
      "type": "function"
    },
    {
      "inputs": [
        {
          "internalType": "address",
          "name": "_owner",
          "type": "address"
        }
      ],
      "name": "balanceOf",
      "outputs": [
        {
          "internalType": "uint256",
          "name": "",
          "type": "uint256"
        }
      ],
      "stateMutability": "view",
      "type": "function"
    },
    {
      "inputs": [
        {
          "internalType": "uint256",
          "name": "tokenId",
          "type": "uint256"
        }
      ],
      "name": "getApproved",
      "outputs": [
        {
          "internalType": "address",
          "name": "",
          "type": "address"
        }
      ],
      "stateMutability": "view",
      "type": "function"
    },
    {
      "inputs": [
        {
          "internalType": "address",
          "name": "owner",
          "type": "address"
        },
        {
          "internalType": "address",
          "name": "operator",
          "type": "address"
        }
      ],
      "name": "isApprovedForAll",
      "outputs": [
        {
          "internalType": "bool",
          "name": "",
          "type": "bool"
        }
      ],
      "stateMutability": "view",
      "type": "function"
    },
    {
      "inputs": [],
      "name": "name",
      "outputs": [
        {
          "internalType": "string",
          "name": "",
          "type": "string"
        }
      ],
      "stateMutability": "view",
      "type": "function"
    },
    {
      "inputs": [
        {
          "internalType": "uint256",
          "name": "_tokenId",
          "type": "uint256"
        }
      ],
      "name": "ownerOf",
      "outputs": [
        {
          "internalType": "address",
          "name": "",
          "type": "address"
        }
      ],
      "stateMutability": "view",
      "type": "function"
    },
    {
      "inputs": [],
      "name": "symbol",
      "outputs": [
        {
          "internalType": "string",
          "name": "",
          "type": "string"
        }
      ],
      "stateMutability": "view",
      "type": "function"
    },
    {
      "inputs": [
        {
          "internalType": "uint256",
          "name": "index",
          "type": "uint256"
        }
      ],
      "name": "tokenByIndex",
      "outputs": [
        {
          "internalType": "uint256",
          "name": "",
          "type": "uint256"
        }
      ],
      "stateMutability": "view",
      "type": "function"
    },
    {
      "inputs": [
        {
          "internalType": "address",
          "name": "owner",
          "type": "address"
        },
        {
          "internalType": "uint256",
          "name": "index",
          "type": "uint256"
        }
      ],
      "name": "tokenOfOwnerByIndex",
      "outputs": [
        {
          "internalType": "uint256",
          "name": "",
          "type": "uint256"
        }
      ],
      "stateMutability": "view",
      "type": "function"
    },
    {
      "inputs": [],
      "name": "totalSupply",
      "outputs": [
        {
          "internalType": "uint256",
          "name": "",
          "type": "uint256"
        }
      ],
      "stateMutability": "view",
      "type": "function"
    },
    {
      "inputs": [
        {
          "internalType": "address",
          "name": "_from",
          "type": "address"
        },
        {
          "internalType": "address",
          "name": "_to",
          "type": "address"
        },
        {
          "internalType": "uint256",
          "name": "_tokenId",
          "type": "uint256"
        }
      ],
      "name": "transferFrom",
      "outputs": [],
      "stateMutability": "nonpayable",
      "type": "function"
    }
  ],
  "bytecode": "0x60806040523480156200001157600080fd5b5060405162001a8038038062001a808339818101604052810190620000379190620002c2565b818181600090805190602001906200005192919062000075565b5080600190805190602001906200006a92919062000075565b5050505050620003ab565b828054620000839062000376565b90600052602060002090601f016020900481019282620000a75760008555620000f3565b82601f10620000c257805160ff1916838001178555620000f3565b82800160010185558215620000f3579182015b82811115620000f2578251825591602001919060010190620000d5565b5b50905062000102919062000106565b5090565b5b808211156200012157600081600090555060010162000107565b5090565b6000604051905090565b600080fd5b600080fd5b600080fd5b600080fd5b6000601f19601f8301169050919050565b7f4e487b7100000000000000000000000000000000000000000000000000000000600052604160045260246000fd5b6200018e8262000143565b810181811067ffffffffffffffff82111715620001b057620001af62000154565b5b80604052505050565b6000620001c562000125565b9050620001d3828262000183565b919050565b600067ffffffffffffffff821115620001f657620001f562000154565b5b620002018262000143565b9050602081019050919050565b60005b838110156200022e57808201518184015260208101905062000211565b838111156200023e576000848401525b50505050565b60006200025b6200025584620001d8565b620001b9565b9050828152602081018484840111156200027a57620002796200013e565b5b620002878482856200020e565b509392505050565b600082601f830112620002a757620002a662000139565b5b8151620002b984826020860162000244565b91505092915050565b60008060408385031215620002dc57620002db6200012f565b5b600083015167ffffffffffffffff811115620002fd57620002fc62000134565b5b6200030b858286016200028f565b925050602083015167ffffffffffffffff8111156200032f576200032e62000134565b5b6200033d858286016200028f565b9150509250929050565b7f4e487b7100000000000000000000000000000000000000000000000000000000600052602260045260246000fd5b600060028204905060018216806200038f57607f821691505b602082108103620003a557620003a462000347565b5b50919050565b6116c580620003bb6000396000f3fe608060405234801561001057600080fd5b50600436106100a95760003560e01c80632f745c59116100715780632f745c59146101525780634f6ccce7146101825780636352211e146101b257806370a08231146101e257806395d89b4114610212578063e985e9c514610230576100a9565b806306fdde03146100ae578063081812fc146100cc578063095ea7b3146100fc57806318160ddd1461011857806323b872dd14610136575b600080fd5b6100b6610260565b6040516100c39190610d77565b60405180910390f35b6100e660048036038101906100e19190610dd4565b6102f2565b6040516100f39190610e42565b60405180910390f35b61011660048036038101906101119190610e89565b61032f565b005b6101206104af565b60405161012d9190610ed8565b60405180910390f35b610150600480360381019061014b9190610ef3565b6104bc565b005b61016c60048036038101906101679190610e89565b610515565b6040516101799190610ed8565b60405180910390f35b61019c60048036038101906101979190610dd4565b610636565b6040516101a99190610ed8565b60405180910390f35b6101cc60048036038101906101c79190610dd4565b61070e565b6040516101d99190610e42565b60405180910390f35b6101fc60048036038101906101f79190610f46565b61078d565b6040516102099190610ed8565b60405180910390f35b61021a610844565b6040516102279190610d77565b60405180910390f35b61024a60048036038101906102459190610f73565b6108d6565b6040516102579190610fce565b60405180910390f35b60606000805461026f90611018565b80601f016020809104026020016040519081016040528092919081815260200182805461029b90611018565b80156102e85780601f106102bd576101008083540402835291602001916102e8565b820191906000526020600020905b8154815290600101906020018083116102cb57829003601f168201915b5050505050905090565b60006004600083815260200190815260200160002060009054906101000a900473ffffffffffffffffffffffffffffffffffffffff169050919050565b600061033a8261070e565b90508073ffffffffffffffffffffffffffffffffffffffff168373ffffffffffffffffffffffffffffffffffffffff16036103aa576040517f08c379a00000000000000000000000000000000000000000000000000000000081526004016103a1906110bb565b60405180910390fd5b8073ffffffffffffffffffffffffffffffffffffffff163373ffffffffffffffffffffffffffffffffffffffff1614610418576040517f08c379a000000000000000000000000000000000000000000000000000000000815260040161040f9061114d565b60405180910390fd5b8273ffffffffffffffffffffffffffffffffffffffff166004600084815260200190815260200160002060009054906101000a90505050818373ffffffffffffffffffffffffffffffffffffffff168273ffffffffffffffffffffffffffffffffffffffff167f5c52a5f2b86fd16be577188b5a83ef1165faddc00b137b10285f16162e17792a60405160405180910390a4505050565b6000600680549050905090565b6104c6338261096a565b610505576040517f08c379a00000000000000000000000000000000000000000000000000000000081526004016104fc906111df565b60405180910390fd5b610510838383610a48565b505050565b60003073ffffffffffffffffffffffffffffffffffffffff166370a08231846040518263ffffffff1660e01b81526004016105509190610e42565b602060405180830381865afa15801561056d573d6000803e3d6000fd5b505050506040513d601f19601f820116820180604052508101906105919190611214565b82106105d2576040517f08c379a00000000000000000000000000000000000000000000000000000000081526004016105c99061128d565b60405180910390fd5b600860008473ffffffffffffffffffffffffffffffffffffffff1673ffffffffffffffffffffffffffffffffffffffff1681526020019081526020016000208281548110610623576106226112ad565b5b9060005260206000200154905092915050565b60003073ffffffffffffffffffffffffffffffffffffffff166318160ddd6040518163ffffffff1660e01b8152600401602060405180830381865afa158015610683573d6000803e3d6000fd5b505050506040513d601f19601f820116820180604052508101906106a79190611214565b82106106e8576040517f08c379a00000000000000000000000000000000000000000000000000000000081526004016106df90611328565b60405180910390fd5b600682815481106106fc576106fb6112ad565b5b90600052602060002001549050919050565b6000808203610752576040517f08c379a000000000000000000000000000000000000000000000000000000000815260040161074990611394565b60405180910390fd5b6002600083815260200190815260200160002060009054906101000a900473ffffffffffffffffffffffffffffffffffffffff169050919050565b60008073ffffffffffffffffffffffffffffffffffffffff168273ffffffffffffffffffffffffffffffffffffffff16036107fd576040517f08c379a00000000000000000000000000000000000000000000000000000000081526004016107f490611426565b60405180910390fd5b600360008373ffffffffffffffffffffffffffffffffffffffff1673ffffffffffffffffffffffffffffffffffffffff168152602001908152602001600020549050919050565b60606001805461085390611018565b80601f016020809104026020016040519081016040528092919081815260200182805461087f90611018565b80156108cc5780601f106108a1576101008083540402835291602001916108cc565b820191906000526020600020905b8154815290600101906020018083116108af57829003601f168201915b5050505050905090565b6000600560008473ffffffffffffffffffffffffffffffffffffffff1673ffffffffffffffffffffffffffffffffffffffff16815260200190815260200160002060008373ffffffffffffffffffffffffffffffffffffffff1673ffffffffffffffffffffffffffffffffffffffff16815260200190815260200160002060009054906101000a900460ff16905092915050565b600061097582610c72565b6109b4576040517f08c379a00000000000000000000000000000000000000000000000000000000081526004016109ab90611492565b60405180910390fd5b60006109bf8361070e565b90508073ffffffffffffffffffffffffffffffffffffffff168473ffffffffffffffffffffffffffffffffffffffff161480610a015750610a0081856108d6565b5b80610a3f57508373ffffffffffffffffffffffffffffffffffffffff16610a27846102f2565b73ffffffffffffffffffffffffffffffffffffffff16145b91505092915050565b600073ffffffffffffffffffffffffffffffffffffffff168273ffffffffffffffffffffffffffffffffffffffff1603610ab7576040517f08c379a0000000000000000000000000000000000000000000000000000000008152600401610aae90611524565b60405180910390fd5b8273ffffffffffffffffffffffffffffffffffffffff16610ad78261070e565b73ffffffffffffffffffffffffffffffffffffffff1614610b2d576040517f08c379a0000000000000000000000000000000000000000000000000000000008152600401610b24906115b6565b60405180910390fd5b6001600360008573ffffffffffffffffffffffffffffffffffffffff1673ffffffffffffffffffffffffffffffffffffffff1681526020019081526020016000206000828254610b7d9190611605565b925050819055506001600360008473ffffffffffffffffffffffffffffffffffffffff1673ffffffffffffffffffffffffffffffffffffffff1681526020019081526020016000206000828254610bd49190611639565b925050819055508173ffffffffffffffffffffffffffffffffffffffff166002600083815260200190815260200160002060009054906101000a90505050808273ffffffffffffffffffffffffffffffffffffffff168473ffffffffffffffffffffffffffffffffffffffff167fddf252ad1be2c89b69c2b068fc378daa952ba7f163c4a11628f55a4df523b3ef60405160405180910390a4505050565b60008073ffffffffffffffffffffffffffffffffffffffff166002600084815260200190815260200160002060009054906101000a900473ffffffffffffffffffffffffffffffffffffffff1673ffffffffffffffffffffffffffffffffffffffff1614159050919050565b600081519050919050565b600082825260208201905092915050565b60005b83811015610d18578082015181840152602081019050610cfd565b83811115610d27576000848401525b50505050565b6000601f19601f8301169050919050565b6000610d4982610cde565b610d538185610ce9565b9350610d63818560208601610cfa565b610d6c81610d2d565b840191505092915050565b60006020820190508181036000830152610d918184610d3e565b905092915050565b600080fd5b6000819050919050565b610db181610d9e565b8114610dbc57600080fd5b50565b600081359050610dce81610da8565b92915050565b600060208284031215610dea57610de9610d99565b5b6000610df884828501610dbf565b91505092915050565b600073ffffffffffffffffffffffffffffffffffffffff82169050919050565b6000610e2c82610e01565b9050919050565b610e3c81610e21565b82525050565b6000602082019050610e576000830184610e33565b92915050565b610e6681610e21565b8114610e7157600080fd5b50565b600081359050610e8381610e5d565b92915050565b60008060408385031215610ea057610e9f610d99565b5b6000610eae85828601610e74565b9250506020610ebf85828601610dbf565b9150509250929050565b610ed281610d9e565b82525050565b6000602082019050610eed6000830184610ec9565b92915050565b600080600060608486031215610f0c57610f0b610d99565b5b6000610f1a86828701610e74565b9350506020610f2b86828701610e74565b9250506040610f3c86828701610dbf565b9150509250925092565b600060208284031215610f5c57610f5b610d99565b5b6000610f6a84828501610e74565b91505092915050565b60008060408385031215610f8a57610f89610d99565b5b6000610f9885828601610e74565b9250506020610fa985828601610e74565b9150509250929050565b60008115159050919050565b610fc881610fb3565b82525050565b6000602082019050610fe36000830184610fbf565b92915050565b7f4e487b7100000000000000000000000000000000000000000000000000000000600052602260045260246000fd5b6000600282049050600182168061103057607f821691505b60208210810361104357611042610fe9565b5b50919050565b7f4572726f72202d20617070726f76616c20746f2063757272656e74206f776e6560008201527f7200000000000000000000000000000000000000000000000000000000000000602082015250565b60006110a5602183610ce9565b91506110b082611049565b604082019050919050565b600060208201905081810360008301526110d481611098565b9050919050565b7f43757272656e742063616c6c6572206973206e6f7420746865206f776e65722060008201527f6f662074686520746f6b656e0000000000000000000000000000000000000000602082015250565b6000611137602c83610ce9565b9150611142826110db565b604082019050919050565b600060208201905081810360008301526111668161112a565b9050919050565b7f4552433732313a206d757374206861766520617070726f766564206f72206f7760008201527f6e65722073746174757320666f722074686520746f6b656e0000000000000000602082015250565b60006111c9603883610ce9565b91506111d48261116d565b604082019050919050565b600060208201905081810360008301526111f8816111bc565b9050919050565b60008151905061120e81610da8565b92915050565b60006020828403121561122a57611229610d99565b5b6000611238848285016111ff565b91505092915050565b7f6f776e657220696e646578206973206f7574206f6620626f756e647300000000600082015250565b6000611277601c83610ce9565b915061128282611241565b602082019050919050565b600060208201905081810360008301526112a68161126a565b9050919050565b7f4e487b7100000000000000000000000000000000000000000000000000000000600052603260045260246000fd5b7f676c6f62616c20696e646578206f7574206f6620626f756e6473210000000000600082015250565b6000611312601b83610ce9565b915061131d826112dc565b602082019050919050565b6000602082019050818103600083015261134181611305565b9050919050565b7f546f6b656e2049442063616e6e6f74206265207a65726f000000000000000000600082015250565b600061137e601783610ce9565b915061138982611348565b602082019050919050565b600060208201905081810360008301526113ad81611371565b9050919050565b7f4f776e65722071756572792063616e6e6f7420626520666f7220746865207a6560008201527f726f206164647265737300000000000000000000000000000000000000000000602082015250565b6000611410602a83610ce9565b915061141b826113b4565b604082019050919050565b6000602082019050818103600083015261143f81611403565b9050919050565b7f546f6b656e20646f6573206e6f74206578697374730000000000000000000000600082015250565b600061147c601583610ce9565b915061148782611446565b602082019050919050565b600060208201905081810360008301526114ab8161146f565b9050919050565b7f4572726f72202d204552433732313a207472616e7366657220746f207468652060008201527f7a65726f20616464726573730000000000000000000000000000000000000000602082015250565b600061150e602c83610ce9565b9150611519826114b2565b604082019050919050565b6000602082019050818103600083015261153d81611501565b9050919050565b7f547279696e6720746f207472616e73666572206120746f6b656e20746865206160008201527f64647265737320646f6573206e6f74206f776e65640000000000000000000000602082015250565b60006115a0603583610ce9565b91506115ab82611544565b604082019050919050565b600060208201905081810360008301526115cf81611593565b9050919050565b7f4e487b7100000000000000000000000000000000000000000000000000000000600052601160045260246000fd5b600061161082610d9e565b915061161b83610d9e565b92508282101561162e5761162d6115d6565b5b828203905092915050565b600061164482610d9e565b915061164f83610d9e565b9250827fffffffffffffffffffffffffffffffffffffffffffffffffffffffffffffffff03821115611684576116836115d6565b5b82820190509291505056fea2646970667358221220e202767be13374de187c94ba637b50bdfadd207c2b193605b6fa90562a533f7164736f6c634300080d0033",
  "immutableReferences": {},
  "source": "// SPDX-License-Identifier: MIT\npragma solidity ^0.8.0;\n\nimport './ERC721Metadata.sol';\nimport './ERC721Enumerable.sol';\n\ncontract ERC721Connector is ERC721Metadata, ERC721Enumerable{\n\n  // Calling the parent constructor with name and symbol arguments\n  constructor(string memory name, string memory symbol) ERC721Metadata(name, symbol) {\n  }\n}",
  "sourcePath": "/Users/sumitgautam/Public/nft-marketplace-starter-kit/src/contracts/ERC721Connector.sol",
  "compiler": {
    "name": "solc",
    "version": "0.8.13+commit.abaa5c0e.Emscripten.clang"
  },
  "schemaVersion": "3.4.4",
  "updatedAt": "2022-04-14T06:33:31.547Z",
  "devdoc": {
    "kind": "dev",
    "methods": {
      "balanceOf(address)": {
        "params": {
          "_owner": "An address for whom to query the balance"
        },
        "returns": {
          "_0": "The number of NFTs owned by _owner, possibly zero"
        }
      },
      "ownerOf(uint256)": {
        "params": {
          "_tokenId": "The identifier for the NFT"
        },
        "returns": {
          "_0": "The address of the owner of the NFT"
        }
      },
      "totalSupply()": {
        "returns": {
          "_0": "A count of valid NFTs tracked by this contract, where each one of  them has an assigned and queryable owner not equal to the zero address"
        }
      }
    },
    "version": 1
  },
  "userdoc": {
    "kind": "user",
    "methods": {
      "totalSupply()": {
        "notice": "Count NFTs tracked by this contract"
      }
    },
    "version": 1
  }
}