{
  "contractName": "ERC721Enumerable",
  "abi": [
    {
      "anonymous": false,
      "inputs": [
        {
          "indexed": true,
          "internalType": "address",
          "name": "from",
          "type": "address"
        },
        {
          "indexed": true,
          "internalType": "address",
          "name": "to",
          "type": "address"
        },
        {
          "indexed": true,
          "internalType": "uint256",
          "name": "tokenId",
          "type": "uint256"
        }
      ],
      "name": "Transfer",
      "type": "event"
    },
    {
      "anonymous": false,
      "inputs": [
        {
          "indexed": true,
          "internalType": "address",
          "name": "owner",
          "type": "address"
        },
        {
          "indexed": true,
          "internalType": "address",
          "name": "approved",
          "type": "address"
        },
        {
          "indexed": true,
          "internalType": "uint256",
          "name": "tokenId",
          "type": "uint256"
        }
      ],
      "name": "approval",
      "type": "event"
    },
    {
      "inputs": [
        {
          "internalType": "address",
          "name": "_to",
          "type": "address"
        },
        {
          "internalType": "uint256",
          "name": "tokenId",
          "type": "uint256"
        }
      ],
      "name": "approve",
      "outputs": [],
      "stateMutability": "nonpayable",
      "type": "function"
    },
    {
      "inputs": [
        {
          "internalType": "address",
          "name": "_owner",
          "type": "address"
        }
      ],
      "name": "balanceOf",
      "outputs": [
        {
          "internalType": "uint256",
          "name": "",
          "type": "uint256"
        }
      ],
      "stateMutability": "view",
      "type": "function"
    },
    {
      "inputs": [
        {
          "internalType": "uint256",
          "name": "tokenId",
          "type": "uint256"
        }
      ],
      "name": "getApproved",
      "outputs": [
        {
          "internalType": "address",
          "name": "",
          "type": "address"
        }
      ],
      "stateMutability": "view",
      "type": "function"
    },
    {
      "inputs": [
        {
          "internalType": "address",
          "name": "owner",
          "type": "address"
        },
        {
          "internalType": "address",
          "name": "operator",
          "type": "address"
        }
      ],
      "name": "isApprovedForAll",
      "outputs": [
        {
          "internalType": "bool",
          "name": "",
          "type": "bool"
        }
      ],
      "stateMutability": "view",
      "type": "function"
    },
    {
      "inputs": [
        {
          "internalType": "uint256",
          "name": "_tokenId",
          "type": "uint256"
        }
      ],
      "name": "ownerOf",
      "outputs": [
        {
          "internalType": "address",
          "name": "",
          "type": "address"
        }
      ],
      "stateMutability": "view",
      "type": "function"
    },
    {
      "inputs": [
        {
          "internalType": "address",
          "name": "_from",
          "type": "address"
        },
        {
          "internalType": "address",
          "name": "_to",
          "type": "address"
        },
        {
          "internalType": "uint256",
          "name": "_tokenId",
          "type": "uint256"
        }
      ],
      "name": "transferFrom",
      "outputs": [],
      "stateMutability": "nonpayable",
      "type": "function"
    },
    {
      "inputs": [],
      "name": "totalSupply",
      "outputs": [
        {
          "internalType": "uint256",
          "name": "",
          "type": "uint256"
        }
      ],
      "stateMutability": "view",
      "type": "function"
    },
    {
      "inputs": [
        {
          "internalType": "uint256",
          "name": "index",
          "type": "uint256"
        }
      ],
      "name": "tokenByIndex",
      "outputs": [
        {
          "internalType": "uint256",
          "name": "",
          "type": "uint256"
        }
      ],
      "stateMutability": "view",
      "type": "function"
    },
    {
      "inputs": [
        {
          "internalType": "address",
          "name": "owner",
          "type": "address"
        },
        {
          "internalType": "uint256",
          "name": "index",
          "type": "uint256"
        }
      ],
      "name": "tokenOfOwnerByIndex",
      "outputs": [
        {
          "internalType": "uint256",
          "name": "",
          "type": "uint256"
        }
      ],
      "stateMutability": "view",
      "type": "function"
    }
  ],
  "bytecode": "0x608060405234801561001057600080fd5b50611440806100206000396000f3fe608060405234801561001057600080fd5b50600436106100935760003560e01c80632f745c59116100665780632f745c591461011e5780634f6ccce71461014e5780636352211e1461017e57806370a08231146101ae578063e985e9c5146101de57610093565b8063081812fc14610098578063095ea7b3146100c857806318160ddd146100e457806323b872dd14610102575b600080fd5b6100b260048036038101906100ad9190610b9e565b61020e565b6040516100bf9190610c0c565b60405180910390f35b6100e260048036038101906100dd9190610c53565b61024b565b005b6100ec6103cb565b6040516100f99190610ca2565b60405180910390f35b61011c60048036038101906101179190610cbd565b6103d8565b005b61013860048036038101906101339190610c53565b610431565b6040516101459190610ca2565b60405180910390f35b61016860048036038101906101639190610b9e565b610552565b6040516101759190610ca2565b60405180910390f35b61019860048036038101906101939190610b9e565b61062a565b6040516101a59190610c0c565b60405180910390f35b6101c860048036038101906101c39190610d10565b6106a8565b6040516101d59190610ca2565b60405180910390f35b6101f860048036038101906101f39190610d3d565b61075f565b6040516102059190610d98565b60405180910390f35b60006002600083815260200190815260200160002060009054906101000a900473ffffffffffffffffffffffffffffffffffffffff169050919050565b60006102568261062a565b90508073ffffffffffffffffffffffffffffffffffffffff168373ffffffffffffffffffffffffffffffffffffffff16036102c6576040517f08c379a00000000000000000000000000000000000000000000000000000000081526004016102bd90610e36565b60405180910390fd5b8073ffffffffffffffffffffffffffffffffffffffff163373ffffffffffffffffffffffffffffffffffffffff1614610334576040517f08c379a000000000000000000000000000000000000000000000000000000000815260040161032b90610ec8565b60405180910390fd5b8273ffffffffffffffffffffffffffffffffffffffff166002600084815260200190815260200160002060009054906101000a90505050818373ffffffffffffffffffffffffffffffffffffffff168273ffffffffffffffffffffffffffffffffffffffff167f5c52a5f2b86fd16be577188b5a83ef1165faddc00b137b10285f16162e17792a60405160405180910390a4505050565b6000600480549050905090565b6103e233826107f3565b610421576040517f08c379a000000000000000000000000000000000000000000000000000000000815260040161041890610f5a565b60405180910390fd5b61042c8383836108d1565b505050565b60003073ffffffffffffffffffffffffffffffffffffffff166370a08231846040518263ffffffff1660e01b815260040161046c9190610c0c565b602060405180830381865afa158015610489573d6000803e3d6000fd5b505050506040513d601f19601f820116820180604052508101906104ad9190610f8f565b82106104ee576040517f08c379a00000000000000000000000000000000000000000000000000000000081526004016104e590611008565b60405180910390fd5b600660008473ffffffffffffffffffffffffffffffffffffffff1673ffffffffffffffffffffffffffffffffffffffff168152602001908152602001600020828154811061053f5761053e611028565b5b9060005260206000200154905092915050565b60003073ffffffffffffffffffffffffffffffffffffffff166318160ddd6040518163ffffffff1660e01b8152600401602060405180830381865afa15801561059f573d6000803e3d6000fd5b505050506040513d601f19601f820116820180604052508101906105c39190610f8f565b8210610604576040517f08c379a00000000000000000000000000000000000000000000000000000000081526004016105fb906110a3565b60405180910390fd5b6004828154811061061857610617611028565b5b90600052602060002001549050919050565b600080820361066e576040517f08c379a00000000000000000000000000000000000000000000000000000000081526004016106659061110f565b60405180910390fd5b60008083815260200190815260200160002060009054906101000a900473ffffffffffffffffffffffffffffffffffffffff169050919050565b60008073ffffffffffffffffffffffffffffffffffffffff168273ffffffffffffffffffffffffffffffffffffffff1603610718576040517f08c379a000000000000000000000000000000000000000000000000000000000815260040161070f906111a1565b60405180910390fd5b600160008373ffffffffffffffffffffffffffffffffffffffff1673ffffffffffffffffffffffffffffffffffffffff168152602001908152602001600020549050919050565b6000600360008473ffffffffffffffffffffffffffffffffffffffff1673ffffffffffffffffffffffffffffffffffffffff16815260200190815260200160002060008373ffffffffffffffffffffffffffffffffffffffff1673ffffffffffffffffffffffffffffffffffffffff16815260200190815260200160002060009054906101000a900460ff16905092915050565b60006107fe82610af8565b61083d576040517f08c379a00000000000000000000000000000000000000000000000000000000081526004016108349061120d565b60405180910390fd5b60006108488361062a565b90508073ffffffffffffffffffffffffffffffffffffffff168473ffffffffffffffffffffffffffffffffffffffff16148061088a5750610889818561075f565b5b806108c857508373ffffffffffffffffffffffffffffffffffffffff166108b08461020e565b73ffffffffffffffffffffffffffffffffffffffff16145b91505092915050565b600073ffffffffffffffffffffffffffffffffffffffff168273ffffffffffffffffffffffffffffffffffffffff1603610940576040517f08c379a00000000000000000000000000000000000000000000000000000000081526004016109379061129f565b60405180910390fd5b8273ffffffffffffffffffffffffffffffffffffffff166109608261062a565b73ffffffffffffffffffffffffffffffffffffffff16146109b6576040517f08c379a00000000000000000000000000000000000000000000000000000000081526004016109ad90611331565b60405180910390fd5b60018060008573ffffffffffffffffffffffffffffffffffffffff1673ffffffffffffffffffffffffffffffffffffffff1681526020019081526020016000206000828254610a059190611380565b9250508190555060018060008473ffffffffffffffffffffffffffffffffffffffff1673ffffffffffffffffffffffffffffffffffffffff1681526020019081526020016000206000828254610a5b91906113b4565b925050819055508173ffffffffffffffffffffffffffffffffffffffff1660008083815260200190815260200160002060009054906101000a90505050808273ffffffffffffffffffffffffffffffffffffffff168473ffffffffffffffffffffffffffffffffffffffff167fddf252ad1be2c89b69c2b068fc378daa952ba7f163c4a11628f55a4df523b3ef60405160405180910390a4505050565b60008073ffffffffffffffffffffffffffffffffffffffff1660008084815260200190815260200160002060009054906101000a900473ffffffffffffffffffffffffffffffffffffffff1673ffffffffffffffffffffffffffffffffffffffff1614159050919050565b600080fd5b6000819050919050565b610b7b81610b68565b8114610b8657600080fd5b50565b600081359050610b9881610b72565b92915050565b600060208284031215610bb457610bb3610b63565b5b6000610bc284828501610b89565b91505092915050565b600073ffffffffffffffffffffffffffffffffffffffff82169050919050565b6000610bf682610bcb565b9050919050565b610c0681610beb565b82525050565b6000602082019050610c216000830184610bfd565b92915050565b610c3081610beb565b8114610c3b57600080fd5b50565b600081359050610c4d81610c27565b92915050565b60008060408385031215610c6a57610c69610b63565b5b6000610c7885828601610c3e565b9250506020610c8985828601610b89565b9150509250929050565b610c9c81610b68565b82525050565b6000602082019050610cb76000830184610c93565b92915050565b600080600060608486031215610cd657610cd5610b63565b5b6000610ce486828701610c3e565b9350506020610cf586828701610c3e565b9250506040610d0686828701610b89565b9150509250925092565b600060208284031215610d2657610d25610b63565b5b6000610d3484828501610c3e565b91505092915050565b60008060408385031215610d5457610d53610b63565b5b6000610d6285828601610c3e565b9250506020610d7385828601610c3e565b9150509250929050565b60008115159050919050565b610d9281610d7d565b82525050565b6000602082019050610dad6000830184610d89565b92915050565b600082825260208201905092915050565b7f4572726f72202d20617070726f76616c20746f2063757272656e74206f776e6560008201527f7200000000000000000000000000000000000000000000000000000000000000602082015250565b6000610e20602183610db3565b9150610e2b82610dc4565b604082019050919050565b60006020820190508181036000830152610e4f81610e13565b9050919050565b7f43757272656e742063616c6c6572206973206e6f7420746865206f776e65722060008201527f6f662074686520746f6b656e0000000000000000000000000000000000000000602082015250565b6000610eb2602c83610db3565b9150610ebd82610e56565b604082019050919050565b60006020820190508181036000830152610ee181610ea5565b9050919050565b7f4552433732313a206d757374206861766520617070726f766564206f72206f7760008201527f6e65722073746174757320666f722074686520746f6b656e0000000000000000602082015250565b6000610f44603883610db3565b9150610f4f82610ee8565b604082019050919050565b60006020820190508181036000830152610f7381610f37565b9050919050565b600081519050610f8981610b72565b92915050565b600060208284031215610fa557610fa4610b63565b5b6000610fb384828501610f7a565b91505092915050565b7f6f776e657220696e646578206973206f7574206f6620626f756e647300000000600082015250565b6000610ff2601c83610db3565b9150610ffd82610fbc565b602082019050919050565b6000602082019050818103600083015261102181610fe5565b9050919050565b7f4e487b7100000000000000000000000000000000000000000000000000000000600052603260045260246000fd5b7f676c6f62616c20696e646578206f7574206f6620626f756e6473210000000000600082015250565b600061108d601b83610db3565b915061109882611057565b602082019050919050565b600060208201905081810360008301526110bc81611080565b9050919050565b7f546f6b656e2049442063616e6e6f74206265207a65726f000000000000000000600082015250565b60006110f9601783610db3565b9150611104826110c3565b602082019050919050565b60006020820190508181036000830152611128816110ec565b9050919050565b7f4f776e65722071756572792063616e6e6f7420626520666f7220746865207a6560008201527f726f206164647265737300000000000000000000000000000000000000000000602082015250565b600061118b602a83610db3565b91506111968261112f565b604082019050919050565b600060208201905081810360008301526111ba8161117e565b9050919050565b7f546f6b656e20646f6573206e6f74206578697374730000000000000000000000600082015250565b60006111f7601583610db3565b9150611202826111c1565b602082019050919050565b60006020820190508181036000830152611226816111ea565b9050919050565b7f4572726f72202d204552433732313a207472616e7366657220746f207468652060008201527f7a65726f20616464726573730000000000000000000000000000000000000000602082015250565b6000611289602c83610db3565b91506112948261122d565b604082019050919050565b600060208201905081810360008301526112b88161127c565b9050919050565b7f547279696e6720746f207472616e73666572206120746f6b656e20746865206160008201527f64647265737320646f6573206e6f74206f776e65640000000000000000000000602082015250565b600061131b603583610db3565b9150611326826112bf565b604082019050919050565b6000602082019050818103600083015261134a8161130e565b9050919050565b7f4e487b7100000000000000000000000000000000000000000000000000000000600052601160045260246000fd5b600061138b82610b68565b915061139683610b68565b9250828210156113a9576113a8611351565b5b828203905092915050565b60006113bf82610b68565b91506113ca83610b68565b9250827fffffffffffffffffffffffffffffffffffffffffffffffffffffffffffffffff038211156113ff576113fe611351565b5b82820190509291505056fea2646970667358221220d0fd57edd4009d5f91a72756bff070793b9d27fe58a0e5ff2c6cece119b2050e64736f6c634300080d0033",
  "immutableReferences": {},
  "source": "// SPDX-License-Identifier: MIT\npragma solidity ^0.8.0;\n\nimport \"./ERC721.sol\";\n\ncontract ERC721Enumerable is ERC721 {\n    uint256[] private _allTokens;\n\n    // mapping from tokenId to position in _allTokens arrays\n    mapping(uint256 => uint256) private _allTokensIndex;\n\n    // mapping of owner to list of all owner token id\n    mapping(address => uint256[]) private _ownedTokens;\n\n    // mapping from tokenId index of the owner token lists\n    mapping(uint256 => uint256) private _ownedTokensIndex;\n\n    /// @notice Count NFTs tracked by this contract\n    /// @return A count of valid NFTs tracked by this contract, where each one of\n    ///  them has an assigned and queryable owner not equal to the zero address\n    function totalSupply() external view returns (uint256) {\n        return _allTokens.length;\n    }\n\n    function _mint(address to, uint256 tokenId) internal override(ERC721) {\n        super._mint(to, tokenId);\n        // Things to consider to keep record of all the tokens during minting\n        // A. add tokens to the owner\n        // B. all the tokens to our totalsupply - to allTokens\n        _addTokensToAllTokensEnumeration(tokenId);\n        _addTokensToOwnerEnumeration(to, tokenId);\n    }\n\n    function _addTokensToAllTokensEnumeration(uint256 tokenId) private {\n        _allTokensIndex[tokenId] = _allTokens.length;\n        _allTokens.push(tokenId);\n    }\n\n    // add tokens to the _allTokens array and set the\n    // position of the tokenIndexes\n    function _addTokensToOwnerEnumeration(address to, uint256 tokenId) private {\n        // 1. add address and token id to the _ownedTokens\n        // 2. ownedTokensIndex tokenId set to address of ownedTokens position\n        // 3. we want to execute this function with minting\n        _ownedTokensIndex[tokenId] = _ownedTokens[to].length;\n        _ownedTokens[to].push(tokenId);\n    }\n\n    function tokenByIndex(uint256 index) public view returns (uint256) {\n        // check for index out of bounds for total supply\n        require(index < this.totalSupply(), \"global index out of bounds!\");\n        return _allTokens[index];\n    }\n\n    function tokenOfOwnerByIndex(address owner, uint256 index)\n        public\n        view\n        returns (uint256)\n    {\n\n      require(index < this.balanceOf(owner), 'owner index is out of bounds');\n        return _ownedTokens[owner][index];\n    }\n}\n",
  "sourcePath": "/Users/sumitgautam/Public/nft-marketplace-starter-kit/src/contracts/ERC721Enumerable.sol",
  "compiler": {
    "name": "solc",
    "version": "0.8.13+commit.abaa5c0e.Emscripten.clang"
  },
  "schemaVersion": "3.4.4",
  "updatedAt": "2022-04-14T06:33:31.551Z",
  "devdoc": {
    "kind": "dev",
    "methods": {
      "balanceOf(address)": {
        "params": {
          "_owner": "An address for whom to query the balance"
        },
        "returns": {
          "_0": "The number of NFTs owned by _owner, possibly zero"
        }
      },
      "ownerOf(uint256)": {
        "params": {
          "_tokenId": "The identifier for the NFT"
        },
        "returns": {
          "_0": "The address of the owner of the NFT"
        }
      },
      "totalSupply()": {
        "returns": {
          "_0": "A count of valid NFTs tracked by this contract, where each one of  them has an assigned and queryable owner not equal to the zero address"
        }
      }
    },
    "version": 1
  },
  "userdoc": {
    "kind": "user",
    "methods": {
      "totalSupply()": {
        "notice": "Count NFTs tracked by this contract"
      }
    },
    "version": 1
  }
}