{
  "contractName": "ERC721",
  "abi": [
    {
      "anonymous": false,
      "inputs": [
        {
          "indexed": true,
          "internalType": "address",
          "name": "from",
          "type": "address"
        },
        {
          "indexed": true,
          "internalType": "address",
          "name": "to",
          "type": "address"
        },
        {
          "indexed": true,
          "internalType": "uint256",
          "name": "tokenId",
          "type": "uint256"
        }
      ],
      "name": "Transfer",
      "type": "event"
    },
    {
      "anonymous": false,
      "inputs": [
        {
          "indexed": true,
          "internalType": "address",
          "name": "owner",
          "type": "address"
        },
        {
          "indexed": true,
          "internalType": "address",
          "name": "approved",
          "type": "address"
        },
        {
          "indexed": true,
          "internalType": "uint256",
          "name": "tokenId",
          "type": "uint256"
        }
      ],
      "name": "approval",
      "type": "event"
    },
    {
      "inputs": [
        {
          "internalType": "address",
          "name": "_owner",
          "type": "address"
        }
      ],
      "name": "balanceOf",
      "outputs": [
        {
          "internalType": "uint256",
          "name": "",
          "type": "uint256"
        }
      ],
      "stateMutability": "view",
      "type": "function"
    },
    {
      "inputs": [
        {
          "internalType": "uint256",
          "name": "_tokenId",
          "type": "uint256"
        }
      ],
      "name": "ownerOf",
      "outputs": [
        {
          "internalType": "address",
          "name": "",
          "type": "address"
        }
      ],
      "stateMutability": "view",
      "type": "function"
    },
    {
      "inputs": [
        {
          "internalType": "address",
          "name": "_from",
          "type": "address"
        },
        {
          "internalType": "address",
          "name": "_to",
          "type": "address"
        },
        {
          "internalType": "uint256",
          "name": "_tokenId",
          "type": "uint256"
        }
      ],
      "name": "transferFrom",
      "outputs": [],
      "stateMutability": "nonpayable",
      "type": "function"
    },
    {
      "inputs": [
        {
          "internalType": "address",
          "name": "_to",
          "type": "address"
        },
        {
          "internalType": "uint256",
          "name": "tokenId",
          "type": "uint256"
        }
      ],
      "name": "approve",
      "outputs": [],
      "stateMutability": "nonpayable",
      "type": "function"
    },
    {
      "inputs": [
        {
          "internalType": "address",
          "name": "owner",
          "type": "address"
        },
        {
          "internalType": "address",
          "name": "operator",
          "type": "address"
        }
      ],
      "name": "isApprovedForAll",
      "outputs": [
        {
          "internalType": "bool",
          "name": "",
          "type": "bool"
        }
      ],
      "stateMutability": "view",
      "type": "function"
    },
    {
      "inputs": [
        {
          "internalType": "uint256",
          "name": "tokenId",
          "type": "uint256"
        }
      ],
      "name": "getApproved",
      "outputs": [
        {
          "internalType": "address",
          "name": "",
          "type": "address"
        }
      ],
      "stateMutability": "view",
      "type": "function"
    }
  ],
  "bytecode": "0x608060405234801561001057600080fd5b50611042806100206000396000f3fe608060405234801561001057600080fd5b50600436106100625760003560e01c8063081812fc14610067578063095ea7b31461009757806323b872dd146100b35780636352211e146100cf57806370a08231146100ff578063e985e9c51461012f575b600080fd5b610081600480360381019061007c91906108e9565b61015f565b60405161008e9190610957565b60405180910390f35b6100b160048036038101906100ac919061099e565b61019c565b005b6100cd60048036038101906100c891906109de565b61031c565b005b6100e960048036038101906100e491906108e9565b610375565b6040516100f69190610957565b60405180910390f35b61011960048036038101906101149190610a31565b6103f3565b6040516101269190610a6d565b60405180910390f35b61014960048036038101906101449190610a88565b6104aa565b6040516101569190610ae3565b60405180910390f35b60006002600083815260200190815260200160002060009054906101000a900473ffffffffffffffffffffffffffffffffffffffff169050919050565b60006101a782610375565b90508073ffffffffffffffffffffffffffffffffffffffff168373ffffffffffffffffffffffffffffffffffffffff1603610217576040517f08c379a000000000000000000000000000000000000000000000000000000000815260040161020e90610b81565b60405180910390fd5b8073ffffffffffffffffffffffffffffffffffffffff163373ffffffffffffffffffffffffffffffffffffffff1614610285576040517f08c379a000000000000000000000000000000000000000000000000000000000815260040161027c90610c13565b60405180910390fd5b8273ffffffffffffffffffffffffffffffffffffffff166002600084815260200190815260200160002060009054906101000a90505050818373ffffffffffffffffffffffffffffffffffffffff168273ffffffffffffffffffffffffffffffffffffffff167f5c52a5f2b86fd16be577188b5a83ef1165faddc00b137b10285f16162e17792a60405160405180910390a4505050565b610326338261053e565b610365576040517f08c379a000000000000000000000000000000000000000000000000000000000815260040161035c90610ca5565b60405180910390fd5b61037083838361061c565b505050565b60008082036103b9576040517f08c379a00000000000000000000000000000000000000000000000000000000081526004016103b090610d11565b60405180910390fd5b60008083815260200190815260200160002060009054906101000a900473ffffffffffffffffffffffffffffffffffffffff169050919050565b60008073ffffffffffffffffffffffffffffffffffffffff168273ffffffffffffffffffffffffffffffffffffffff1603610463576040517f08c379a000000000000000000000000000000000000000000000000000000000815260040161045a90610da3565b60405180910390fd5b600160008373ffffffffffffffffffffffffffffffffffffffff1673ffffffffffffffffffffffffffffffffffffffff168152602001908152602001600020549050919050565b6000600360008473ffffffffffffffffffffffffffffffffffffffff1673ffffffffffffffffffffffffffffffffffffffff16815260200190815260200160002060008373ffffffffffffffffffffffffffffffffffffffff1673ffffffffffffffffffffffffffffffffffffffff16815260200190815260200160002060009054906101000a900460ff16905092915050565b600061054982610843565b610588576040517f08c379a000000000000000000000000000000000000000000000000000000000815260040161057f90610e0f565b60405180910390fd5b600061059383610375565b90508073ffffffffffffffffffffffffffffffffffffffff168473ffffffffffffffffffffffffffffffffffffffff1614806105d557506105d481856104aa565b5b8061061357508373ffffffffffffffffffffffffffffffffffffffff166105fb8461015f565b73ffffffffffffffffffffffffffffffffffffffff16145b91505092915050565b600073ffffffffffffffffffffffffffffffffffffffff168273ffffffffffffffffffffffffffffffffffffffff160361068b576040517f08c379a000000000000000000000000000000000000000000000000000000000815260040161068290610ea1565b60405180910390fd5b8273ffffffffffffffffffffffffffffffffffffffff166106ab82610375565b73ffffffffffffffffffffffffffffffffffffffff1614610701576040517f08c379a00000000000000000000000000000000000000000000000000000000081526004016106f890610f33565b60405180910390fd5b60018060008573ffffffffffffffffffffffffffffffffffffffff1673ffffffffffffffffffffffffffffffffffffffff16815260200190815260200160002060008282546107509190610f82565b9250508190555060018060008473ffffffffffffffffffffffffffffffffffffffff1673ffffffffffffffffffffffffffffffffffffffff16815260200190815260200160002060008282546107a69190610fb6565b925050819055508173ffffffffffffffffffffffffffffffffffffffff1660008083815260200190815260200160002060009054906101000a90505050808273ffffffffffffffffffffffffffffffffffffffff168473ffffffffffffffffffffffffffffffffffffffff167fddf252ad1be2c89b69c2b068fc378daa952ba7f163c4a11628f55a4df523b3ef60405160405180910390a4505050565b60008073ffffffffffffffffffffffffffffffffffffffff1660008084815260200190815260200160002060009054906101000a900473ffffffffffffffffffffffffffffffffffffffff1673ffffffffffffffffffffffffffffffffffffffff1614159050919050565b600080fd5b6000819050919050565b6108c6816108b3565b81146108d157600080fd5b50565b6000813590506108e3816108bd565b92915050565b6000602082840312156108ff576108fe6108ae565b5b600061090d848285016108d4565b91505092915050565b600073ffffffffffffffffffffffffffffffffffffffff82169050919050565b600061094182610916565b9050919050565b61095181610936565b82525050565b600060208201905061096c6000830184610948565b92915050565b61097b81610936565b811461098657600080fd5b50565b60008135905061099881610972565b92915050565b600080604083850312156109b5576109b46108ae565b5b60006109c385828601610989565b92505060206109d4858286016108d4565b9150509250929050565b6000806000606084860312156109f7576109f66108ae565b5b6000610a0586828701610989565b9350506020610a1686828701610989565b9250506040610a27868287016108d4565b9150509250925092565b600060208284031215610a4757610a466108ae565b5b6000610a5584828501610989565b91505092915050565b610a67816108b3565b82525050565b6000602082019050610a826000830184610a5e565b92915050565b60008060408385031215610a9f57610a9e6108ae565b5b6000610aad85828601610989565b9250506020610abe85828601610989565b9150509250929050565b60008115159050919050565b610add81610ac8565b82525050565b6000602082019050610af86000830184610ad4565b92915050565b600082825260208201905092915050565b7f4572726f72202d20617070726f76616c20746f2063757272656e74206f776e6560008201527f7200000000000000000000000000000000000000000000000000000000000000602082015250565b6000610b6b602183610afe565b9150610b7682610b0f565b604082019050919050565b60006020820190508181036000830152610b9a81610b5e565b9050919050565b7f43757272656e742063616c6c6572206973206e6f7420746865206f776e65722060008201527f6f662074686520746f6b656e0000000000000000000000000000000000000000602082015250565b6000610bfd602c83610afe565b9150610c0882610ba1565b604082019050919050565b60006020820190508181036000830152610c2c81610bf0565b9050919050565b7f4552433732313a206d757374206861766520617070726f766564206f72206f7760008201527f6e65722073746174757320666f722074686520746f6b656e0000000000000000602082015250565b6000610c8f603883610afe565b9150610c9a82610c33565b604082019050919050565b60006020820190508181036000830152610cbe81610c82565b9050919050565b7f546f6b656e2049442063616e6e6f74206265207a65726f000000000000000000600082015250565b6000610cfb601783610afe565b9150610d0682610cc5565b602082019050919050565b60006020820190508181036000830152610d2a81610cee565b9050919050565b7f4f776e65722071756572792063616e6e6f7420626520666f7220746865207a6560008201527f726f206164647265737300000000000000000000000000000000000000000000602082015250565b6000610d8d602a83610afe565b9150610d9882610d31565b604082019050919050565b60006020820190508181036000830152610dbc81610d80565b9050919050565b7f546f6b656e20646f6573206e6f74206578697374730000000000000000000000600082015250565b6000610df9601583610afe565b9150610e0482610dc3565b602082019050919050565b60006020820190508181036000830152610e2881610dec565b9050919050565b7f4572726f72202d204552433732313a207472616e7366657220746f207468652060008201527f7a65726f20616464726573730000000000000000000000000000000000000000602082015250565b6000610e8b602c83610afe565b9150610e9682610e2f565b604082019050919050565b60006020820190508181036000830152610eba81610e7e565b9050919050565b7f547279696e6720746f207472616e73666572206120746f6b656e20746865206160008201527f64647265737320646f6573206e6f74206f776e65640000000000000000000000602082015250565b6000610f1d603583610afe565b9150610f2882610ec1565b604082019050919050565b60006020820190508181036000830152610f4c81610f10565b9050919050565b7f4e487b7100000000000000000000000000000000000000000000000000000000600052601160045260246000fd5b6000610f8d826108b3565b9150610f98836108b3565b925082821015610fab57610faa610f53565b5b828203905092915050565b6000610fc1826108b3565b9150610fcc836108b3565b9250827fffffffffffffffffffffffffffffffffffffffffffffffffffffffffffffffff0382111561100157611000610f53565b5b82820190509291505056fea264697066735822122025eb1c6ff67bb315e72de5863a284c8c7383548a47d0c64effbec3a412418f0964736f6c634300080d0033",
  "immutableReferences": {},
  "source": "// SPDX-License-Identifieer: MIT\npragma solidity ^0.8.0;\n\nimport \"./ERC721Metadata.sol\";\n\n/**\n  bulding out the minting function\n    a. nft to point to an address\n    b. keep track of the token ids\n    c. keep tack of token owners address to token id\n    d. keep track of how many tokens an owner address has\n    e. emit an event when a token is transfered - contract address, where it is transfered from, to, token id\n   */\n\ncontract ERC721 {\n    event Transfer(\n        address indexed from,\n        address indexed to,\n        uint256 indexed tokenId\n    );\n\n    event approval(\n        address indexed owner,\n        address indexed approved,\n        uint256 indexed tokenId\n    );\n\n    // mapping in solidity creates a hash table of key value pairs\n    // mapping from token id to token owner\n    mapping(uint256 => address) private _tokenOwner;\n\n    // mapping from owner to number of owned tokens\n    mapping(address => uint256) private _OwnedTokensCount;\n\n    // mapping from token id to approved addresses\n    mapping(uint256 => address) private _tokenApprovals;\n\n    // Mapping from owner to operator approvals\n    mapping(address => mapping(address => bool)) private _operatorApprovals;\n\n    // @notice Count all NTFs assigned to an owner\n    /// @dev NFTs assigned to the zero address are cosidered invalid, and this is\n    // function throws for queries about the zero address.\n    /// @param _owner An address for whom to query the balance\n    /// @return The number of NFTs owned by _owner, possibly zero\n    function balanceOf(address _owner) external view returns (uint256) {\n        require(\n            _owner != address(0),\n            \"Owner query cannot be for the zero address\"\n        );\n        return _OwnedTokensCount[_owner];\n    }\n\n    // @notice Find the owner of an NFT\n    // @dev NFTs assigned to zero address are considered invalid, and queries\n    // about them do throw.\n    /// @param _tokenId The identifier for the NFT\n    /// @return The address of the owner of the NFT\n    function ownerOf(uint256 _tokenId) public view returns (address) {\n        require(_tokenId != 0, \"Token ID cannot be zero\");\n        return _tokenOwner[_tokenId];\n    }\n\n    function _exists(uint256 tokenId) internal view returns (bool) {\n        // checking truthyness that the token id exists\n        return _tokenOwner[tokenId] != address(0);\n    }\n\n    function _mint(address to, uint256 tokenId) internal virtual {\n        // requires that the address is not zero\n        require(to != address(0), \"ERC721: minting to the zero address\");\n\n        // requires that the token does not alreayd exist\n        require(\n            _exists(tokenId) != true,\n            \"ERC721: minting a token that already exists\"\n        );\n\n        // adding a new address with token id for minting\n        _tokenOwner[tokenId] == to;\n        _OwnedTokensCount[to] += 1;\n\n        emit Transfer(address(0), to, tokenId);\n    }\n\n    function _transferFrom(\n        address _from,\n        address _to,\n        uint256 _tokenId\n    ) internal {\n        require(\n            _to != address(0),\n            \"Error - ERC721: transfer to the zero address\"\n        );\n        require(\n            ownerOf(_tokenId) == _from,\n            \"Trying to transfer a token the address does not owned\"\n        );\n\n        _OwnedTokensCount[_from] -= 1;\n        _OwnedTokensCount[_to] += 1;\n        _tokenOwner[_tokenId] == _to;\n\n        emit Transfer(_from, _to, _tokenId);\n    }\n\n    function transferFrom(\n        address _from,\n        address _to,\n        uint256 _tokenId\n    ) public {\n        require(\n            isApprovedOrOwner(msg.sender, _tokenId),\n            \"ERC721: must have approved or owner status for the token\"\n        );\n        _transferFrom(_from, _to, _tokenId);\n    }\n\n    // 1. require that the person approving is the owner\n    // 2. we are approving an address to a token (tokenId)\n    // 3. require that we cant approve sending tokens of owner to the owner\n    // 4. update the mapping of the approval addresses\n    function approve(address _to, uint256 tokenId) public {\n        address owner = ownerOf(tokenId);\n        require(_to != owner, \"Error - approval to current owner\");\n        require(\n            msg.sender == owner,\n            \"Current caller is not the owner of the token\"\n        );\n        _tokenApprovals[tokenId] == _to;\n\n        emit approval(owner, _to, tokenId);\n    }\n\n    function isApprovedForAll(address owner, address operator) public view  returns (bool) {\n        return _operatorApprovals[owner][operator];\n    }\n\n    function getApproved(uint256 tokenId) public view returns(address) {\n        return _tokenApprovals[tokenId];\n    }\n\n    function isApprovedOrOwner(address spender, uint256 tokenId)\n        internal\n        view\n        returns (bool)\n    {\n        require(_exists(tokenId), \"Token does not exists\");\n        address owner = ownerOf(tokenId);\n        return (spender == owner || isApprovedForAll(owner, spender) || getApproved(tokenId) == spender);\n    }\n}\n",
  "sourcePath": "/Users/sumitgautam/Public/nft-marketplace-starter-kit/src/contracts/ERC721.sol",
  "compiler": {
    "name": "solc",
    "version": "0.8.13+commit.abaa5c0e.Emscripten.clang"
  },
  "schemaVersion": "3.4.4",
  "updatedAt": "2022-04-14T06:33:31.541Z",
  "devdoc": {
    "kind": "dev",
    "methods": {
      "balanceOf(address)": {
        "params": {
          "_owner": "An address for whom to query the balance"
        },
        "returns": {
          "_0": "The number of NFTs owned by _owner, possibly zero"
        }
      },
      "ownerOf(uint256)": {
        "params": {
          "_tokenId": "The identifier for the NFT"
        },
        "returns": {
          "_0": "The address of the owner of the NFT"
        }
      }
    },
    "version": 1
  },
  "userdoc": {
    "kind": "user",
    "methods": {},
    "notice": "bulding out the minting function a. nft to point to an address b. keep track of the token ids c. keep tack of token owners address to token id d. keep track of how many tokens an owner address has e. emit an event when a token is transfered - contract address, where it is transfered from, to, token id",
    "version": 1
  }
}