{
  "contractName": "ERC721",
  "abi": [
    {
      "anonymous": false,
      "inputs": [
        {
          "indexed": true,
          "internalType": "address",
          "name": "_owner",
          "type": "address"
        },
        {
          "indexed": true,
          "internalType": "address",
          "name": "_approved",
          "type": "address"
        },
        {
          "indexed": true,
          "internalType": "uint256",
          "name": "_tokenId",
          "type": "uint256"
        }
      ],
      "name": "Approval",
      "type": "event"
    },
    {
      "anonymous": false,
      "inputs": [
        {
          "indexed": true,
          "internalType": "address",
          "name": "_from",
          "type": "address"
        },
        {
          "indexed": true,
          "internalType": "address",
          "name": "_to",
          "type": "address"
        },
        {
          "indexed": true,
          "internalType": "uint256",
          "name": "_tokenId",
          "type": "uint256"
        }
      ],
      "name": "Transfer",
      "type": "event"
    },
    {
      "inputs": [
        {
          "internalType": "bytes4",
          "name": "interfaceID",
          "type": "bytes4"
        }
      ],
      "name": "supportsInterface",
      "outputs": [
        {
          "internalType": "bool",
          "name": "",
          "type": "bool"
        }
      ],
      "stateMutability": "view",
      "type": "function"
    },
    {
      "inputs": [
        {
          "internalType": "address",
          "name": "_owner",
          "type": "address"
        }
      ],
      "name": "balanceOf",
      "outputs": [
        {
          "internalType": "uint256",
          "name": "",
          "type": "uint256"
        }
      ],
      "stateMutability": "view",
      "type": "function"
    },
    {
      "inputs": [
        {
          "internalType": "uint256",
          "name": "_tokenId",
          "type": "uint256"
        }
      ],
      "name": "ownerOf",
      "outputs": [
        {
          "internalType": "address",
          "name": "",
          "type": "address"
        }
      ],
      "stateMutability": "view",
      "type": "function"
    },
    {
      "inputs": [
        {
          "internalType": "address",
          "name": "_from",
          "type": "address"
        },
        {
          "internalType": "address",
          "name": "_to",
          "type": "address"
        },
        {
          "internalType": "uint256",
          "name": "_tokenId",
          "type": "uint256"
        }
      ],
      "name": "transferFrom",
      "outputs": [],
      "stateMutability": "nonpayable",
      "type": "function"
    },
    {
      "inputs": [
        {
          "internalType": "address",
          "name": "_to",
          "type": "address"
        },
        {
          "internalType": "uint256",
          "name": "tokenId",
          "type": "uint256"
        }
      ],
      "name": "approve",
      "outputs": [],
      "stateMutability": "nonpayable",
      "type": "function"
    },
    {
      "inputs": [
        {
          "internalType": "address",
          "name": "owner",
          "type": "address"
        },
        {
          "internalType": "address",
          "name": "operator",
          "type": "address"
        }
      ],
      "name": "isApprovedForAll",
      "outputs": [
        {
          "internalType": "bool",
          "name": "",
          "type": "bool"
        }
      ],
      "stateMutability": "view",
      "type": "function"
    },
    {
      "inputs": [
        {
          "internalType": "uint256",
          "name": "tokenId",
          "type": "uint256"
        }
      ],
      "name": "getApproved",
      "outputs": [
        {
          "internalType": "address",
          "name": "",
          "type": "address"
        }
      ],
      "stateMutability": "view",
      "type": "function"
    }
  ],
  "bytecode": "0x608060405234801561001057600080fd5b506100407f01ffc9a7a5cef8baa21ed3c5c0d7e23accb804b619e9333b597f47a0d84076e261004560201b60201c565b6101bc565b63ffffffff60e01b817bffffffffffffffffffffffffffffffffffffffffffffffffffffffff1916036100ad576040517f08c379a00000000000000000000000000000000000000000000000000000000081526004016100a49061019c565b60405180910390fd5b6001600080837bffffffffffffffffffffffffffffffffffffffffffffffffffffffff19167bffffffffffffffffffffffffffffffffffffffffffffffffffffffff1916815260200190815260200160002060006101000a81548160ff02191690831515021790555050565b600082825260208201905092915050565b7f496e76616c696420696e746572666163652072657175697265733a20696e746560008201527f726661636549642063616e6e6f74206265203078666666666666666600000000602082015250565b6000610186603c83610119565b91506101918261012a565b604082019050919050565b600060208201905081810360008301526101b581610179565b9050919050565b61117e80620001cc6000396000f3fe608060405234801561001057600080fd5b506004361061007d5760003560e01c806323b872dd1161005b57806323b872dd146100fe5780636352211e1461011a57806370a082311461014a578063e985e9c51461017a5761007d565b806301ffc9a714610082578063081812fc146100b2578063095ea7b3146100e2575b600080fd5b61009c600480360381019061009791906109c2565b6101aa565b6040516100a99190610a0a565b60405180910390f35b6100cc60048036038101906100c79190610a5b565b610211565b6040516100d99190610ac9565b60405180910390f35b6100fc60048036038101906100f79190610b10565b61024e565b005b61011860048036038101906101139190610b50565b6103ce565b005b610134600480360381019061012f9190610a5b565b610427565b6040516101419190610ac9565b60405180910390f35b610164600480360381019061015f9190610ba3565b6104a6565b6040516101719190610bdf565b60405180910390f35b610194600480360381019061018f9190610bfa565b61055d565b6040516101a19190610a0a565b60405180910390f35b6000806000837bffffffffffffffffffffffffffffffffffffffffffffffffffffffff19167bffffffffffffffffffffffffffffffffffffffffffffffffffffffff1916815260200190815260200160002060009054906101000a900460ff169050919050565b60006003600083815260200190815260200160002060009054906101000a900473ffffffffffffffffffffffffffffffffffffffff169050919050565b600061025982610427565b90508073ffffffffffffffffffffffffffffffffffffffff168373ffffffffffffffffffffffffffffffffffffffff16036102c9576040517f08c379a00000000000000000000000000000000000000000000000000000000081526004016102c090610cbd565b60405180910390fd5b8073ffffffffffffffffffffffffffffffffffffffff163373ffffffffffffffffffffffffffffffffffffffff1614610337576040517f08c379a000000000000000000000000000000000000000000000000000000000815260040161032e90610d4f565b60405180910390fd5b8273ffffffffffffffffffffffffffffffffffffffff166003600084815260200190815260200160002060009054906101000a90505050818373ffffffffffffffffffffffffffffffffffffffff168273ffffffffffffffffffffffffffffffffffffffff167f8c5be1e5ebec7d5bd14f71427d1e84f3dd0314c0f7b2291e5b200ac8c7c3b92560405160405180910390a4505050565b6103d833826105f1565b610417576040517f08c379a000000000000000000000000000000000000000000000000000000000815260040161040e90610de1565b60405180910390fd5b6104228383836106cf565b505050565b600080820361046b576040517f08c379a000000000000000000000000000000000000000000000000000000000815260040161046290610e4d565b60405180910390fd5b6001600083815260200190815260200160002060009054906101000a900473ffffffffffffffffffffffffffffffffffffffff169050919050565b60008073ffffffffffffffffffffffffffffffffffffffff168273ffffffffffffffffffffffffffffffffffffffff1603610516576040517f08c379a000000000000000000000000000000000000000000000000000000000815260040161050d90610edf565b60405180910390fd5b600260008373ffffffffffffffffffffffffffffffffffffffff1673ffffffffffffffffffffffffffffffffffffffff168152602001908152602001600020549050919050565b6000600460008473ffffffffffffffffffffffffffffffffffffffff1673ffffffffffffffffffffffffffffffffffffffff16815260200190815260200160002060008373ffffffffffffffffffffffffffffffffffffffff1673ffffffffffffffffffffffffffffffffffffffff16815260200190815260200160002060009054906101000a900460ff16905092915050565b60006105fc826108f9565b61063b576040517f08c379a000000000000000000000000000000000000000000000000000000000815260040161063290610f4b565b60405180910390fd5b600061064683610427565b90508073ffffffffffffffffffffffffffffffffffffffff168473ffffffffffffffffffffffffffffffffffffffff1614806106885750610687818561055d565b5b806106c657508373ffffffffffffffffffffffffffffffffffffffff166106ae84610211565b73ffffffffffffffffffffffffffffffffffffffff16145b91505092915050565b600073ffffffffffffffffffffffffffffffffffffffff168273ffffffffffffffffffffffffffffffffffffffff160361073e576040517f08c379a000000000000000000000000000000000000000000000000000000000815260040161073590610fdd565b60405180910390fd5b8273ffffffffffffffffffffffffffffffffffffffff1661075e82610427565b73ffffffffffffffffffffffffffffffffffffffff16146107b4576040517f08c379a00000000000000000000000000000000000000000000000000000000081526004016107ab9061106f565b60405180910390fd5b6001600260008573ffffffffffffffffffffffffffffffffffffffff1673ffffffffffffffffffffffffffffffffffffffff168152602001908152602001600020600082825461080491906110be565b925050819055506001600260008473ffffffffffffffffffffffffffffffffffffffff1673ffffffffffffffffffffffffffffffffffffffff168152602001908152602001600020600082825461085b91906110f2565b925050819055508173ffffffffffffffffffffffffffffffffffffffff166001600083815260200190815260200160002060009054906101000a90505050808273ffffffffffffffffffffffffffffffffffffffff168473ffffffffffffffffffffffffffffffffffffffff167fddf252ad1be2c89b69c2b068fc378daa952ba7f163c4a11628f55a4df523b3ef60405160405180910390a4505050565b60008073ffffffffffffffffffffffffffffffffffffffff166001600084815260200190815260200160002060009054906101000a900473ffffffffffffffffffffffffffffffffffffffff1673ffffffffffffffffffffffffffffffffffffffff1614159050919050565b600080fd5b60007fffffffff0000000000000000000000000000000000000000000000000000000082169050919050565b61099f8161096a565b81146109aa57600080fd5b50565b6000813590506109bc81610996565b92915050565b6000602082840312156109d8576109d7610965565b5b60006109e6848285016109ad565b91505092915050565b60008115159050919050565b610a04816109ef565b82525050565b6000602082019050610a1f60008301846109fb565b92915050565b6000819050919050565b610a3881610a25565b8114610a4357600080fd5b50565b600081359050610a5581610a2f565b92915050565b600060208284031215610a7157610a70610965565b5b6000610a7f84828501610a46565b91505092915050565b600073ffffffffffffffffffffffffffffffffffffffff82169050919050565b6000610ab382610a88565b9050919050565b610ac381610aa8565b82525050565b6000602082019050610ade6000830184610aba565b92915050565b610aed81610aa8565b8114610af857600080fd5b50565b600081359050610b0a81610ae4565b92915050565b60008060408385031215610b2757610b26610965565b5b6000610b3585828601610afb565b9250506020610b4685828601610a46565b9150509250929050565b600080600060608486031215610b6957610b68610965565b5b6000610b7786828701610afb565b9350506020610b8886828701610afb565b9250506040610b9986828701610a46565b9150509250925092565b600060208284031215610bb957610bb8610965565b5b6000610bc784828501610afb565b91505092915050565b610bd981610a25565b82525050565b6000602082019050610bf46000830184610bd0565b92915050565b60008060408385031215610c1157610c10610965565b5b6000610c1f85828601610afb565b9250506020610c3085828601610afb565b9150509250929050565b600082825260208201905092915050565b7f4572726f72202d20617070726f76616c20746f2063757272656e74206f776e6560008201527f7200000000000000000000000000000000000000000000000000000000000000602082015250565b6000610ca7602183610c3a565b9150610cb282610c4b565b604082019050919050565b60006020820190508181036000830152610cd681610c9a565b9050919050565b7f43757272656e742063616c6c6572206973206e6f7420746865206f776e65722060008201527f6f662074686520746f6b656e0000000000000000000000000000000000000000602082015250565b6000610d39602c83610c3a565b9150610d4482610cdd565b604082019050919050565b60006020820190508181036000830152610d6881610d2c565b9050919050565b7f4552433732313a206d757374206861766520617070726f766564206f72206f7760008201527f6e65722073746174757320666f722074686520746f6b656e0000000000000000602082015250565b6000610dcb603883610c3a565b9150610dd682610d6f565b604082019050919050565b60006020820190508181036000830152610dfa81610dbe565b9050919050565b7f546f6b656e2049442063616e6e6f74206265207a65726f000000000000000000600082015250565b6000610e37601783610c3a565b9150610e4282610e01565b602082019050919050565b60006020820190508181036000830152610e6681610e2a565b9050919050565b7f4f776e65722071756572792063616e6e6f7420626520666f7220746865207a6560008201527f726f206164647265737300000000000000000000000000000000000000000000602082015250565b6000610ec9602a83610c3a565b9150610ed482610e6d565b604082019050919050565b60006020820190508181036000830152610ef881610ebc565b9050919050565b7f546f6b656e20646f6573206e6f74206578697374730000000000000000000000600082015250565b6000610f35601583610c3a565b9150610f4082610eff565b602082019050919050565b60006020820190508181036000830152610f6481610f28565b9050919050565b7f4572726f72202d204552433732313a207472616e7366657220746f207468652060008201527f7a65726f20616464726573730000000000000000000000000000000000000000602082015250565b6000610fc7602c83610c3a565b9150610fd282610f6b565b604082019050919050565b60006020820190508181036000830152610ff681610fba565b9050919050565b7f547279696e6720746f207472616e73666572206120746f6b656e20746865206160008201527f64647265737320646f6573206e6f74206f776e65640000000000000000000000602082015250565b6000611059603583610c3a565b915061106482610ffd565b604082019050919050565b600060208201905081810360008301526110888161104c565b9050919050565b7f4e487b7100000000000000000000000000000000000000000000000000000000600052601160045260246000fd5b60006110c982610a25565b91506110d483610a25565b9250828210156110e7576110e661108f565b5b828203905092915050565b60006110fd82610a25565b915061110883610a25565b9250827fffffffffffffffffffffffffffffffffffffffffffffffffffffffffffffffff0382111561113d5761113c61108f565b5b82820190509291505056fea264697066735822122068cb83a57b3043be3d718d876a420aad4a52a333fe474b072a98ed5516331ddd64736f6c634300080d0033",
  "immutableReferences": {},
  "source": "// SPDX-License-Identifieer: MIT\npragma solidity ^0.8.0;\n\nimport \"./ERC165.sol\";\nimport \"./interfaces/IERC721.sol\";\n\n/**\n  bulding out the minting function\n    a. nft to point to an address\n    b. keep track of the token ids\n    c. keep tack of token owners address to token id\n    d. keep track of how many tokens an owner address has\n    e. emit an event when a token is transfered - contract address, where it is transfered from, to, token id\n   */\n\n// Implementing ERC165 interface for compilance issues with ERC721\ncontract ERC721 is ERC165, IERC721 {\n    // mapping in solidity creates a hash table of key value pairs\n    // mapping from token id to token owner\n    mapping(uint256 => address) private _tokenOwner;\n\n    // mapping from owner to number of owned tokens\n    mapping(address => uint256) private _OwnedTokensCount;\n\n    // mapping from token id to approved addresses\n    mapping(uint256 => address) private _tokenApprovals;\n\n    // Mapping from owner to operator approvals\n    mapping(address => mapping(address => bool)) private _operatorApprovals;\n\n    // @notice Count all NTFs assigned to an owner\n    /// @dev NFTs assigned to the zero address are cosidered invalid, and this is\n    // function throws for queries about the zero address.\n    /// @param _owner An address for whom to query the balance\n    /// @return The number of NFTs owned by _owner, possibly zero\n    function balanceOf(address _owner) public override view returns (uint256) {\n        require(\n            _owner != address(0),\n            \"Owner query cannot be for the zero address\"\n        );\n        return _OwnedTokensCount[_owner];\n    }\n\n    // @notice Find the owner of an NFT\n    // @dev NFTs assigned to zero address are considered invalid, and queries\n    // about them do throw.\n    /// @param _tokenId The identifier for the NFT\n    /// @return The address of the owner of the NFT\n    function ownerOf(uint256 _tokenId) public override view returns (address) {\n        require(_tokenId != 0, \"Token ID cannot be zero\");\n        return _tokenOwner[_tokenId];\n    }\n\n    function _exists(uint256 tokenId) internal view returns (bool) {\n        // checking truthyness that the token id exists\n        return _tokenOwner[tokenId] != address(0);\n    }\n\n    function _mint(address to, uint256 tokenId) internal virtual {\n        // requires that the address is not zero\n        require(to != address(0), \"ERC721: minting to the zero address\");\n\n        // requires that the token does not alreayd exist\n        require(\n            _exists(tokenId) != true,\n            \"ERC721: minting a token that already exists\"\n        );\n\n        // adding a new address with token id for minting\n        _tokenOwner[tokenId] == to;\n        _OwnedTokensCount[to] += 1;\n\n        emit Transfer(address(0), to, tokenId);\n    }\n\n    function _transferFrom(\n        address _from,\n        address _to,\n        uint256 _tokenId\n    ) internal {\n        require(\n            _to != address(0),\n            \"Error - ERC721: transfer to the zero address\"\n        );\n        require(\n            ownerOf(_tokenId) == _from,\n            \"Trying to transfer a token the address does not owned\"\n        );\n\n        _OwnedTokensCount[_from] -= 1;\n        _OwnedTokensCount[_to] += 1;\n        _tokenOwner[_tokenId] == _to;\n\n        emit Transfer(_from, _to, _tokenId);\n    }\n\n    function transferFrom(\n        address _from,\n        address _to,\n        uint256 _tokenId\n    ) public override {\n        require(\n            isApprovedOrOwner(msg.sender, _tokenId),\n            \"ERC721: must have approved or owner status for the token\"\n        );\n        _transferFrom(_from, _to, _tokenId);\n    }\n\n    // 1. require that the person approving is the owner\n    // 2. we are approving an address to a token (tokenId)\n    // 3. require that we cant approve sending tokens of owner to the owner\n    // 4. update the mapping of the approval addresses\n    function approve(address _to, uint256 tokenId) public {\n        address owner = ownerOf(tokenId);\n        require(_to != owner, \"Error - approval to current owner\");\n        require(\n            msg.sender == owner,\n            \"Current caller is not the owner of the token\"\n        );\n        _tokenApprovals[tokenId] == _to;\n\n        emit Approval(owner, _to, tokenId);\n    }\n\n    function isApprovedForAll(address owner, address operator)\n        public\n        view\n        returns (bool)\n    {\n        return _operatorApprovals[owner][operator];\n    }\n\n    function getApproved(uint256 tokenId) public view returns (address) {\n        return _tokenApprovals[tokenId];\n    }\n\n    function isApprovedOrOwner(address spender, uint256 tokenId)\n        internal\n        view\n        returns (bool)\n    {\n        require(_exists(tokenId), \"Token does not exists\");\n        address owner = ownerOf(tokenId);\n        return (spender == owner ||\n            isApprovedForAll(owner, spender) ||\n            getApproved(tokenId) == spender);\n    }\n}\n",
  "sourcePath": "/Users/sumitgautam/Public/nft-marketplace-starter-kit/src/contracts/ERC721.sol",
  "compiler": {
    "name": "solc",
    "version": "0.8.13+commit.abaa5c0e.Emscripten.clang"
  },
  "schemaVersion": "3.4.4",
  "updatedAt": "2022-04-15T06:10:04.684Z",
  "devdoc": {
    "kind": "dev",
    "methods": {
      "balanceOf(address)": {
        "params": {
          "_owner": "An address for whom to query the balance"
        },
        "returns": {
          "_0": "The number of NFTs owned by _owner, possibly zero"
        }
      },
      "ownerOf(uint256)": {
        "params": {
          "_tokenId": "The identifier for the NFT"
        },
        "returns": {
          "_0": "The address of the owner of the NFT"
        }
      },
      "supportsInterface(bytes4)": {
        "details": "Interface identification is specified in ERC-165. This function  uses less than 30,000 gas.",
        "params": {
          "interfaceID": "The interface identifier, as specified in ERC-165"
        },
        "returns": {
          "_0": "`true` if the contract implements `interfaceID` and  `interfaceID` is not 0xffffffff, `false` otherwise"
        }
      }
    },
    "version": 1
  },
  "userdoc": {
    "kind": "user",
    "methods": {
      "supportsInterface(bytes4)": {
        "notice": "Query if a contract implements an interface"
      }
    },
    "notice": "bulding out the minting function a. nft to point to an address b. keep track of the token ids c. keep tack of token owners address to token id d. keep track of how many tokens an owner address has e. emit an event when a token is transfered - contract address, where it is transfered from, to, token id",
    "version": 1
  }
}