{
  "contractName": "KryptoBird",
  "abi": [
    {
      "inputs": [],
      "stateMutability": "nonpayable",
      "type": "constructor"
    },
    {
      "anonymous": false,
      "inputs": [
        {
          "indexed": true,
          "internalType": "address",
          "name": "_owner",
          "type": "address"
        },
        {
          "indexed": true,
          "internalType": "address",
          "name": "_approved",
          "type": "address"
        },
        {
          "indexed": true,
          "internalType": "uint256",
          "name": "_tokenId",
          "type": "uint256"
        }
      ],
      "name": "Approval",
      "type": "event"
    },
    {
      "anonymous": false,
      "inputs": [
        {
          "indexed": true,
          "internalType": "address",
          "name": "_from",
          "type": "address"
        },
        {
          "indexed": true,
          "internalType": "address",
          "name": "_to",
          "type": "address"
        },
        {
          "indexed": true,
          "internalType": "uint256",
          "name": "_tokenId",
          "type": "uint256"
        }
      ],
      "name": "Transfer",
      "type": "event"
    },
    {
      "inputs": [
        {
          "internalType": "address",
          "name": "_to",
          "type": "address"
        },
        {
          "internalType": "uint256",
          "name": "tokenId",
          "type": "uint256"
        }
      ],
      "name": "approve",
      "outputs": [],
      "stateMutability": "nonpayable",
      "type": "function"
    },
    {
      "inputs": [
        {
          "internalType": "address",
          "name": "_owner",
          "type": "address"
        }
      ],
      "name": "balanceOf",
      "outputs": [
        {
          "internalType": "uint256",
          "name": "",
          "type": "uint256"
        }
      ],
      "stateMutability": "view",
      "type": "function",
      "constant": true
    },
    {
      "inputs": [
        {
          "internalType": "uint256",
          "name": "tokenId",
          "type": "uint256"
        }
      ],
      "name": "getApproved",
      "outputs": [
        {
          "internalType": "address",
          "name": "",
          "type": "address"
        }
      ],
      "stateMutability": "view",
      "type": "function",
      "constant": true
    },
    {
      "inputs": [
        {
          "internalType": "address",
          "name": "owner",
          "type": "address"
        },
        {
          "internalType": "address",
          "name": "operator",
          "type": "address"
        }
      ],
      "name": "isApprovedForAll",
      "outputs": [
        {
          "internalType": "bool",
          "name": "",
          "type": "bool"
        }
      ],
      "stateMutability": "view",
      "type": "function",
      "constant": true
    },
    {
      "inputs": [
        {
          "internalType": "uint256",
          "name": "",
          "type": "uint256"
        }
      ],
      "name": "kryptoBirdz",
      "outputs": [
        {
          "internalType": "string",
          "name": "",
          "type": "string"
        }
      ],
      "stateMutability": "view",
      "type": "function",
      "constant": true
    },
    {
      "inputs": [],
      "name": "name",
      "outputs": [
        {
          "internalType": "string",
          "name": "",
          "type": "string"
        }
      ],
      "stateMutability": "view",
      "type": "function",
      "constant": true
    },
    {
      "inputs": [
        {
          "internalType": "uint256",
          "name": "_tokenId",
          "type": "uint256"
        }
      ],
      "name": "ownerOf",
      "outputs": [
        {
          "internalType": "address",
          "name": "",
          "type": "address"
        }
      ],
      "stateMutability": "view",
      "type": "function",
      "constant": true
    },
    {
      "inputs": [
        {
          "internalType": "bytes4",
          "name": "interfaceID",
          "type": "bytes4"
        }
      ],
      "name": "supportsInterface",
      "outputs": [
        {
          "internalType": "bool",
          "name": "",
          "type": "bool"
        }
      ],
      "stateMutability": "view",
      "type": "function",
      "constant": true
    },
    {
      "inputs": [],
      "name": "symbol",
      "outputs": [
        {
          "internalType": "string",
          "name": "",
          "type": "string"
        }
      ],
      "stateMutability": "view",
      "type": "function",
      "constant": true
    },
    {
      "inputs": [
        {
          "internalType": "uint256",
          "name": "index",
          "type": "uint256"
        }
      ],
      "name": "tokenByIndex",
      "outputs": [
        {
          "internalType": "uint256",
          "name": "",
          "type": "uint256"
        }
      ],
      "stateMutability": "view",
      "type": "function",
      "constant": true
    },
    {
      "inputs": [
        {
          "internalType": "address",
          "name": "owner",
          "type": "address"
        },
        {
          "internalType": "uint256",
          "name": "index",
          "type": "uint256"
        }
      ],
      "name": "tokenOfOwnerByIndex",
      "outputs": [
        {
          "internalType": "uint256",
          "name": "",
          "type": "uint256"
        }
      ],
      "stateMutability": "view",
      "type": "function",
      "constant": true
    },
    {
      "inputs": [],
      "name": "totalSupply",
      "outputs": [
        {
          "internalType": "uint256",
          "name": "",
          "type": "uint256"
        }
      ],
      "stateMutability": "view",
      "type": "function",
      "constant": true
    },
    {
      "inputs": [
        {
          "internalType": "address",
          "name": "_from",
          "type": "address"
        },
        {
          "internalType": "address",
          "name": "_to",
          "type": "address"
        },
        {
          "internalType": "uint256",
          "name": "_tokenId",
          "type": "uint256"
        }
      ],
      "name": "transferFrom",
      "outputs": [],
      "stateMutability": "nonpayable",
      "type": "function"
    },
    {
      "inputs": [
        {
          "internalType": "string",
          "name": "_kryptoBird",
          "type": "string"
        }
      ],
      "name": "mint",
      "outputs": [],
      "stateMutability": "nonpayable",
      "type": "function"
    }
  ],
  "bytecode": "0x60806040523480156200001157600080fd5b506040518060400160405280600a81526020017f4b727970746f42697264000000000000000000000000000000000000000000008152506040518060400160405280600681526020017f4b424952445a00000000000000000000000000000000000000000000000000008152508181620000b17f01ffc9a7a5cef8baa21ed3c5c0d7e23accb804b619e9333b597f47a0d84076e26200021c60201b60201c565b620001047f03144f78da04809d8e78d6e9da10443141715f98474f72c3a0757085607c67d17f7feaf19471f34a12a7eaf32d5f3090aa2260ea8624dc8a138e74e0bf0f623076186200021c60201b60201c565b81600190816200011591906200056d565b5080600290816200012791906200056d565b5050506200019f7f22c82707ba960a14c7592ffb6b8cfaa073fed0048a84cc7fa41f6b5bd8e7f2e47f3a6eb71757dfc6e784c1459d26270140c2c147d95ca985c80026fc5301c3eca17f8a7e378434598edc36d108689a030cbc9d7d465de4f74c71bae1028eed6a881b18186200021c60201b60201c565b620002147f8230223f691b981717299fae9549350a0d894555723531f02108b1f522c1a7977f6da5e1284143cdd2d15038a59bde3be031250f00291d64494c12d967b3a4e0c37fc53637662700e6c65104059db8bba34439e0c32483ab7c34e3ccae52c739549518186200021c60201b60201c565b5050620006fd565b63ffffffff60e01b817bffffffffffffffffffffffffffffffffffffffffffffffffffffffff19160362000287576040517f08c379a00000000000000000000000000000000000000000000000000000000081526004016200027e90620006db565b60405180910390fd5b6001600080837bffffffffffffffffffffffffffffffffffffffffffffffffffffffff19167bffffffffffffffffffffffffffffffffffffffffffffffffffffffff1916815260200190815260200160002060006101000a81548160ff02191690831515021790555050565b600081519050919050565b7f4e487b7100000000000000000000000000000000000000000000000000000000600052604160045260246000fd5b7f4e487b7100000000000000000000000000000000000000000000000000000000600052602260045260246000fd5b600060028204905060018216806200037557607f821691505b6020821081036200038b576200038a6200032d565b5b50919050565b60008190508160005260206000209050919050565b60006020601f8301049050919050565b600082821b905092915050565b600060088302620003f57fffffffffffffffffffffffffffffffffffffffffffffffffffffffffffffffff82620003b6565b620004018683620003b6565b95508019841693508086168417925050509392505050565b6000819050919050565b6000819050919050565b60006200044e62000448620004428462000419565b62000423565b62000419565b9050919050565b6000819050919050565b6200046a836200042d565b62000482620004798262000455565b848454620003c3565b825550505050565b600090565b620004996200048a565b620004a68184846200045f565b505050565b5b81811015620004ce57620004c26000826200048f565b600181019050620004ac565b5050565b601f8211156200051d57620004e78162000391565b620004f284620003a6565b8101602085101562000502578190505b6200051a6200051185620003a6565b830182620004ab565b50505b505050565b600082821c905092915050565b6000620005426000198460080262000522565b1980831691505092915050565b60006200055d83836200052f565b9150826002028217905092915050565b6200057882620002f3565b67ffffffffffffffff811115620005945762000593620002fe565b5b620005a082546200035c565b620005ad828285620004d2565b600060209050601f831160018114620005e55760008415620005d0578287015190505b620005dc85826200054f565b8655506200064c565b601f198416620005f58662000391565b60005b828110156200061f57848901518255600182019150602085019450602081019050620005f8565b868310156200063f57848901516200063b601f8916826200052f565b8355505b6001600288020188555050505b505050505050565b600082825260208201905092915050565b7f496e76616c696420696e746572666163652072657175697265733a20696e746560008201527f726661636549642063616e6e6f74206265203078666666666666666600000000602082015250565b6000620006c3603c8362000654565b9150620006d08262000665565b604082019050919050565b60006020820190508181036000830152620006f681620006b4565b9050919050565b612304806200070d6000396000f3fe608060405234801561001057600080fd5b50600436106100ea5760003560e01c80634f6ccce71161008c57806393ab6e561161006657806393ab6e561461028357806395d89b41146102b3578063d85d3d27146102d1578063e985e9c5146102ed576100ea565b80634f6ccce7146101f35780636352211e1461022357806370a0823114610253576100ea565b8063095ea7b3116100c8578063095ea7b31461016d57806318160ddd1461018957806323b872dd146101a75780632f745c59146101c3576100ea565b806301ffc9a7146100ef57806306fdde031461011f578063081812fc1461013d575b600080fd5b610109600480360381019061010491906112f0565b61031d565b6040516101169190611338565b60405180910390f35b610127610384565b60405161013491906113ec565b60405180910390f35b61015760048036038101906101529190611444565b610416565b60405161016491906114b2565b60405180910390f35b610187600480360381019061018291906114f9565b610453565b005b6101916105d3565b60405161019e9190611548565b60405180910390f35b6101c160048036038101906101bc9190611563565b6105e0565b005b6101dd60048036038101906101d891906114f9565b610639565b6040516101ea9190611548565b60405180910390f35b61020d60048036038101906102089190611444565b61075a565b60405161021a9190611548565b60405180910390f35b61023d60048036038101906102389190611444565b610832565b60405161024a91906114b2565b60405180910390f35b61026d600480360381019061026891906115b6565b6108b1565b60405161027a9190611548565b60405180910390f35b61029d60048036038101906102989190611444565b610968565b6040516102aa91906113ec565b60405180910390f35b6102bb610a14565b6040516102c891906113ec565b60405180910390f35b6102eb60048036038101906102e69190611718565b610aa6565b005b61030760048036038101906103029190611761565b610ba2565b6040516103149190611338565b60405180910390f35b6000806000837bffffffffffffffffffffffffffffffffffffffffffffffffffffffff19167bffffffffffffffffffffffffffffffffffffffffffffffffffffffff1916815260200190815260200160002060009054906101000a900460ff169050919050565b606060018054610393906117d0565b80601f01602080910402602001604051908101604052809291908181526020018280546103bf906117d0565b801561040c5780601f106103e15761010080835404028352916020019161040c565b820191906000526020600020905b8154815290600101906020018083116103ef57829003601f168201915b5050505050905090565b60006005600083815260200190815260200160002060009054906101000a900473ffffffffffffffffffffffffffffffffffffffff169050919050565b600061045e82610832565b90508073ffffffffffffffffffffffffffffffffffffffff168373ffffffffffffffffffffffffffffffffffffffff16036104ce576040517f08c379a00000000000000000000000000000000000000000000000000000000081526004016104c590611873565b60405180910390fd5b8073ffffffffffffffffffffffffffffffffffffffff163373ffffffffffffffffffffffffffffffffffffffff161461053c576040517f08c379a000000000000000000000000000000000000000000000000000000000815260040161053390611905565b60405180910390fd5b8273ffffffffffffffffffffffffffffffffffffffff166005600084815260200190815260200160002060009054906101000a90505050818373ffffffffffffffffffffffffffffffffffffffff168273ffffffffffffffffffffffffffffffffffffffff167f8c5be1e5ebec7d5bd14f71427d1e84f3dd0314c0f7b2291e5b200ac8c7c3b92560405160405180910390a4505050565b6000600780549050905090565b6105ea3382610c36565b610629576040517f08c379a000000000000000000000000000000000000000000000000000000000815260040161062090611997565b60405180910390fd5b610634838383610d14565b505050565b60003073ffffffffffffffffffffffffffffffffffffffff166370a08231846040518263ffffffff1660e01b815260040161067491906114b2565b602060405180830381865afa158015610691573d6000803e3d6000fd5b505050506040513d601f19601f820116820180604052508101906106b591906119cc565b82106106f6576040517f08c379a00000000000000000000000000000000000000000000000000000000081526004016106ed90611a45565b60405180910390fd5b600960008473ffffffffffffffffffffffffffffffffffffffff1673ffffffffffffffffffffffffffffffffffffffff168152602001908152602001600020828154811061074757610746611a65565b5b9060005260206000200154905092915050565b60003073ffffffffffffffffffffffffffffffffffffffff166318160ddd6040518163ffffffff1660e01b8152600401602060405180830381865afa1580156107a7573d6000803e3d6000fd5b505050506040513d601f19601f820116820180604052508101906107cb91906119cc565b821061080c576040517f08c379a000000000000000000000000000000000000000000000000000000000815260040161080390611ae0565b60405180910390fd5b600782815481106108205761081f611a65565b5b90600052602060002001549050919050565b6000808203610876576040517f08c379a000000000000000000000000000000000000000000000000000000000815260040161086d90611b4c565b60405180910390fd5b6003600083815260200190815260200160002060009054906101000a900473ffffffffffffffffffffffffffffffffffffffff169050919050565b60008073ffffffffffffffffffffffffffffffffffffffff168273ffffffffffffffffffffffffffffffffffffffff1603610921576040517f08c379a000000000000000000000000000000000000000000000000000000000815260040161091890611bde565b60405180910390fd5b600460008373ffffffffffffffffffffffffffffffffffffffff1673ffffffffffffffffffffffffffffffffffffffff168152602001908152602001600020549050919050565b600b818154811061097857600080fd5b906000526020600020016000915090508054610993906117d0565b80601f01602080910402602001604051908101604052809291908181526020018280546109bf906117d0565b8015610a0c5780601f106109e157610100808354040283529160200191610a0c565b820191906000526020600020905b8154815290600101906020018083116109ef57829003601f168201915b505050505081565b606060028054610a23906117d0565b80601f0160208091040260200160405190810160405280929190818152602001828054610a4f906117d0565b8015610a9c5780601f10610a7157610100808354040283529160200191610a9c565b820191906000526020600020905b815481529060010190602001808311610a7f57829003601f168201915b5050505050905090565b600c81604051610ab69190611c3a565b908152602001604051809103902060009054906101000a900460ff1615610b12576040517f08c379a0000000000000000000000000000000000000000000000000000000008152600401610b0990611cc3565b60405180910390fd5b600b81908060018154018082558091505060019003906000526020600020016000909190919091509081610b469190611e8f565b5060006001600b80549050610b5b9190611f90565b9050610b673382610f3e565b6001600c83604051610b799190611c3a565b908152602001604051809103902060006101000a81548160ff0219169083151502179055505050565b6000600660008473ffffffffffffffffffffffffffffffffffffffff1673ffffffffffffffffffffffffffffffffffffffff16815260200190815260200160002060008373ffffffffffffffffffffffffffffffffffffffff1673ffffffffffffffffffffffffffffffffffffffff16815260200190815260200160002060009054906101000a900460ff16905092915050565b6000610c4182610f5f565b610c80576040517f08c379a0000000000000000000000000000000000000000000000000000000008152600401610c7790612010565b60405180910390fd5b6000610c8b83610832565b90508073ffffffffffffffffffffffffffffffffffffffff168473ffffffffffffffffffffffffffffffffffffffff161480610ccd5750610ccc8185610ba2565b5b80610d0b57508373ffffffffffffffffffffffffffffffffffffffff16610cf384610416565b73ffffffffffffffffffffffffffffffffffffffff16145b91505092915050565b600073ffffffffffffffffffffffffffffffffffffffff168273ffffffffffffffffffffffffffffffffffffffff1603610d83576040517f08c379a0000000000000000000000000000000000000000000000000000000008152600401610d7a906120a2565b60405180910390fd5b8273ffffffffffffffffffffffffffffffffffffffff16610da382610832565b73ffffffffffffffffffffffffffffffffffffffff1614610df9576040517f08c379a0000000000000000000000000000000000000000000000000000000008152600401610df090612134565b60405180910390fd5b6001600460008573ffffffffffffffffffffffffffffffffffffffff1673ffffffffffffffffffffffffffffffffffffffff1681526020019081526020016000206000828254610e499190611f90565b925050819055506001600460008473ffffffffffffffffffffffffffffffffffffffff1673ffffffffffffffffffffffffffffffffffffffff1681526020019081526020016000206000828254610ea09190612154565b925050819055508173ffffffffffffffffffffffffffffffffffffffff166003600083815260200190815260200160002060009054906101000a90505050808273ffffffffffffffffffffffffffffffffffffffff168473ffffffffffffffffffffffffffffffffffffffff167fddf252ad1be2c89b69c2b068fc378daa952ba7f163c4a11628f55a4df523b3ef60405160405180910390a4505050565b610f488282610fcb565b610f5181611177565b610f5b82826111c0565b5050565b60008073ffffffffffffffffffffffffffffffffffffffff166003600084815260200190815260200160002060009054906101000a900473ffffffffffffffffffffffffffffffffffffffff1673ffffffffffffffffffffffffffffffffffffffff1614159050919050565b600073ffffffffffffffffffffffffffffffffffffffff168273ffffffffffffffffffffffffffffffffffffffff160361103a576040517f08c379a00000000000000000000000000000000000000000000000000000000081526004016110319061221c565b60405180910390fd5b6001151561104782610f5f565b151503611089576040517f08c379a0000000000000000000000000000000000000000000000000000000008152600401611080906122ae565b60405180910390fd5b8173ffffffffffffffffffffffffffffffffffffffff166003600083815260200190815260200160002060009054906101000a905050506001600460008473ffffffffffffffffffffffffffffffffffffffff1673ffffffffffffffffffffffffffffffffffffffff16815260200190815260200160002060008282546111109190612154565b92505081905550808273ffffffffffffffffffffffffffffffffffffffff16600073ffffffffffffffffffffffffffffffffffffffff167fddf252ad1be2c89b69c2b068fc378daa952ba7f163c4a11628f55a4df523b3ef60405160405180910390a45050565b6007805490506008600083815260200190815260200160002081905550600781908060018154018082558091505060019003906000526020600020016000909190919091505550565b600960008373ffffffffffffffffffffffffffffffffffffffff1673ffffffffffffffffffffffffffffffffffffffff16815260200190815260200160002080549050600a600083815260200190815260200160002081905550600960008373ffffffffffffffffffffffffffffffffffffffff1673ffffffffffffffffffffffffffffffffffffffff1681526020019081526020016000208190806001815401808255809150506001900390600052602060002001600090919091909150555050565b6000604051905090565b600080fd5b600080fd5b60007fffffffff0000000000000000000000000000000000000000000000000000000082169050919050565b6112cd81611298565b81146112d857600080fd5b50565b6000813590506112ea816112c4565b92915050565b6000602082840312156113065761130561128e565b5b6000611314848285016112db565b91505092915050565b60008115159050919050565b6113328161131d565b82525050565b600060208201905061134d6000830184611329565b92915050565b600081519050919050565b600082825260208201905092915050565b60005b8381101561138d578082015181840152602081019050611372565b8381111561139c576000848401525b50505050565b6000601f19601f8301169050919050565b60006113be82611353565b6113c8818561135e565b93506113d881856020860161136f565b6113e1816113a2565b840191505092915050565b6000602082019050818103600083015261140681846113b3565b905092915050565b6000819050919050565b6114218161140e565b811461142c57600080fd5b50565b60008135905061143e81611418565b92915050565b60006020828403121561145a5761145961128e565b5b60006114688482850161142f565b91505092915050565b600073ffffffffffffffffffffffffffffffffffffffff82169050919050565b600061149c82611471565b9050919050565b6114ac81611491565b82525050565b60006020820190506114c760008301846114a3565b92915050565b6114d681611491565b81146114e157600080fd5b50565b6000813590506114f3816114cd565b92915050565b600080604083850312156115105761150f61128e565b5b600061151e858286016114e4565b925050602061152f8582860161142f565b9150509250929050565b6115428161140e565b82525050565b600060208201905061155d6000830184611539565b92915050565b60008060006060848603121561157c5761157b61128e565b5b600061158a868287016114e4565b935050602061159b868287016114e4565b92505060406115ac8682870161142f565b9150509250925092565b6000602082840312156115cc576115cb61128e565b5b60006115da848285016114e4565b91505092915050565b600080fd5b600080fd5b7f4e487b7100000000000000000000000000000000000000000000000000000000600052604160045260246000fd5b611625826113a2565b810181811067ffffffffffffffff82111715611644576116436115ed565b5b80604052505050565b6000611657611284565b9050611663828261161c565b919050565b600067ffffffffffffffff821115611683576116826115ed565b5b61168c826113a2565b9050602081019050919050565b82818337600083830152505050565b60006116bb6116b684611668565b61164d565b9050828152602081018484840111156116d7576116d66115e8565b5b6116e2848285611699565b509392505050565b600082601f8301126116ff576116fe6115e3565b5b813561170f8482602086016116a8565b91505092915050565b60006020828403121561172e5761172d61128e565b5b600082013567ffffffffffffffff81111561174c5761174b611293565b5b611758848285016116ea565b91505092915050565b600080604083850312156117785761177761128e565b5b6000611786858286016114e4565b9250506020611797858286016114e4565b9150509250929050565b7f4e487b7100000000000000000000000000000000000000000000000000000000600052602260045260246000fd5b600060028204905060018216806117e857607f821691505b6020821081036117fb576117fa6117a1565b5b50919050565b7f4572726f72202d20617070726f76616c20746f2063757272656e74206f776e6560008201527f7200000000000000000000000000000000000000000000000000000000000000602082015250565b600061185d60218361135e565b915061186882611801565b604082019050919050565b6000602082019050818103600083015261188c81611850565b9050919050565b7f43757272656e742063616c6c6572206973206e6f7420746865206f776e65722060008201527f6f662074686520746f6b656e0000000000000000000000000000000000000000602082015250565b60006118ef602c8361135e565b91506118fa82611893565b604082019050919050565b6000602082019050818103600083015261191e816118e2565b9050919050565b7f4552433732313a206d757374206861766520617070726f766564206f72206f7760008201527f6e65722073746174757320666f722074686520746f6b656e0000000000000000602082015250565b600061198160388361135e565b915061198c82611925565b604082019050919050565b600060208201905081810360008301526119b081611974565b9050919050565b6000815190506119c681611418565b92915050565b6000602082840312156119e2576119e161128e565b5b60006119f0848285016119b7565b91505092915050565b7f6f776e657220696e646578206973206f7574206f6620626f756e647300000000600082015250565b6000611a2f601c8361135e565b9150611a3a826119f9565b602082019050919050565b60006020820190508181036000830152611a5e81611a22565b9050919050565b7f4e487b7100000000000000000000000000000000000000000000000000000000600052603260045260246000fd5b7f676c6f62616c20696e646578206f7574206f6620626f756e6473210000000000600082015250565b6000611aca601b8361135e565b9150611ad582611a94565b602082019050919050565b60006020820190508181036000830152611af981611abd565b9050919050565b7f546f6b656e2049442063616e6e6f74206265207a65726f000000000000000000600082015250565b6000611b3660178361135e565b9150611b4182611b00565b602082019050919050565b60006020820190508181036000830152611b6581611b29565b9050919050565b7f4f776e65722071756572792063616e6e6f7420626520666f7220746865207a6560008201527f726f206164647265737300000000000000000000000000000000000000000000602082015250565b6000611bc8602a8361135e565b9150611bd382611b6c565b604082019050919050565b60006020820190508181036000830152611bf781611bbb565b9050919050565b600081905092915050565b6000611c1482611353565b611c1e8185611bfe565b9350611c2e81856020860161136f565b80840191505092915050565b6000611c468284611c09565b915081905092915050565b7f4572726f72202d204b727970746f4269726420616c726561647920657869737460008201527f7300000000000000000000000000000000000000000000000000000000000000602082015250565b6000611cad60218361135e565b9150611cb882611c51565b604082019050919050565b60006020820190508181036000830152611cdc81611ca0565b9050919050565b60008190508160005260206000209050919050565b60006020601f8301049050919050565b600082821b905092915050565b600060088302611d457fffffffffffffffffffffffffffffffffffffffffffffffffffffffffffffffff82611d08565b611d4f8683611d08565b95508019841693508086168417925050509392505050565b6000819050919050565b6000611d8c611d87611d828461140e565b611d67565b61140e565b9050919050565b6000819050919050565b611da683611d71565b611dba611db282611d93565b848454611d15565b825550505050565b600090565b611dcf611dc2565b611dda818484611d9d565b505050565b5b81811015611dfe57611df3600082611dc7565b600181019050611de0565b5050565b601f821115611e4357611e1481611ce3565b611e1d84611cf8565b81016020851015611e2c578190505b611e40611e3885611cf8565b830182611ddf565b50505b505050565b600082821c905092915050565b6000611e6660001984600802611e48565b1980831691505092915050565b6000611e7f8383611e55565b9150826002028217905092915050565b611e9882611353565b67ffffffffffffffff811115611eb157611eb06115ed565b5b611ebb82546117d0565b611ec6828285611e02565b600060209050601f831160018114611ef95760008415611ee7578287015190505b611ef18582611e73565b865550611f59565b601f198416611f0786611ce3565b60005b82811015611f2f57848901518255600182019150602085019450602081019050611f0a565b86831015611f4c5784890151611f48601f891682611e55565b8355505b6001600288020188555050505b505050505050565b7f4e487b7100000000000000000000000000000000000000000000000000000000600052601160045260246000fd5b6000611f9b8261140e565b9150611fa68361140e565b925082821015611fb957611fb8611f61565b5b828203905092915050565b7f546f6b656e20646f6573206e6f74206578697374730000000000000000000000600082015250565b6000611ffa60158361135e565b915061200582611fc4565b602082019050919050565b6000602082019050818103600083015261202981611fed565b9050919050565b7f4572726f72202d204552433732313a207472616e7366657220746f207468652060008201527f7a65726f20616464726573730000000000000000000000000000000000000000602082015250565b600061208c602c8361135e565b915061209782612030565b604082019050919050565b600060208201905081810360008301526120bb8161207f565b9050919050565b7f547279696e6720746f207472616e73666572206120746f6b656e20746865206160008201527f64647265737320646f6573206e6f74206f776e65640000000000000000000000602082015250565b600061211e60358361135e565b9150612129826120c2565b604082019050919050565b6000602082019050818103600083015261214d81612111565b9050919050565b600061215f8261140e565b915061216a8361140e565b9250827fffffffffffffffffffffffffffffffffffffffffffffffffffffffffffffffff0382111561219f5761219e611f61565b5b828201905092915050565b7f4552433732313a206d696e74696e6720746f20746865207a65726f206164647260008201527f6573730000000000000000000000000000000000000000000000000000000000602082015250565b600061220660238361135e565b9150612211826121aa565b604082019050919050565b60006020820190508181036000830152612235816121f9565b9050919050565b7f4552433732313a206d696e74696e67206120746f6b656e207468617420616c7260008201527f6561647920657869737473000000000000000000000000000000000000000000602082015250565b6000612298602b8361135e565b91506122a38261223c565b604082019050919050565b600060208201905081810360008301526122c78161228b565b905091905056fea2646970667358221220ec4d37dc7305f122c58653ba97f55445eb794f482bd06bc6601a89b452a6a8a964736f6c634300080f0033",
  "immutableReferences": {},
  "source": "// SPDX-License-Identifier: MIT\npragma solidity ^0.8.0;\n\nimport './ERC721Connector.sol';\n\ncontract KryptoBird is ERC721Connector {\n\n  // array to store our NFTS\n  string [] public kryptoBirdz;\n\n  mapping(string => bool) _kryptoBirdzExists;\n\n  function mint(string memory _kryptoBird) public {\n\n    require(!_kryptoBirdzExists[_kryptoBird], 'Error - KryptoBird already exists');\n\n    // this is deprecatedd uint _id = KryptoBirdz.push(_kryptoBird);\n    kryptoBirdz.push(_kryptoBird);\n\n    uint _id = uint(kryptoBirdz.length) - 1;\n\n    _mint(msg.sender, _id);\n\n    _kryptoBirdzExists [_kryptoBird] = true;\n\n  }\n\n  constructor() ERC721Connector('KryptoBird', 'KBIRDZ') {}\n}\n",
  "sourcePath": "/Users/sumitgautam/Public/nft-marketplace-starter-kit/src/contracts/KryptoBirdz.sol",
  "compiler": {
    "name": "solc",
    "version": "0.8.15+commit.e14f2714.Emscripten.clang"
  },
  "schemaVersion": "3.4.8",
  "updatedAt": "2022-07-02T23:30:16.570Z",
  "networkType": "ethereum",
  "devdoc": {
    "kind": "dev",
    "methods": {
      "ownerOf(uint256)": {
        "params": {
          "_tokenId": "The identifier for the NFT"
        },
        "returns": {
          "_0": "The address of the owner of the NFT"
        }
      },
      "supportsInterface(bytes4)": {
        "details": "Interface identification is specified in ERC-165. This function  uses less than 30,000 gas.",
        "params": {
          "interfaceID": "The interface identifier, as specified in ERC-165"
        },
        "returns": {
          "_0": "`true` if the contract implements `interfaceID` and  `interfaceID` is not 0xffffffff, `false` otherwise"
        }
      }
    },
    "version": 1
  },
  "userdoc": {
    "kind": "user",
    "methods": {
      "supportsInterface(bytes4)": {
        "notice": "Query if a contract implements an interface"
      }
    },
    "version": 1
  }
}