{
  "contractName": "KryptoBird",
  "abi": [
    {
      "inputs": [],
      "stateMutability": "nonpayable",
      "type": "constructor"
    },
    {
      "anonymous": false,
      "inputs": [
        {
          "indexed": true,
          "internalType": "address",
          "name": "from",
          "type": "address"
        },
        {
          "indexed": true,
          "internalType": "address",
          "name": "to",
          "type": "address"
        },
        {
          "indexed": true,
          "internalType": "uint256",
          "name": "tokenId",
          "type": "uint256"
        }
      ],
      "name": "Transfer",
      "type": "event"
    },
    {
      "inputs": [
        {
          "internalType": "address",
          "name": "_owner",
          "type": "address"
        }
      ],
      "name": "balanceOf",
      "outputs": [
        {
          "internalType": "uint256",
          "name": "",
          "type": "uint256"
        }
      ],
      "stateMutability": "view",
      "type": "function",
      "constant": true
    },
    {
      "inputs": [
        {
          "internalType": "uint256",
          "name": "",
          "type": "uint256"
        }
      ],
      "name": "kryptoBirdz",
      "outputs": [
        {
          "internalType": "string",
          "name": "",
          "type": "string"
        }
      ],
      "stateMutability": "view",
      "type": "function",
      "constant": true
    },
    {
      "inputs": [],
      "name": "name",
      "outputs": [
        {
          "internalType": "string",
          "name": "",
          "type": "string"
        }
      ],
      "stateMutability": "view",
      "type": "function",
      "constant": true
    },
    {
      "inputs": [
        {
          "internalType": "uint256",
          "name": "_tokenId",
          "type": "uint256"
        }
      ],
      "name": "ownerOf",
      "outputs": [
        {
          "internalType": "address",
          "name": "",
          "type": "address"
        }
      ],
      "stateMutability": "view",
      "type": "function",
      "constant": true
    },
    {
      "inputs": [],
      "name": "symbol",
      "outputs": [
        {
          "internalType": "string",
          "name": "",
          "type": "string"
        }
      ],
      "stateMutability": "view",
      "type": "function",
      "constant": true
    },
    {
      "inputs": [
        {
          "internalType": "string",
          "name": "_kryptoBird",
          "type": "string"
        }
      ],
      "name": "mint",
      "outputs": [],
      "stateMutability": "nonpayable",
      "type": "function"
    }
  ],
  "bytecode": "0x60806040523480156200001157600080fd5b506040518060400160405280600a81526020017f4b727970746f42697264000000000000000000000000000000000000000000008152506040518060400160405280600681526020017f4b424952445a00000000000000000000000000000000000000000000000000008152508181816000908051906020019062000098929190620000bc565b508060019080519060200190620000b1929190620000bc565b5050505050620001d1565b828054620000ca906200019b565b90600052602060002090601f016020900481019282620000ee57600085556200013a565b82601f106200010957805160ff19168380011785556200013a565b828001600101855582156200013a579182015b82811115620001395782518255916020019190600101906200011c565b5b5090506200014991906200014d565b5090565b5b80821115620001685760008160009055506001016200014e565b5090565b7f4e487b7100000000000000000000000000000000000000000000000000000000600052602260045260246000fd5b60006002820490506001821680620001b457607f821691505b60208210811415620001cb57620001ca6200016c565b5b50919050565b610ffd80620001e16000396000f3fe608060405234801561001057600080fd5b50600436106100625760003560e01c806306fdde03146100675780636352211e1461008557806370a08231146100b557806393ab6e56146100e557806395d89b4114610115578063d85d3d2714610133575b600080fd5b61006f61014f565b60405161007c91906108b0565b60405180910390f35b61009f600480360381019061009a919061091c565b6101e1565b6040516100ac919061098a565b60405180910390f35b6100cf60048036038101906100ca91906109d1565b610261565b6040516100dc9190610a0d565b60405180910390f35b6100ff60048036038101906100fa919061091c565b610319565b60405161010c91906108b0565b60405180910390f35b61011d6103c5565b60405161012a91906108b0565b60405180910390f35b61014d60048036038101906101489190610b5d565b610457565b005b60606000805461015e90610bd5565b80601f016020809104026020016040519081016040528092919081815260200182805461018a90610bd5565b80156101d75780601f106101ac576101008083540402835291602001916101d7565b820191906000526020600020905b8154815290600101906020018083116101ba57829003601f168201915b5050505050905090565b600080821415610226576040517f08c379a000000000000000000000000000000000000000000000000000000000815260040161021d90610c53565b60405180910390fd5b6002600083815260200190815260200160002060009054906101000a900473ffffffffffffffffffffffffffffffffffffffff169050919050565b60008073ffffffffffffffffffffffffffffffffffffffff168273ffffffffffffffffffffffffffffffffffffffff1614156102d2576040517f08c379a00000000000000000000000000000000000000000000000000000000081526004016102c990610ce5565b60405180910390fd5b600360008373ffffffffffffffffffffffffffffffffffffffff1673ffffffffffffffffffffffffffffffffffffffff168152602001908152602001600020549050919050565b6004818154811061032957600080fd5b90600052602060002001600091509050805461034490610bd5565b80601f016020809104026020016040519081016040528092919081815260200182805461037090610bd5565b80156103bd5780601f10610392576101008083540402835291602001916103bd565b820191906000526020600020905b8154815290600101906020018083116103a057829003601f168201915b505050505081565b6060600180546103d490610bd5565b80601f016020809104026020016040519081016040528092919081815260200182805461040090610bd5565b801561044d5780601f106104225761010080835404028352916020019161044d565b820191906000526020600020905b81548152906001019060200180831161043057829003601f168201915b5050505050905090565b6005816040516104679190610d41565b908152602001604051809103902060009054906101000a900460ff16156104c3576040517f08c379a00000000000000000000000000000000000000000000000000000000081526004016104ba90610dca565b60405180910390fd5b6004819080600181540180825580915050600190039060005260206000200160009091909190915090805190602001906104fe929190610774565b50600060016004805490506105139190610e19565b905061051f338261055a565b60016005836040516105319190610d41565b908152602001604051809103902060006101000a81548160ff0219169083151502179055505050565b600073ffffffffffffffffffffffffffffffffffffffff168273ffffffffffffffffffffffffffffffffffffffff1614156105ca576040517f08c379a00000000000000000000000000000000000000000000000000000000081526004016105c190610ebf565b60405180910390fd5b600115156105d782610708565b1515141561061a576040517f08c379a000000000000000000000000000000000000000000000000000000000815260040161061190610f51565b60405180910390fd5b8173ffffffffffffffffffffffffffffffffffffffff166002600083815260200190815260200160002060009054906101000a905050506001600360008473ffffffffffffffffffffffffffffffffffffffff1673ffffffffffffffffffffffffffffffffffffffff16815260200190815260200160002060008282546106a19190610f71565b92505081905550808273ffffffffffffffffffffffffffffffffffffffff16600073ffffffffffffffffffffffffffffffffffffffff167fddf252ad1be2c89b69c2b068fc378daa952ba7f163c4a11628f55a4df523b3ef60405160405180910390a45050565b60008073ffffffffffffffffffffffffffffffffffffffff166002600084815260200190815260200160002060009054906101000a900473ffffffffffffffffffffffffffffffffffffffff1673ffffffffffffffffffffffffffffffffffffffff1614159050919050565b82805461078090610bd5565b90600052602060002090601f0160209004810192826107a257600085556107e9565b82601f106107bb57805160ff19168380011785556107e9565b828001600101855582156107e9579182015b828111156107e85782518255916020019190600101906107cd565b5b5090506107f691906107fa565b5090565b5b808211156108135760008160009055506001016107fb565b5090565b600081519050919050565b600082825260208201905092915050565b60005b83811015610851578082015181840152602081019050610836565b83811115610860576000848401525b50505050565b6000601f19601f8301169050919050565b600061088282610817565b61088c8185610822565b935061089c818560208601610833565b6108a581610866565b840191505092915050565b600060208201905081810360008301526108ca8184610877565b905092915050565b6000604051905090565b600080fd5b600080fd5b6000819050919050565b6108f9816108e6565b811461090457600080fd5b50565b600081359050610916816108f0565b92915050565b600060208284031215610932576109316108dc565b5b600061094084828501610907565b91505092915050565b600073ffffffffffffffffffffffffffffffffffffffff82169050919050565b600061097482610949565b9050919050565b61098481610969565b82525050565b600060208201905061099f600083018461097b565b92915050565b6109ae81610969565b81146109b957600080fd5b50565b6000813590506109cb816109a5565b92915050565b6000602082840312156109e7576109e66108dc565b5b60006109f5848285016109bc565b91505092915050565b610a07816108e6565b82525050565b6000602082019050610a2260008301846109fe565b92915050565b600080fd5b600080fd5b7f4e487b7100000000000000000000000000000000000000000000000000000000600052604160045260246000fd5b610a6a82610866565b810181811067ffffffffffffffff82111715610a8957610a88610a32565b5b80604052505050565b6000610a9c6108d2565b9050610aa88282610a61565b919050565b600067ffffffffffffffff821115610ac857610ac7610a32565b5b610ad182610866565b9050602081019050919050565b82818337600083830152505050565b6000610b00610afb84610aad565b610a92565b905082815260208101848484011115610b1c57610b1b610a2d565b5b610b27848285610ade565b509392505050565b600082601f830112610b4457610b43610a28565b5b8135610b54848260208601610aed565b91505092915050565b600060208284031215610b7357610b726108dc565b5b600082013567ffffffffffffffff811115610b9157610b906108e1565b5b610b9d84828501610b2f565b91505092915050565b7f4e487b7100000000000000000000000000000000000000000000000000000000600052602260045260246000fd5b60006002820490506001821680610bed57607f821691505b60208210811415610c0157610c00610ba6565b5b50919050565b7f546f6b656e2049442063616e6e6f74206265207a65726f000000000000000000600082015250565b6000610c3d601783610822565b9150610c4882610c07565b602082019050919050565b60006020820190508181036000830152610c6c81610c30565b9050919050565b7f4f776e65722071756572792063616e6e6f7420626520666f7220746865207a6560008201527f726f206164647265737300000000000000000000000000000000000000000000602082015250565b6000610ccf602a83610822565b9150610cda82610c73565b604082019050919050565b60006020820190508181036000830152610cfe81610cc2565b9050919050565b600081905092915050565b6000610d1b82610817565b610d258185610d05565b9350610d35818560208601610833565b80840191505092915050565b6000610d4d8284610d10565b915081905092915050565b7f4572726f72202d204b727970746f4269726420616c726561647920657869737460008201527f7300000000000000000000000000000000000000000000000000000000000000602082015250565b6000610db4602183610822565b9150610dbf82610d58565b604082019050919050565b60006020820190508181036000830152610de381610da7565b9050919050565b7f4e487b7100000000000000000000000000000000000000000000000000000000600052601160045260246000fd5b6000610e24826108e6565b9150610e2f836108e6565b925082821015610e4257610e41610dea565b5b828203905092915050565b7f4552433732313a206d696e74696e6720746f20746865207a65726f206164647260008201527f6573730000000000000000000000000000000000000000000000000000000000602082015250565b6000610ea9602383610822565b9150610eb482610e4d565b604082019050919050565b60006020820190508181036000830152610ed881610e9c565b9050919050565b7f4552433732313a206d696e74696e67206120746f6b656e207468617420616c7260008201527f6561647920657869737473000000000000000000000000000000000000000000602082015250565b6000610f3b602b83610822565b9150610f4682610edf565b604082019050919050565b60006020820190508181036000830152610f6a81610f2e565b9050919050565b6000610f7c826108e6565b9150610f87836108e6565b9250827fffffffffffffffffffffffffffffffffffffffffffffffffffffffffffffffff03821115610fbc57610fbb610dea565b5b82820190509291505056fea2646970667358221220f228fc80bd588bd47e4faf68feebf86ffa03196e3fd9efd76a1b0cce93f3b57364736f6c634300080c0033",
  "immutableReferences": {},
  "source": "// SPDX-License-Identifier: MIT\npragma solidity ^0.8.0;\n\nimport './ERC721Connector.sol';\n\ncontract KryptoBird is ERC721Connector {\n\n  // array to store our NFTS\n  string [] public kryptoBirdz;\n\n  mapping(string => bool) _kryptoBirdzExists;\n\n  function mint(string memory _kryptoBird) public {\n\n    require(!_kryptoBirdzExists[_kryptoBird], 'Error - KryptoBird already exists');\n\n    // this is deprecatedd uint _id = KryptoBirdz.push(_kryptoBird);\n    kryptoBirdz.push(_kryptoBird);\n\n    uint _id = uint(kryptoBirdz.length) - 1;\n\n    _mint(msg.sender, _id);\n\n    _kryptoBirdzExists [_kryptoBird] = true;\n\n  }\n\n  constructor() ERC721Connector('KryptoBird', 'KBIRDZ') {}\n}\n",
  "sourcePath": "/Users/sumitgautam/Public/nft-marketplace-starter-kit/src/contracts/KryptoBirdz.sol",
  "compiler": {
    "name": "solc",
    "version": "0.8.12+commit.f00d7308.Emscripten.clang"
  },
  "schemaVersion": "3.4.4",
  "updatedAt": "2022-04-12T09:16:00.256Z",
  "networkType": "ethereum",
  "devdoc": {
    "kind": "dev",
    "methods": {
      "balanceOf(address)": {
        "params": {
          "_owner": "An address for whom to query the balance"
        },
        "returns": {
          "_0": "The number of NFTs owned by _owner, possibly zero"
        }
      },
      "ownerOf(uint256)": {
        "params": {
          "_tokenId": "The identifier for the NFT"
        },
        "returns": {
          "_0": "The address of the owner of the NFT"
        }
      }
    },
    "version": 1
  },
  "userdoc": {
    "kind": "user",
    "methods": {},
    "version": 1
  }
}