{
  "contractName": "KryptoBird",
  "abi": [
    {
      "inputs": [],
      "stateMutability": "nonpayable",
      "type": "constructor"
    },
    {
      "anonymous": false,
      "inputs": [
        {
          "indexed": true,
          "internalType": "address",
          "name": "from",
          "type": "address"
        },
        {
          "indexed": true,
          "internalType": "address",
          "name": "to",
          "type": "address"
        },
        {
          "indexed": true,
          "internalType": "uint256",
          "name": "tokenId",
          "type": "uint256"
        }
      ],
      "name": "Transfer",
      "type": "event"
    },
    {
      "inputs": [
        {
          "internalType": "address",
          "name": "_owner",
          "type": "address"
        }
      ],
      "name": "balanceOf",
      "outputs": [
        {
          "internalType": "uint256",
          "name": "",
          "type": "uint256"
        }
      ],
      "stateMutability": "view",
      "type": "function",
      "constant": true
    },
    {
      "inputs": [
        {
          "internalType": "uint256",
          "name": "",
          "type": "uint256"
        }
      ],
      "name": "kryptoBirdz",
      "outputs": [
        {
          "internalType": "string",
          "name": "",
          "type": "string"
        }
      ],
      "stateMutability": "view",
      "type": "function",
      "constant": true
    },
    {
      "inputs": [],
      "name": "name",
      "outputs": [
        {
          "internalType": "string",
          "name": "",
          "type": "string"
        }
      ],
      "stateMutability": "view",
      "type": "function",
      "constant": true
    },
    {
      "inputs": [
        {
          "internalType": "uint256",
          "name": "_tokenId",
          "type": "uint256"
        }
      ],
      "name": "ownerOf",
      "outputs": [
        {
          "internalType": "address",
          "name": "",
          "type": "address"
        }
      ],
      "stateMutability": "view",
      "type": "function",
      "constant": true
    },
    {
      "inputs": [],
      "name": "symbol",
      "outputs": [
        {
          "internalType": "string",
          "name": "",
          "type": "string"
        }
      ],
      "stateMutability": "view",
      "type": "function",
      "constant": true
    },
    {
      "inputs": [
        {
          "internalType": "uint256",
          "name": "index",
          "type": "uint256"
        }
      ],
      "name": "tokenByIndex",
      "outputs": [
        {
          "internalType": "uint256",
          "name": "",
          "type": "uint256"
        }
      ],
      "stateMutability": "view",
      "type": "function",
      "constant": true
    },
    {
      "inputs": [
        {
          "internalType": "address",
          "name": "owner",
          "type": "address"
        },
        {
          "internalType": "uint256",
          "name": "index",
          "type": "uint256"
        }
      ],
      "name": "tokenOfOwnerByIndex",
      "outputs": [
        {
          "internalType": "uint256",
          "name": "",
          "type": "uint256"
        }
      ],
      "stateMutability": "view",
      "type": "function",
      "constant": true
    },
    {
      "inputs": [],
      "name": "totalSupply",
      "outputs": [
        {
          "internalType": "uint256",
          "name": "",
          "type": "uint256"
        }
      ],
      "stateMutability": "view",
      "type": "function",
      "constant": true
    },
    {
      "inputs": [
        {
          "internalType": "address",
          "name": "_from",
          "type": "address"
        },
        {
          "internalType": "address",
          "name": "_to",
          "type": "address"
        },
        {
          "internalType": "uint256",
          "name": "_tokenId",
          "type": "uint256"
        }
      ],
      "name": "transferFrom",
      "outputs": [],
      "stateMutability": "nonpayable",
      "type": "function"
    },
    {
      "inputs": [
        {
          "internalType": "string",
          "name": "_kryptoBird",
          "type": "string"
        }
      ],
      "name": "mint",
      "outputs": [],
      "stateMutability": "nonpayable",
      "type": "function"
    }
  ],
  "bytecode": "0x60806040523480156200001157600080fd5b506040518060400160405280600a81526020017f4b727970746f42697264000000000000000000000000000000000000000000008152506040518060400160405280600681526020017f4b424952445a00000000000000000000000000000000000000000000000000008152508181816000908051906020019062000098929190620000bc565b508060019080519060200190620000b1929190620000bc565b5050505050620001d0565b828054620000ca906200019b565b90600052602060002090601f016020900481019282620000ee57600085556200013a565b82601f106200010957805160ff19168380011785556200013a565b828001600101855582156200013a579182015b82811115620001395782518255916020019190600101906200011c565b5b5090506200014991906200014d565b5090565b5b80821115620001685760008160009055506001016200014e565b5090565b7f4e487b7100000000000000000000000000000000000000000000000000000000600052602260045260246000fd5b60006002820490506001821680620001b457607f821691505b602082108103620001ca57620001c96200016c565b5b50919050565b61193c80620001e06000396000f3fe608060405234801561001057600080fd5b506004361061009e5760003560e01c80636352211e116100665780636352211e1461015b57806370a082311461018b57806393ab6e56146101bb57806395d89b41146101eb578063d85d3d27146102095761009e565b806306fdde03146100a357806318160ddd146100c157806323b872dd146100df5780632f745c59146100fb5780634f6ccce71461012b575b600080fd5b6100ab610225565b6040516100b89190610ef0565b60405180910390f35b6100c96102b7565b6040516100d69190610f2b565b60405180910390f35b6100f960048036038101906100f49190610fe4565b6102c4565b005b61011560048036038101906101109190611037565b6102d4565b6040516101229190610f2b565b60405180910390f35b61014560048036038101906101409190611077565b6103f5565b6040516101529190610f2b565b60405180910390f35b61017560048036038101906101709190611077565b6104cd565b60405161018291906110b3565b60405180910390f35b6101a560048036038101906101a091906110ce565b61054c565b6040516101b29190610f2b565b60405180910390f35b6101d560048036038101906101d09190611077565b610603565b6040516101e29190610ef0565b60405180910390f35b6101f36106af565b6040516102009190610ef0565b60405180910390f35b610223600480360381019061021e9190611230565b610741565b005b606060008054610234906112a8565b80601f0160208091040260200160405190810160405280929190818152602001828054610260906112a8565b80156102ad5780601f10610282576101008083540402835291602001916102ad565b820191906000526020600020905b81548152906001019060200180831161029057829003601f168201915b5050505050905090565b6000600580549050905090565b6102cf838383610844565b505050565b60003073ffffffffffffffffffffffffffffffffffffffff166370a08231846040518263ffffffff1660e01b815260040161030f91906110b3565b602060405180830381865afa15801561032c573d6000803e3d6000fd5b505050506040513d601f19601f8201168201806040525081019061035091906112ee565b8210610391576040517f08c379a000000000000000000000000000000000000000000000000000000000815260040161038890611367565b60405180910390fd5b600760008473ffffffffffffffffffffffffffffffffffffffff1673ffffffffffffffffffffffffffffffffffffffff16815260200190815260200160002082815481106103e2576103e1611387565b5b9060005260206000200154905092915050565b60003073ffffffffffffffffffffffffffffffffffffffff166318160ddd6040518163ffffffff1660e01b8152600401602060405180830381865afa158015610442573d6000803e3d6000fd5b505050506040513d601f19601f8201168201806040525081019061046691906112ee565b82106104a7576040517f08c379a000000000000000000000000000000000000000000000000000000000815260040161049e90611402565b60405180910390fd5b600582815481106104bb576104ba611387565b5b90600052602060002001549050919050565b6000808203610511576040517f08c379a00000000000000000000000000000000000000000000000000000000081526004016105089061146e565b60405180910390fd5b6002600083815260200190815260200160002060009054906101000a900473ffffffffffffffffffffffffffffffffffffffff169050919050565b60008073ffffffffffffffffffffffffffffffffffffffff168273ffffffffffffffffffffffffffffffffffffffff16036105bc576040517f08c379a00000000000000000000000000000000000000000000000000000000081526004016105b390611500565b60405180910390fd5b600360008373ffffffffffffffffffffffffffffffffffffffff1673ffffffffffffffffffffffffffffffffffffffff168152602001908152602001600020549050919050565b6009818154811061061357600080fd5b90600052602060002001600091509050805461062e906112a8565b80601f016020809104026020016040519081016040528092919081815260200182805461065a906112a8565b80156106a75780601f1061067c576101008083540402835291602001916106a7565b820191906000526020600020905b81548152906001019060200180831161068a57829003601f168201915b505050505081565b6060600180546106be906112a8565b80601f01602080910402602001604051908101604052809291908181526020018280546106ea906112a8565b80156107375780601f1061070c57610100808354040283529160200191610737565b820191906000526020600020905b81548152906001019060200180831161071a57829003601f168201915b5050505050905090565b600a81604051610751919061155c565b908152602001604051809103902060009054906101000a900460ff16156107ad576040517f08c379a00000000000000000000000000000000000000000000000000000000081526004016107a4906115e5565b60405180910390fd5b6009819080600181540180825580915050600190039060005260206000200160009091909190915090805190602001906107e8929190610db4565b50600060016009805490506107fd9190611634565b90506108093382610a6e565b6001600a8360405161081b919061155c565b908152602001604051809103902060006101000a81548160ff0219169083151502179055505050565b600073ffffffffffffffffffffffffffffffffffffffff168273ffffffffffffffffffffffffffffffffffffffff16036108b3576040517f08c379a00000000000000000000000000000000000000000000000000000000081526004016108aa906116da565b60405180910390fd5b8273ffffffffffffffffffffffffffffffffffffffff166108d3826104cd565b73ffffffffffffffffffffffffffffffffffffffff1614610929576040517f08c379a00000000000000000000000000000000000000000000000000000000081526004016109209061176c565b60405180910390fd5b6001600360008573ffffffffffffffffffffffffffffffffffffffff1673ffffffffffffffffffffffffffffffffffffffff16815260200190815260200160002060008282546109799190611634565b925050819055506001600360008473ffffffffffffffffffffffffffffffffffffffff1673ffffffffffffffffffffffffffffffffffffffff16815260200190815260200160002060008282546109d0919061178c565b925050819055508173ffffffffffffffffffffffffffffffffffffffff166002600083815260200190815260200160002060009054906101000a90505050808273ffffffffffffffffffffffffffffffffffffffff168473ffffffffffffffffffffffffffffffffffffffff167fddf252ad1be2c89b69c2b068fc378daa952ba7f163c4a11628f55a4df523b3ef60405160405180910390a4505050565b610a788282610a8f565b610a8181610c3b565b610a8b8282610c84565b5050565b600073ffffffffffffffffffffffffffffffffffffffff168273ffffffffffffffffffffffffffffffffffffffff1603610afe576040517f08c379a0000000000000000000000000000000000000000000000000000000008152600401610af590611854565b60405180910390fd5b60011515610b0b82610d48565b151503610b4d576040517f08c379a0000000000000000000000000000000000000000000000000000000008152600401610b44906118e6565b60405180910390fd5b8173ffffffffffffffffffffffffffffffffffffffff166002600083815260200190815260200160002060009054906101000a905050506001600360008473ffffffffffffffffffffffffffffffffffffffff1673ffffffffffffffffffffffffffffffffffffffff1681526020019081526020016000206000828254610bd4919061178c565b92505081905550808273ffffffffffffffffffffffffffffffffffffffff16600073ffffffffffffffffffffffffffffffffffffffff167fddf252ad1be2c89b69c2b068fc378daa952ba7f163c4a11628f55a4df523b3ef60405160405180910390a45050565b6005805490506006600083815260200190815260200160002081905550600581908060018154018082558091505060019003906000526020600020016000909190919091505550565b600760008373ffffffffffffffffffffffffffffffffffffffff1673ffffffffffffffffffffffffffffffffffffffff168152602001908152602001600020805490506008600083815260200190815260200160002081905550600760008373ffffffffffffffffffffffffffffffffffffffff1673ffffffffffffffffffffffffffffffffffffffff1681526020019081526020016000208190806001815401808255809150506001900390600052602060002001600090919091909150555050565b60008073ffffffffffffffffffffffffffffffffffffffff166002600084815260200190815260200160002060009054906101000a900473ffffffffffffffffffffffffffffffffffffffff1673ffffffffffffffffffffffffffffffffffffffff1614159050919050565b828054610dc0906112a8565b90600052602060002090601f016020900481019282610de25760008555610e29565b82601f10610dfb57805160ff1916838001178555610e29565b82800160010185558215610e29579182015b82811115610e28578251825591602001919060010190610e0d565b5b509050610e369190610e3a565b5090565b5b80821115610e53576000816000905550600101610e3b565b5090565b600081519050919050565b600082825260208201905092915050565b60005b83811015610e91578082015181840152602081019050610e76565b83811115610ea0576000848401525b50505050565b6000601f19601f8301169050919050565b6000610ec282610e57565b610ecc8185610e62565b9350610edc818560208601610e73565b610ee581610ea6565b840191505092915050565b60006020820190508181036000830152610f0a8184610eb7565b905092915050565b6000819050919050565b610f2581610f12565b82525050565b6000602082019050610f406000830184610f1c565b92915050565b6000604051905090565b600080fd5b600080fd5b600073ffffffffffffffffffffffffffffffffffffffff82169050919050565b6000610f8582610f5a565b9050919050565b610f9581610f7a565b8114610fa057600080fd5b50565b600081359050610fb281610f8c565b92915050565b610fc181610f12565b8114610fcc57600080fd5b50565b600081359050610fde81610fb8565b92915050565b600080600060608486031215610ffd57610ffc610f50565b5b600061100b86828701610fa3565b935050602061101c86828701610fa3565b925050604061102d86828701610fcf565b9150509250925092565b6000806040838503121561104e5761104d610f50565b5b600061105c85828601610fa3565b925050602061106d85828601610fcf565b9150509250929050565b60006020828403121561108d5761108c610f50565b5b600061109b84828501610fcf565b91505092915050565b6110ad81610f7a565b82525050565b60006020820190506110c860008301846110a4565b92915050565b6000602082840312156110e4576110e3610f50565b5b60006110f284828501610fa3565b91505092915050565b600080fd5b600080fd5b7f4e487b7100000000000000000000000000000000000000000000000000000000600052604160045260246000fd5b61113d82610ea6565b810181811067ffffffffffffffff8211171561115c5761115b611105565b5b80604052505050565b600061116f610f46565b905061117b8282611134565b919050565b600067ffffffffffffffff82111561119b5761119a611105565b5b6111a482610ea6565b9050602081019050919050565b82818337600083830152505050565b60006111d36111ce84611180565b611165565b9050828152602081018484840111156111ef576111ee611100565b5b6111fa8482856111b1565b509392505050565b600082601f830112611217576112166110fb565b5b81356112278482602086016111c0565b91505092915050565b60006020828403121561124657611245610f50565b5b600082013567ffffffffffffffff81111561126457611263610f55565b5b61127084828501611202565b91505092915050565b7f4e487b7100000000000000000000000000000000000000000000000000000000600052602260045260246000fd5b600060028204905060018216806112c057607f821691505b6020821081036112d3576112d2611279565b5b50919050565b6000815190506112e881610fb8565b92915050565b60006020828403121561130457611303610f50565b5b6000611312848285016112d9565b91505092915050565b7f6f776e657220696e646578206973206f7574206f6620626f756e647300000000600082015250565b6000611351601c83610e62565b915061135c8261131b565b602082019050919050565b6000602082019050818103600083015261138081611344565b9050919050565b7f4e487b7100000000000000000000000000000000000000000000000000000000600052603260045260246000fd5b7f676c6f62616c20696e646578206f7574206f6620626f756e6473210000000000600082015250565b60006113ec601b83610e62565b91506113f7826113b6565b602082019050919050565b6000602082019050818103600083015261141b816113df565b9050919050565b7f546f6b656e2049442063616e6e6f74206265207a65726f000000000000000000600082015250565b6000611458601783610e62565b915061146382611422565b602082019050919050565b600060208201905081810360008301526114878161144b565b9050919050565b7f4f776e65722071756572792063616e6e6f7420626520666f7220746865207a6560008201527f726f206164647265737300000000000000000000000000000000000000000000602082015250565b60006114ea602a83610e62565b91506114f58261148e565b604082019050919050565b60006020820190508181036000830152611519816114dd565b9050919050565b600081905092915050565b600061153682610e57565b6115408185611520565b9350611550818560208601610e73565b80840191505092915050565b6000611568828461152b565b915081905092915050565b7f4572726f72202d204b727970746f4269726420616c726561647920657869737460008201527f7300000000000000000000000000000000000000000000000000000000000000602082015250565b60006115cf602183610e62565b91506115da82611573565b604082019050919050565b600060208201905081810360008301526115fe816115c2565b9050919050565b7f4e487b7100000000000000000000000000000000000000000000000000000000600052601160045260246000fd5b600061163f82610f12565b915061164a83610f12565b92508282101561165d5761165c611605565b5b828203905092915050565b7f4572726f72202d204552433732313a207472616e7366657220746f207468652060008201527f7a65726f20616464726573730000000000000000000000000000000000000000602082015250565b60006116c4602c83610e62565b91506116cf82611668565b604082019050919050565b600060208201905081810360008301526116f3816116b7565b9050919050565b7f547279696e6720746f207472616e73666572206120746f6b656e20746865206160008201527f64647265737320646f6573206e6f74206f776e65640000000000000000000000602082015250565b6000611756603583610e62565b9150611761826116fa565b604082019050919050565b6000602082019050818103600083015261178581611749565b9050919050565b600061179782610f12565b91506117a283610f12565b9250827fffffffffffffffffffffffffffffffffffffffffffffffffffffffffffffffff038211156117d7576117d6611605565b5b828201905092915050565b7f4552433732313a206d696e74696e6720746f20746865207a65726f206164647260008201527f6573730000000000000000000000000000000000000000000000000000000000602082015250565b600061183e602383610e62565b9150611849826117e2565b604082019050919050565b6000602082019050818103600083015261186d81611831565b9050919050565b7f4552433732313a206d696e74696e67206120746f6b656e207468617420616c7260008201527f6561647920657869737473000000000000000000000000000000000000000000602082015250565b60006118d0602b83610e62565b91506118db82611874565b604082019050919050565b600060208201905081810360008301526118ff816118c3565b905091905056fea2646970667358221220c9a21473324361ba1e58f83abba86b920688c0a3134c1a55f0bcef930474a64364736f6c634300080d0033",
  "immutableReferences": {},
  "source": "// SPDX-License-Identifier: MIT\npragma solidity ^0.8.0;\n\nimport './ERC721Connector.sol';\n\ncontract KryptoBird is ERC721Connector {\n\n  // array to store our NFTS\n  string [] public kryptoBirdz;\n\n  mapping(string => bool) _kryptoBirdzExists;\n\n  function mint(string memory _kryptoBird) public {\n\n    require(!_kryptoBirdzExists[_kryptoBird], 'Error - KryptoBird already exists');\n\n    // this is deprecatedd uint _id = KryptoBirdz.push(_kryptoBird);\n    kryptoBirdz.push(_kryptoBird);\n\n    uint _id = uint(kryptoBirdz.length) - 1;\n\n    _mint(msg.sender, _id);\n\n    _kryptoBirdzExists [_kryptoBird] = true;\n\n  }\n\n  constructor() ERC721Connector('KryptoBird', 'KBIRDZ') {}\n}\n",
  "sourcePath": "/Users/sumitgautam/Public/nft-marketplace-starter-kit/src/contracts/KryptoBirdz.sol",
  "compiler": {
    "name": "solc",
    "version": "0.8.13+commit.abaa5c0e.Emscripten.clang"
  },
  "schemaVersion": "3.4.4",
  "updatedAt": "2022-04-13T09:26:37.208Z",
  "networkType": "ethereum",
  "devdoc": {
    "kind": "dev",
    "methods": {
      "balanceOf(address)": {
        "params": {
          "_owner": "An address for whom to query the balance"
        },
        "returns": {
          "_0": "The number of NFTs owned by _owner, possibly zero"
        }
      },
      "ownerOf(uint256)": {
        "params": {
          "_tokenId": "The identifier for the NFT"
        },
        "returns": {
          "_0": "The address of the owner of the NFT"
        }
      },
      "totalSupply()": {
        "returns": {
          "_0": "A count of valid NFTs tracked by this contract, where each one of  them has an assigned and queryable owner not equal to the zero address"
        }
      }
    },
    "version": 1
  },
  "userdoc": {
    "kind": "user",
    "methods": {
      "totalSupply()": {
        "notice": "Count NFTs tracked by this contract"
      }
    },
    "version": 1
  }
}