{
  "contractName": "KryptoBird",
  "abi": [
    {
      "inputs": [],
      "stateMutability": "nonpayable",
      "type": "constructor"
    },
    {
      "anonymous": false,
      "inputs": [
        {
          "indexed": true,
          "internalType": "address",
          "name": "from",
          "type": "address"
        },
        {
          "indexed": true,
          "internalType": "address",
          "name": "to",
          "type": "address"
        },
        {
          "indexed": true,
          "internalType": "uint256",
          "name": "tokenId",
          "type": "uint256"
        }
      ],
      "name": "Transfer",
      "type": "event"
    },
    {
      "anonymous": false,
      "inputs": [
        {
          "indexed": true,
          "internalType": "address",
          "name": "owner",
          "type": "address"
        },
        {
          "indexed": true,
          "internalType": "address",
          "name": "approved",
          "type": "address"
        },
        {
          "indexed": true,
          "internalType": "uint256",
          "name": "tokenId",
          "type": "uint256"
        }
      ],
      "name": "approval",
      "type": "event"
    },
    {
      "inputs": [
        {
          "internalType": "address",
          "name": "_to",
          "type": "address"
        },
        {
          "internalType": "uint256",
          "name": "tokenId",
          "type": "uint256"
        }
      ],
      "name": "approve",
      "outputs": [],
      "stateMutability": "nonpayable",
      "type": "function"
    },
    {
      "inputs": [
        {
          "internalType": "address",
          "name": "_owner",
          "type": "address"
        }
      ],
      "name": "balanceOf",
      "outputs": [
        {
          "internalType": "uint256",
          "name": "",
          "type": "uint256"
        }
      ],
      "stateMutability": "view",
      "type": "function",
      "constant": true
    },
    {
      "inputs": [
        {
          "internalType": "uint256",
          "name": "tokenId",
          "type": "uint256"
        }
      ],
      "name": "getApproved",
      "outputs": [
        {
          "internalType": "address",
          "name": "",
          "type": "address"
        }
      ],
      "stateMutability": "view",
      "type": "function",
      "constant": true
    },
    {
      "inputs": [
        {
          "internalType": "address",
          "name": "owner",
          "type": "address"
        },
        {
          "internalType": "address",
          "name": "operator",
          "type": "address"
        }
      ],
      "name": "isApprovedForAll",
      "outputs": [
        {
          "internalType": "bool",
          "name": "",
          "type": "bool"
        }
      ],
      "stateMutability": "view",
      "type": "function",
      "constant": true
    },
    {
      "inputs": [
        {
          "internalType": "uint256",
          "name": "",
          "type": "uint256"
        }
      ],
      "name": "kryptoBirdz",
      "outputs": [
        {
          "internalType": "string",
          "name": "",
          "type": "string"
        }
      ],
      "stateMutability": "view",
      "type": "function",
      "constant": true
    },
    {
      "inputs": [],
      "name": "name",
      "outputs": [
        {
          "internalType": "string",
          "name": "",
          "type": "string"
        }
      ],
      "stateMutability": "view",
      "type": "function",
      "constant": true
    },
    {
      "inputs": [
        {
          "internalType": "uint256",
          "name": "_tokenId",
          "type": "uint256"
        }
      ],
      "name": "ownerOf",
      "outputs": [
        {
          "internalType": "address",
          "name": "",
          "type": "address"
        }
      ],
      "stateMutability": "view",
      "type": "function",
      "constant": true
    },
    {
      "inputs": [],
      "name": "symbol",
      "outputs": [
        {
          "internalType": "string",
          "name": "",
          "type": "string"
        }
      ],
      "stateMutability": "view",
      "type": "function",
      "constant": true
    },
    {
      "inputs": [
        {
          "internalType": "uint256",
          "name": "index",
          "type": "uint256"
        }
      ],
      "name": "tokenByIndex",
      "outputs": [
        {
          "internalType": "uint256",
          "name": "",
          "type": "uint256"
        }
      ],
      "stateMutability": "view",
      "type": "function",
      "constant": true
    },
    {
      "inputs": [
        {
          "internalType": "address",
          "name": "owner",
          "type": "address"
        },
        {
          "internalType": "uint256",
          "name": "index",
          "type": "uint256"
        }
      ],
      "name": "tokenOfOwnerByIndex",
      "outputs": [
        {
          "internalType": "uint256",
          "name": "",
          "type": "uint256"
        }
      ],
      "stateMutability": "view",
      "type": "function",
      "constant": true
    },
    {
      "inputs": [],
      "name": "totalSupply",
      "outputs": [
        {
          "internalType": "uint256",
          "name": "",
          "type": "uint256"
        }
      ],
      "stateMutability": "view",
      "type": "function",
      "constant": true
    },
    {
      "inputs": [
        {
          "internalType": "address",
          "name": "_from",
          "type": "address"
        },
        {
          "internalType": "address",
          "name": "_to",
          "type": "address"
        },
        {
          "internalType": "uint256",
          "name": "_tokenId",
          "type": "uint256"
        }
      ],
      "name": "transferFrom",
      "outputs": [],
      "stateMutability": "nonpayable",
      "type": "function"
    },
    {
      "inputs": [
        {
          "internalType": "string",
          "name": "_kryptoBird",
          "type": "string"
        }
      ],
      "name": "mint",
      "outputs": [],
      "stateMutability": "nonpayable",
      "type": "function"
    }
  ],
  "bytecode": "0x60806040523480156200001157600080fd5b506040518060400160405280600a81526020017f4b727970746f42697264000000000000000000000000000000000000000000008152506040518060400160405280600681526020017f4b424952445a00000000000000000000000000000000000000000000000000008152508181816000908051906020019062000098929190620000bc565b508060019080519060200190620000b1929190620000bc565b5050505050620001d0565b828054620000ca906200019b565b90600052602060002090601f016020900481019282620000ee57600085556200013a565b82601f106200010957805160ff19168380011785556200013a565b828001600101855582156200013a579182015b82811115620001395782518255916020019190600101906200011c565b5b5090506200014991906200014d565b5090565b5b80821115620001685760008160009055506001016200014e565b5090565b7f4e487b7100000000000000000000000000000000000000000000000000000000600052602260045260246000fd5b60006002820490506001821680620001b457607f821691505b602082108103620001ca57620001c96200016c565b5b50919050565b611ff980620001e06000396000f3fe608060405234801561001057600080fd5b50600436106100cf5760003560e01c80634f6ccce71161008c57806393ab6e561161006657806393ab6e561461023857806395d89b4114610268578063d85d3d2714610286578063e985e9c5146102a2576100cf565b80634f6ccce7146101a85780636352211e146101d857806370a0823114610208576100cf565b806306fdde03146100d4578063081812fc146100f2578063095ea7b31461012257806318160ddd1461013e57806323b872dd1461015c5780632f745c5914610178575b600080fd5b6100dc6102d2565b6040516100e99190611315565b60405180910390f35b61010c60048036038101906101079190611381565b610364565b60405161011991906113ef565b60405180910390f35b61013c60048036038101906101379190611436565b6103a1565b005b610146610521565b6040516101539190611485565b60405180910390f35b610176600480360381019061017191906114a0565b61052e565b005b610192600480360381019061018d9190611436565b610587565b60405161019f9190611485565b60405180910390f35b6101c260048036038101906101bd9190611381565b6106a8565b6040516101cf9190611485565b60405180910390f35b6101f260048036038101906101ed9190611381565b610780565b6040516101ff91906113ef565b60405180910390f35b610222600480360381019061021d91906114f3565b6107ff565b60405161022f9190611485565b60405180910390f35b610252600480360381019061024d9190611381565b6108b6565b60405161025f9190611315565b60405180910390f35b610270610962565b60405161027d9190611315565b60405180910390f35b6102a0600480360381019061029b9190611655565b6109f4565b005b6102bc60048036038101906102b7919061169e565b610af7565b6040516102c991906116f9565b60405180910390f35b6060600080546102e190611743565b80601f016020809104026020016040519081016040528092919081815260200182805461030d90611743565b801561035a5780601f1061032f5761010080835404028352916020019161035a565b820191906000526020600020905b81548152906001019060200180831161033d57829003601f168201915b5050505050905090565b60006004600083815260200190815260200160002060009054906101000a900473ffffffffffffffffffffffffffffffffffffffff169050919050565b60006103ac82610780565b90508073ffffffffffffffffffffffffffffffffffffffff168373ffffffffffffffffffffffffffffffffffffffff160361041c576040517f08c379a0000000000000000000000000000000000000000000000000000000008152600401610413906117e6565b60405180910390fd5b8073ffffffffffffffffffffffffffffffffffffffff163373ffffffffffffffffffffffffffffffffffffffff161461048a576040517f08c379a000000000000000000000000000000000000000000000000000000000815260040161048190611878565b60405180910390fd5b8273ffffffffffffffffffffffffffffffffffffffff166004600084815260200190815260200160002060009054906101000a90505050818373ffffffffffffffffffffffffffffffffffffffff168273ffffffffffffffffffffffffffffffffffffffff167f5c52a5f2b86fd16be577188b5a83ef1165faddc00b137b10285f16162e17792a60405160405180910390a4505050565b6000600680549050905090565b6105383382610b8b565b610577576040517f08c379a000000000000000000000000000000000000000000000000000000000815260040161056e9061190a565b60405180910390fd5b610582838383610c69565b505050565b60003073ffffffffffffffffffffffffffffffffffffffff166370a08231846040518263ffffffff1660e01b81526004016105c291906113ef565b602060405180830381865afa1580156105df573d6000803e3d6000fd5b505050506040513d601f19601f82011682018060405250810190610603919061193f565b8210610644576040517f08c379a000000000000000000000000000000000000000000000000000000000815260040161063b906119b8565b60405180910390fd5b600860008473ffffffffffffffffffffffffffffffffffffffff1673ffffffffffffffffffffffffffffffffffffffff1681526020019081526020016000208281548110610695576106946119d8565b5b9060005260206000200154905092915050565b60003073ffffffffffffffffffffffffffffffffffffffff166318160ddd6040518163ffffffff1660e01b8152600401602060405180830381865afa1580156106f5573d6000803e3d6000fd5b505050506040513d601f19601f82011682018060405250810190610719919061193f565b821061075a576040517f08c379a000000000000000000000000000000000000000000000000000000000815260040161075190611a53565b60405180910390fd5b6006828154811061076e5761076d6119d8565b5b90600052602060002001549050919050565b60008082036107c4576040517f08c379a00000000000000000000000000000000000000000000000000000000081526004016107bb90611abf565b60405180910390fd5b6002600083815260200190815260200160002060009054906101000a900473ffffffffffffffffffffffffffffffffffffffff169050919050565b60008073ffffffffffffffffffffffffffffffffffffffff168273ffffffffffffffffffffffffffffffffffffffff160361086f576040517f08c379a000000000000000000000000000000000000000000000000000000000815260040161086690611b51565b60405180910390fd5b600360008373ffffffffffffffffffffffffffffffffffffffff1673ffffffffffffffffffffffffffffffffffffffff168152602001908152602001600020549050919050565b600a81815481106108c657600080fd5b9060005260206000200160009150905080546108e190611743565b80601f016020809104026020016040519081016040528092919081815260200182805461090d90611743565b801561095a5780601f1061092f5761010080835404028352916020019161095a565b820191906000526020600020905b81548152906001019060200180831161093d57829003601f168201915b505050505081565b60606001805461097190611743565b80601f016020809104026020016040519081016040528092919081815260200182805461099d90611743565b80156109ea5780601f106109bf576101008083540402835291602001916109ea565b820191906000526020600020905b8154815290600101906020018083116109cd57829003601f168201915b5050505050905090565b600b81604051610a049190611bad565b908152602001604051809103902060009054906101000a900460ff1615610a60576040517f08c379a0000000000000000000000000000000000000000000000000000000008152600401610a5790611c36565b60405180910390fd5b600a81908060018154018082558091505060019003906000526020600020016000909190919091509080519060200190610a9b9291906111d9565b5060006001600a80549050610ab09190611c85565b9050610abc3382610e93565b6001600b83604051610ace9190611bad565b908152602001604051809103902060006101000a81548160ff0219169083151502179055505050565b6000600560008473ffffffffffffffffffffffffffffffffffffffff1673ffffffffffffffffffffffffffffffffffffffff16815260200190815260200160002060008373ffffffffffffffffffffffffffffffffffffffff1673ffffffffffffffffffffffffffffffffffffffff16815260200190815260200160002060009054906101000a900460ff16905092915050565b6000610b9682610eb4565b610bd5576040517f08c379a0000000000000000000000000000000000000000000000000000000008152600401610bcc90611d05565b60405180910390fd5b6000610be083610780565b90508073ffffffffffffffffffffffffffffffffffffffff168473ffffffffffffffffffffffffffffffffffffffff161480610c225750610c218185610af7565b5b80610c6057508373ffffffffffffffffffffffffffffffffffffffff16610c4884610364565b73ffffffffffffffffffffffffffffffffffffffff16145b91505092915050565b600073ffffffffffffffffffffffffffffffffffffffff168273ffffffffffffffffffffffffffffffffffffffff1603610cd8576040517f08c379a0000000000000000000000000000000000000000000000000000000008152600401610ccf90611d97565b60405180910390fd5b8273ffffffffffffffffffffffffffffffffffffffff16610cf882610780565b73ffffffffffffffffffffffffffffffffffffffff1614610d4e576040517f08c379a0000000000000000000000000000000000000000000000000000000008152600401610d4590611e29565b60405180910390fd5b6001600360008573ffffffffffffffffffffffffffffffffffffffff1673ffffffffffffffffffffffffffffffffffffffff1681526020019081526020016000206000828254610d9e9190611c85565b925050819055506001600360008473ffffffffffffffffffffffffffffffffffffffff1673ffffffffffffffffffffffffffffffffffffffff1681526020019081526020016000206000828254610df59190611e49565b925050819055508173ffffffffffffffffffffffffffffffffffffffff166002600083815260200190815260200160002060009054906101000a90505050808273ffffffffffffffffffffffffffffffffffffffff168473ffffffffffffffffffffffffffffffffffffffff167fddf252ad1be2c89b69c2b068fc378daa952ba7f163c4a11628f55a4df523b3ef60405160405180910390a4505050565b610e9d8282610f20565b610ea6816110cc565b610eb08282611115565b5050565b60008073ffffffffffffffffffffffffffffffffffffffff166002600084815260200190815260200160002060009054906101000a900473ffffffffffffffffffffffffffffffffffffffff1673ffffffffffffffffffffffffffffffffffffffff1614159050919050565b600073ffffffffffffffffffffffffffffffffffffffff168273ffffffffffffffffffffffffffffffffffffffff1603610f8f576040517f08c379a0000000000000000000000000000000000000000000000000000000008152600401610f8690611f11565b60405180910390fd5b60011515610f9c82610eb4565b151503610fde576040517f08c379a0000000000000000000000000000000000000000000000000000000008152600401610fd590611fa3565b60405180910390fd5b8173ffffffffffffffffffffffffffffffffffffffff166002600083815260200190815260200160002060009054906101000a905050506001600360008473ffffffffffffffffffffffffffffffffffffffff1673ffffffffffffffffffffffffffffffffffffffff16815260200190815260200160002060008282546110659190611e49565b92505081905550808273ffffffffffffffffffffffffffffffffffffffff16600073ffffffffffffffffffffffffffffffffffffffff167fddf252ad1be2c89b69c2b068fc378daa952ba7f163c4a11628f55a4df523b3ef60405160405180910390a45050565b6006805490506007600083815260200190815260200160002081905550600681908060018154018082558091505060019003906000526020600020016000909190919091505550565b600860008373ffffffffffffffffffffffffffffffffffffffff1673ffffffffffffffffffffffffffffffffffffffff168152602001908152602001600020805490506009600083815260200190815260200160002081905550600860008373ffffffffffffffffffffffffffffffffffffffff1673ffffffffffffffffffffffffffffffffffffffff1681526020019081526020016000208190806001815401808255809150506001900390600052602060002001600090919091909150555050565b8280546111e590611743565b90600052602060002090601f016020900481019282611207576000855561124e565b82601f1061122057805160ff191683800117855561124e565b8280016001018555821561124e579182015b8281111561124d578251825591602001919060010190611232565b5b50905061125b919061125f565b5090565b5b80821115611278576000816000905550600101611260565b5090565b600081519050919050565b600082825260208201905092915050565b60005b838110156112b657808201518184015260208101905061129b565b838111156112c5576000848401525b50505050565b6000601f19601f8301169050919050565b60006112e78261127c565b6112f18185611287565b9350611301818560208601611298565b61130a816112cb565b840191505092915050565b6000602082019050818103600083015261132f81846112dc565b905092915050565b6000604051905090565b600080fd5b600080fd5b6000819050919050565b61135e8161134b565b811461136957600080fd5b50565b60008135905061137b81611355565b92915050565b60006020828403121561139757611396611341565b5b60006113a58482850161136c565b91505092915050565b600073ffffffffffffffffffffffffffffffffffffffff82169050919050565b60006113d9826113ae565b9050919050565b6113e9816113ce565b82525050565b600060208201905061140460008301846113e0565b92915050565b611413816113ce565b811461141e57600080fd5b50565b6000813590506114308161140a565b92915050565b6000806040838503121561144d5761144c611341565b5b600061145b85828601611421565b925050602061146c8582860161136c565b9150509250929050565b61147f8161134b565b82525050565b600060208201905061149a6000830184611476565b92915050565b6000806000606084860312156114b9576114b8611341565b5b60006114c786828701611421565b93505060206114d886828701611421565b92505060406114e98682870161136c565b9150509250925092565b60006020828403121561150957611508611341565b5b600061151784828501611421565b91505092915050565b600080fd5b600080fd5b7f4e487b7100000000000000000000000000000000000000000000000000000000600052604160045260246000fd5b611562826112cb565b810181811067ffffffffffffffff821117156115815761158061152a565b5b80604052505050565b6000611594611337565b90506115a08282611559565b919050565b600067ffffffffffffffff8211156115c0576115bf61152a565b5b6115c9826112cb565b9050602081019050919050565b82818337600083830152505050565b60006115f86115f3846115a5565b61158a565b90508281526020810184848401111561161457611613611525565b5b61161f8482856115d6565b509392505050565b600082601f83011261163c5761163b611520565b5b813561164c8482602086016115e5565b91505092915050565b60006020828403121561166b5761166a611341565b5b600082013567ffffffffffffffff81111561168957611688611346565b5b61169584828501611627565b91505092915050565b600080604083850312156116b5576116b4611341565b5b60006116c385828601611421565b92505060206116d485828601611421565b9150509250929050565b60008115159050919050565b6116f3816116de565b82525050565b600060208201905061170e60008301846116ea565b92915050565b7f4e487b7100000000000000000000000000000000000000000000000000000000600052602260045260246000fd5b6000600282049050600182168061175b57607f821691505b60208210810361176e5761176d611714565b5b50919050565b7f4572726f72202d20617070726f76616c20746f2063757272656e74206f776e6560008201527f7200000000000000000000000000000000000000000000000000000000000000602082015250565b60006117d0602183611287565b91506117db82611774565b604082019050919050565b600060208201905081810360008301526117ff816117c3565b9050919050565b7f43757272656e742063616c6c6572206973206e6f7420746865206f776e65722060008201527f6f662074686520746f6b656e0000000000000000000000000000000000000000602082015250565b6000611862602c83611287565b915061186d82611806565b604082019050919050565b6000602082019050818103600083015261189181611855565b9050919050565b7f4552433732313a206d757374206861766520617070726f766564206f72206f7760008201527f6e65722073746174757320666f722074686520746f6b656e0000000000000000602082015250565b60006118f4603883611287565b91506118ff82611898565b604082019050919050565b60006020820190508181036000830152611923816118e7565b9050919050565b60008151905061193981611355565b92915050565b60006020828403121561195557611954611341565b5b60006119638482850161192a565b91505092915050565b7f6f776e657220696e646578206973206f7574206f6620626f756e647300000000600082015250565b60006119a2601c83611287565b91506119ad8261196c565b602082019050919050565b600060208201905081810360008301526119d181611995565b9050919050565b7f4e487b7100000000000000000000000000000000000000000000000000000000600052603260045260246000fd5b7f676c6f62616c20696e646578206f7574206f6620626f756e6473210000000000600082015250565b6000611a3d601b83611287565b9150611a4882611a07565b602082019050919050565b60006020820190508181036000830152611a6c81611a30565b9050919050565b7f546f6b656e2049442063616e6e6f74206265207a65726f000000000000000000600082015250565b6000611aa9601783611287565b9150611ab482611a73565b602082019050919050565b60006020820190508181036000830152611ad881611a9c565b9050919050565b7f4f776e65722071756572792063616e6e6f7420626520666f7220746865207a6560008201527f726f206164647265737300000000000000000000000000000000000000000000602082015250565b6000611b3b602a83611287565b9150611b4682611adf565b604082019050919050565b60006020820190508181036000830152611b6a81611b2e565b9050919050565b600081905092915050565b6000611b878261127c565b611b918185611b71565b9350611ba1818560208601611298565b80840191505092915050565b6000611bb98284611b7c565b915081905092915050565b7f4572726f72202d204b727970746f4269726420616c726561647920657869737460008201527f7300000000000000000000000000000000000000000000000000000000000000602082015250565b6000611c20602183611287565b9150611c2b82611bc4565b604082019050919050565b60006020820190508181036000830152611c4f81611c13565b9050919050565b7f4e487b7100000000000000000000000000000000000000000000000000000000600052601160045260246000fd5b6000611c908261134b565b9150611c9b8361134b565b925082821015611cae57611cad611c56565b5b828203905092915050565b7f546f6b656e20646f6573206e6f74206578697374730000000000000000000000600082015250565b6000611cef601583611287565b9150611cfa82611cb9565b602082019050919050565b60006020820190508181036000830152611d1e81611ce2565b9050919050565b7f4572726f72202d204552433732313a207472616e7366657220746f207468652060008201527f7a65726f20616464726573730000000000000000000000000000000000000000602082015250565b6000611d81602c83611287565b9150611d8c82611d25565b604082019050919050565b60006020820190508181036000830152611db081611d74565b9050919050565b7f547279696e6720746f207472616e73666572206120746f6b656e20746865206160008201527f64647265737320646f6573206e6f74206f776e65640000000000000000000000602082015250565b6000611e13603583611287565b9150611e1e82611db7565b604082019050919050565b60006020820190508181036000830152611e4281611e06565b9050919050565b6000611e548261134b565b9150611e5f8361134b565b9250827fffffffffffffffffffffffffffffffffffffffffffffffffffffffffffffffff03821115611e9457611e93611c56565b5b828201905092915050565b7f4552433732313a206d696e74696e6720746f20746865207a65726f206164647260008201527f6573730000000000000000000000000000000000000000000000000000000000602082015250565b6000611efb602383611287565b9150611f0682611e9f565b604082019050919050565b60006020820190508181036000830152611f2a81611eee565b9050919050565b7f4552433732313a206d696e74696e67206120746f6b656e207468617420616c7260008201527f6561647920657869737473000000000000000000000000000000000000000000602082015250565b6000611f8d602b83611287565b9150611f9882611f31565b604082019050919050565b60006020820190508181036000830152611fbc81611f80565b905091905056fea2646970667358221220f97c4697f1e10b4f2ea0b6c5df1ac58131acf893af251f498c5c1f932224401964736f6c634300080d0033",
  "immutableReferences": {},
  "source": "// SPDX-License-Identifier: MIT\npragma solidity ^0.8.0;\n\nimport './ERC721Connector.sol';\n\ncontract KryptoBird is ERC721Connector {\n\n  // array to store our NFTS\n  string [] public kryptoBirdz;\n\n  mapping(string => bool) _kryptoBirdzExists;\n\n  function mint(string memory _kryptoBird) public {\n\n    require(!_kryptoBirdzExists[_kryptoBird], 'Error - KryptoBird already exists');\n\n    // this is deprecatedd uint _id = KryptoBirdz.push(_kryptoBird);\n    kryptoBirdz.push(_kryptoBird);\n\n    uint _id = uint(kryptoBirdz.length) - 1;\n\n    _mint(msg.sender, _id);\n\n    _kryptoBirdzExists [_kryptoBird] = true;\n\n  }\n\n  constructor() ERC721Connector('KryptoBird', 'KBIRDZ') {}\n}\n",
  "sourcePath": "/Users/sumitgautam/Public/nft-marketplace-starter-kit/src/contracts/KryptoBirdz.sol",
  "compiler": {
    "name": "solc",
    "version": "0.8.13+commit.abaa5c0e.Emscripten.clang"
  },
  "schemaVersion": "3.4.4",
  "updatedAt": "2022-04-14T06:33:45.255Z",
  "networkType": "ethereum",
  "devdoc": {
    "kind": "dev",
    "methods": {
      "balanceOf(address)": {
        "params": {
          "_owner": "An address for whom to query the balance"
        },
        "returns": {
          "_0": "The number of NFTs owned by _owner, possibly zero"
        }
      },
      "ownerOf(uint256)": {
        "params": {
          "_tokenId": "The identifier for the NFT"
        },
        "returns": {
          "_0": "The address of the owner of the NFT"
        }
      },
      "totalSupply()": {
        "returns": {
          "_0": "A count of valid NFTs tracked by this contract, where each one of  them has an assigned and queryable owner not equal to the zero address"
        }
      }
    },
    "version": 1
  },
  "userdoc": {
    "kind": "user",
    "methods": {
      "totalSupply()": {
        "notice": "Count NFTs tracked by this contract"
      }
    },
    "version": 1
  }
}